{
  "contractName": "Behaviour201907",
  "abi": [
    {
      "inputs": [],
      "payable": false,
      "stateMutability": "nonpayable",
      "type": "constructor"
    },
    {
      "anonymous": false,
      "inputs": [
        {
          "indexed": true,
          "internalType": "address",
          "name": "previousOwner",
          "type": "address"
        },
        {
          "indexed": true,
          "internalType": "address",
          "name": "newOwner",
          "type": "address"
        }
      ],
      "name": "OwnershipTransferred",
      "type": "event"
    },
    {
      "constant": true,
      "inputs": [],
      "name": "BURN_PROOF",
      "outputs": [
        {
          "internalType": "uint24",
          "name": "",
          "type": "uint24"
        }
      ],
      "payable": false,
      "stateMutability": "view",
      "type": "function"
    },
    {
      "constant": true,
      "inputs": [],
      "name": "DIVIDEND_PROOF",
      "outputs": [
        {
          "internalType": "uint24",
          "name": "",
          "type": "uint24"
        }
      ],
      "payable": false,
      "stateMutability": "view",
      "type": "function"
    },
    {
      "constant": true,
      "inputs": [],
      "name": "JOIN_SPLIT_PROOF",
      "outputs": [
        {
          "internalType": "uint24",
          "name": "",
          "type": "uint24"
        }
      ],
      "payable": false,
      "stateMutability": "view",
      "type": "function"
    },
    {
      "constant": true,
      "inputs": [],
      "name": "MINT_PROOF",
      "outputs": [
        {
          "internalType": "uint24",
          "name": "",
          "type": "uint24"
        }
      ],
      "payable": false,
      "stateMutability": "view",
      "type": "function"
    },
    {
      "constant": true,
      "inputs": [],
      "name": "PRIVATE_RANGE_PROOF",
      "outputs": [
        {
          "internalType": "uint24",
          "name": "",
          "type": "uint24"
        }
      ],
      "payable": false,
      "stateMutability": "view",
      "type": "function"
    },
    {
      "constant": true,
      "inputs": [],
      "name": "PUBLIC_RANGE_PROOF",
      "outputs": [
        {
          "internalType": "uint24",
          "name": "",
          "type": "uint24"
        }
      ],
      "payable": false,
      "stateMutability": "view",
      "type": "function"
    },
    {
      "constant": true,
      "inputs": [],
      "name": "ZERO_VALUE_NOTE_HASH",
      "outputs": [
        {
          "internalType": "bytes32",
          "name": "",
          "type": "bytes32"
        }
      ],
      "payable": false,
      "stateMutability": "view",
      "type": "function"
    },
    {
      "constant": true,
      "inputs": [],
      "name": "dataLocation",
      "outputs": [
        {
          "internalType": "address",
          "name": "",
          "type": "address"
        }
      ],
      "payable": false,
      "stateMutability": "view",
      "type": "function"
    },
    {
      "constant": true,
      "inputs": [],
      "name": "initialised",
      "outputs": [
        {
          "internalType": "bool",
          "name": "",
          "type": "bool"
        }
      ],
      "payable": false,
      "stateMutability": "view",
      "type": "function"
    },
    {
      "constant": true,
      "inputs": [],
      "name": "isActiveBehaviour",
      "outputs": [
        {
          "internalType": "bool",
          "name": "",
          "type": "bool"
        }
      ],
      "payable": false,
      "stateMutability": "view",
      "type": "function"
    },
    {
      "constant": true,
      "inputs": [],
      "name": "isOwner",
      "outputs": [
        {
          "internalType": "bool",
          "name": "",
          "type": "bool"
        }
      ],
      "payable": false,
      "stateMutability": "view",
      "type": "function"
    },
    {
      "constant": true,
      "inputs": [],
      "name": "owner",
      "outputs": [
        {
          "internalType": "address",
          "name": "",
          "type": "address"
        }
      ],
      "payable": false,
      "stateMutability": "view",
      "type": "function"
    },
    {
      "constant": true,
      "inputs": [],
      "name": "registry",
      "outputs": [
        {
          "internalType": "bool",
          "name": "active",
          "type": "bool"
        },
        {
          "internalType": "uint256",
          "name": "scalingFactor",
          "type": "uint256"
        },
        {
          "internalType": "bytes32",
          "name": "confidentialTotalMinted",
          "type": "bytes32"
        },
        {
          "internalType": "bytes32",
          "name": "confidentialTotalBurned",
          "type": "bytes32"
        },
        {
          "internalType": "bool",
          "name": "canConvert",
          "type": "bool"
        },
        {
          "internalType": "bool",
          "name": "canAdjustSupply",
          "type": "bool"
        }
      ],
      "payable": false,
      "stateMutability": "view",
      "type": "function"
    },
    {
      "constant": false,
      "inputs": [],
      "name": "renounceOwnership",
      "outputs": [],
      "payable": false,
      "stateMutability": "nonpayable",
      "type": "function"
    },
    {
      "constant": false,
      "inputs": [
        {
          "internalType": "address",
          "name": "newOwner",
          "type": "address"
        }
      ],
      "name": "transferOwnership",
      "outputs": [],
      "payable": false,
      "stateMutability": "nonpayable",
      "type": "function"
    },
    {
      "constant": false,
      "inputs": [
        {
          "internalType": "address",
          "name": "_newOwner",
          "type": "address"
        },
        {
          "internalType": "uint256",
          "name": "_scalingFactor",
          "type": "uint256"
        },
        {
          "internalType": "bool",
          "name": "_canAdjustSupply",
          "type": "bool"
        },
        {
          "internalType": "bool",
          "name": "_canConvert",
          "type": "bool"
        }
      ],
      "name": "initialise",
      "outputs": [],
      "payable": false,
      "stateMutability": "nonpayable",
      "type": "function"
    },
    {
      "constant": true,
      "inputs": [],
      "name": "getRegistry",
      "outputs": [
        {
          "internalType": "uint256",
          "name": "scalingFactor",
          "type": "uint256"
        },
        {
          "internalType": "bytes32",
          "name": "confidentialTotalMinted",
          "type": "bytes32"
        },
        {
          "internalType": "bytes32",
          "name": "confidentialTotalBurned",
          "type": "bytes32"
        },
        {
          "internalType": "bool",
          "name": "canConvert",
          "type": "bool"
        },
        {
          "internalType": "bool",
          "name": "canAdjustSupply",
          "type": "bool"
        }
      ],
      "payable": false,
      "stateMutability": "view",
      "type": "function"
    },
    {
      "constant": false,
      "inputs": [
        {
          "internalType": "bytes",
          "name": "",
          "type": "bytes"
        }
      ],
      "name": "burn",
      "outputs": [],
      "payable": false,
      "stateMutability": "nonpayable",
      "type": "function"
    },
    {
      "constant": false,
      "inputs": [
        {
          "internalType": "bytes",
          "name": "",
          "type": "bytes"
        }
      ],
      "name": "mint",
      "outputs": [],
      "payable": false,
      "stateMutability": "nonpayable",
      "type": "function"
    },
    {
      "constant": false,
      "inputs": [
        {
          "internalType": "uint24",
          "name": "_proof",
          "type": "uint24"
        },
        {
          "internalType": "bytes",
          "name": "_proofOutput",
          "type": "bytes"
        }
      ],
      "name": "updateNoteRegistry",
      "outputs": [
        {
          "internalType": "address",
          "name": "publicOwner",
          "type": "address"
        },
        {
          "internalType": "uint256",
          "name": "transferValue",
          "type": "uint256"
        },
        {
          "internalType": "int256",
          "name": "publicValue",
          "type": "int256"
        }
      ],
      "payable": false,
      "stateMutability": "nonpayable",
      "type": "function"
    },
    {
      "constant": true,
      "inputs": [
        {
          "internalType": "bytes32",
          "name": "_noteHash",
          "type": "bytes32"
        }
      ],
      "name": "getNote",
      "outputs": [
        {
          "internalType": "uint8",
          "name": "status",
          "type": "uint8"
        },
        {
          "internalType": "uint40",
          "name": "createdOn",
          "type": "uint40"
        },
        {
          "internalType": "uint40",
          "name": "destroyedOn",
          "type": "uint40"
        },
        {
          "internalType": "address",
          "name": "noteOwner",
          "type": "address"
        }
      ],
      "payable": false,
      "stateMutability": "view",
      "type": "function"
    },
    {
      "constant": false,
      "inputs": [],
      "name": "makeAvailable",
      "outputs": [],
      "payable": false,
      "stateMutability": "nonpayable",
      "type": "function"
    }
  ],
  "bytecode": "0x608060405234801561001057600080fd5b5060006100246001600160e01b0361008616565b600080546001600160a01b0319166001600160a01b0383169081178255604051929350917f8be0079c531659141344cd1fd0a4f28419497f9722a3daafe3b4186f6b6457e0908290a3506000805460ff60a01b1916600160a01b17905561008a565b3390565b6111e1806100996000396000f3fe608060405234801561001057600080fd5b50600436106101615760003560e01c80637ba0e2e7116100c85780638f32d59b1161008c578063ce88434311610066578063ce88434314610521578063df9246251461055d578063f2fde38b1461056557610161565b80638f32d59b146104b857806398df3d00146104c0578063ad32f9251461051957610161565b80637ba0e2e7146103f25780638500e1f81461049857806385c418f3146104a05780638da5cb5b146104a85780638e526d9b146104b057610161565b80632a07b6c71161012a5780635ab1bd53116101045780635ab1bd5314610372578063715018a6146103a95780637b103999146103b157610161565b80632a07b6c7146101e8578063386612381461029057806349518b281461036a57610161565b80625bf7321461016657806303e012e31461018657806307003bb4146101aa57806307616051146101c657806308ae900a146101e0575b600080fd5b61016e61058b565b6040805162ffffff9092168252519081900360200190f35b61018e610592565b604080516001600160a01b039092168252519081900360200190f35b6101b26105a1565b604080519115158252519081900360200190f35b6101ce6105b1565b60408051918252519081900360200190f35b61016e6105d5565b61028e600480360360208110156101fe57600080fd5b81019060208101813564010000000081111561021957600080fd5b82018360208201111561022b57600080fd5b8035906020019184600183028401116401000000008311171561024d57600080fd5b91908080601f0160208091040260200160405190810160405280939291908181526020018383808284376000920191909152509295506105dc945050505050565b005b610342600480360360408110156102a657600080fd5b62ffffff82351691908101906040810160208201356401000000008111156102cd57600080fd5b8201836020820111156102df57600080fd5b8035906020019184600183028401116401000000008311171561030157600080fd5b91908080601f01602080910402602001604051908101604052809392919081815260200183838082843760009201919091525092955061069a945050505050565b604080516001600160a01b039094168452602084019290925282820152519081900360600190f35b61016e6107fa565b61037a610801565b604080519586526020860194909452848401929092521515606084015215156080830152519081900360a00190f35b61028e610890565b6103b9610933565b604080519615158752602087019590955285850193909352606085019190915215156080840152151560a0830152519081900360c00190f35b61028e6004803603602081101561040857600080fd5b81019060208101813564010000000081111561042357600080fd5b82018360208201111561043557600080fd5b8035906020019184600183028401116401000000008311171561045757600080fd5b91908080601f016020809104026020016040519081016040528093929190818152602001838380828437600092019190915250929550610955945050505050565b61016e610a10565b6101b2610a17565b61018e610a27565b61016e610a36565b6101b2610a3d565b6104dd600480360360208110156104d657600080fd5b5035610a61565b6040805160ff909516855264ffffffffff938416602086015291909216838201526001600160a01b039091166060830152519081900360800190f35b61028e610b0c565b61028e6004803603608081101561053757600080fd5b506001600160a01b03813516906020810135906040810135151590606001351515610b0e565b61016e610c36565b61028e6004803603602081101561057b57600080fd5b50356001600160a01b0316610c3d565b6201010181565b6001546001600160a01b031681565b600054600160a81b900460ff1681565b7f26d21f105b054b61e8d9680855c3af0633bd7c140b87de95f0ac218046fc71db81565b6201040381565b6105e4610a3d565b610635576040805162461bcd60e51b815260206004820181905260248201527f4f776e61626c653a2063616c6c6572206973206e6f7420746865206f776e6572604482015290519081900360640190fd5b60065460ff610100909104161515600114610697576040805162461bcd60e51b815260206004820152601a60248201527f74686973206173736574206973206e6f74206275726e61626c65000000000000604482015290519081900360640190fd5b50565b60008060006106a7610a3d565b6106f8576040805162461bcd60e51b815260206004820181905260248201527f4f776e61626c653a2063616c6c6572206973206e6f7420746865206f776e6572604482015290519081900360640190fd5b60025460ff16151560011461073e5760405162461bcd60e51b81526004018080602001828103825260328152602001806111106032913960400191505060405180910390fd5b60608061074a86610c9f565b9097509450909250905061075d82610cc9565b61076681610d1a565b82156107f15760065460ff1615156001146107b25760405162461bcd60e51b815260040180806020018281038252602c8152602001806110e4602c913960400191505060405180910390fd5b60008312156107da576003546107d39060008590039063ffffffff610da716565b93506107f1565b6003546107ee90849063ffffffff610da716565b93505b50509250925092565b6201040281565b600254600090819081908190819060ff161515600114610868576040805162461bcd60e51b815260206004820152601f60248201527f657870656374656420726567697374727920746f206265206372656174656400604482015290519081900360640190fd5b50506003546004546005546006549296919550935060ff808316935061010090920490911690565b610898610a3d565b6108e9576040805162461bcd60e51b815260206004820181905260248201527f4f776e61626c653a2063616c6c6572206973206e6f7420746865206f776e6572604482015290519081900360640190fd5b600080546040516001600160a01b03909116907f8be0079c531659141344cd1fd0a4f28419497f9722a3daafe3b4186f6b6457e0908390a3600080546001600160a01b0319169055565b60025460035460045460055460065460ff948516948181169161010090041686565b61095d610a3d565b6109ae576040805162461bcd60e51b815260206004820181905260248201527f4f776e61626c653a2063616c6c6572206973206e6f7420746865206f776e6572604482015290519081900360640190fd5b60065460ff610100909104161515600114610697576040805162461bcd60e51b815260206004820152601a60248201527f74686973206173736574206973206e6f74206d696e7461626c65000000000000604482015290519081900360640190fd5b6201040181565b600054600160a01b900460ff1681565b6000546001600160a01b031690565b6201020181565b600080546001600160a01b0316610a52610e09565b6001600160a01b031614905090565b60008181526007602052604081205481908190819060ff16610aca576040805162461bcd60e51b815260206004820152601660248201527f6578706563746564206e6f746520746f20657869737400000000000000000000604482015290519081900360640190fd5b5050506000918252506007602052604090205460ff811691600882901c64ffffffffff90811692603081901c9091169160589190911c6001600160a01b031690565b565b600054600160a81b900460ff16151560011415610b72576040805162461bcd60e51b815260206004820152601c60248201527f726567697374727920616c726561647920696e697469616c6973656400000000604482015290519081900360640190fd5b610b7b84610e0d565b60018054336001600160a01b03199091161781556040805160c081018252828152602081018690527f26d21f105b054b61e8d9680855c3af0633bd7c140b87de95f0ac218046fc71db918101829052606081018290529215156080840181905293151560a09093018390526002805460ff19908116909317905560039490945560048490556005939093556006805490931690911761ff0019166101009091021790555060008054600160a81b60ff60a81b19909116179055565b6201030181565b610c45610a3d565b610c96576040805162461bcd60e51b815260206004820181905260248201527f4f776e61626c653a2063616c6c6572206973206e6f7420746865206f776e6572604482015290519081900360640190fd5b61069781610e0d565b60208101516040820151606083015160808401519284019491909301926001600160a01b03169190565b6000610cd482610ead565b905060005b81811015610d1557600080610cfc610cf7868563ffffffff610eb416565b610f0b565b5091509150610d0b8183610f29565b5050600101610cd9565b505050565b6000610d2582610ead565b905060005b81811015610d1557600080610d48610cf7868563ffffffff610eb416565b5090925090506001600160a01b038216610d935760405162461bcd60e51b81526004018080602001828103825260288152602001806111636028913960400191505060405180910390fd5b610d9d8183611037565b5050600101610d2a565b600082610db657506000610e03565b82820282848281610dc357fe5b0414610e005760405162461bcd60e51b81526004018080602001828103825260218152602001806111426021913960400191505060405180910390fd5b90505b92915050565b3390565b6001600160a01b038116610e525760405162461bcd60e51b81526004018080602001828103825260268152602001806110be6026913960400191505060405180910390fd5b600080546040516001600160a01b03808516939216917f8be0079c531659141344cd1fd0a4f28419497f9722a3daafe3b4186f6b6457e091a3600080546001600160a01b0319166001600160a01b0392909216919091179055565b6020015190565b602082810151908202830160400151830190821080610f045760405162461bcd60e51b815260040180806020018281038252602281526020018061118b6022913960400191505060405180910390fd5b5092915050565b604081015160608201516001600160a01b0390911692909160800190565b600082815260076020526040902080546affffffffff0000000000ff1981166affffffffff0000000000004260301b1617600290811783559160ff82169160581c6001600160a01b03169060018314610fc9576040805162461bcd60e51b815260206004820181905260248201527f696e707574206e6f746520737461747573206973206e6f7420554e5350454e54604482015290519081900360640190fd5b846001600160a01b0316826001600160a01b03161461102f576040805162461bcd60e51b815260206004820152601f60248201527f696e707574206e6f7465206f776e657220646f6573206e6f74206d6174636800604482015290519081900360640190fd5b505050505050565b600082815260076020526040902080546001919060ff16156110a0576040805162461bcd60e51b815260206004820152601260248201527f6f7574707574206e6f7465206578697374730000000000000000000000000000604482015290519081900360640190fd5b8260581b64ffffffffff421660081b60ff8416171781555050505056fe4f776e61626c653a206e6577206f776e657220697320746865207a65726f206164647265737361737365742063616e6e6f7420626520636f6e76657274656420696e746f207075626c696320746f6b656e736e6f746520726567697374727920646f6573206e6f7420657869737420666f722074686520676976656e2061646472657373536166654d6174683a206d756c7469706c69636174696f6e206f766572666c6f776f7574707574206e6f7465206f776e65722063616e6e6f7420626520616464726573732830783029415a54454320617272617920696e646578206973206f7574206f6620626f756e6473a265627a7a72315820e4f4498f6452ac0ce4ea797c4702db4ed0dac0aad348aed773feb22e38fd8a8464736f6c63430005110032",
  "source": "pragma solidity >=0.5.0 <0.6.0;\n\nimport \"../../../../interfaces/IAZTEC.sol\";\nimport \"../../../../libs/NoteUtils.sol\";\nimport \"../../interfaces/NoteRegistryBehaviour.sol\";\nimport \"../../NoteRegistryManager.sol\";\n\n/**\n * @title Behaviour201907\n * @author AZTEC\n * @dev Details the methods and the storage schema of a note registry.\n        Is an ownable contract, and should always inherrit from the previous\n        epoch of the behaviour contract. This contract defines the shared methods\n        between all asset types for the 201907 generation (epoch 1).\n * Methods are documented in interface.\n *\n * Copyright 2020 Spilsbury Holdings Ltd \n *\n * Licensed under the GNU Lesser General Public Licence, Version 3.0 (the \"License\");\n * you may not use this file except in compliance with the License.\n *\n * This program is distributed in the hope that it will be useful,\n * but WITHOUT ANY WARRANTY; without even the implied warranty of\n * MERCHANTABILITY or FITNESS FOR A PARTICULAR PURPOSE.  See the\n * GNU Lesser General Public License for more details.\n *\n * You should have received a copy of the GNU Lesser General Public License\n * along with this program.  If not, see <https://www.gnu.org/licenses/>.\n**/\ncontract Behaviour201907 is NoteRegistryBehaviour {\n    using NoteUtils for bytes;\n\n    /**\n    * Note struct. This is the data that we store when we log AZTEC notes inside a NoteRegistry\n    *\n    * Data structured so that the entire struct fits in 1 storage word.\n    *\n    * @notice Yul is used to pack and unpack Note structs in storage for efficiency reasons,\n    *   see `NoteRegistry.updateInputNotes` and `NoteRegistry.updateOutputNotes` for more details\n    **/\n    struct Note {\n        // `status` uses the IAZTEC.NoteStatus enum to track the lifecycle of a note.\n        uint8 status;\n\n        // `createdOn` logs the timestamp of the block that created this note. There are a few\n        // use cases that require measuring the age of a note, (e.g. interest rate computations).\n        // These lifetime are relevant on timescales of days/months, the 900-ish seconds that a miner\n        // can manipulate a timestamp has little effect, but should be considered when utilizing this parameter.\n        // We store `createdOn` in 5 bytes of data - just in case this contract is still around in 2038 :)\n        // This kicks the 'year 2038' problem down the road by about 400 years\n        uint40 createdOn;\n\n        // `destroyedOn` logs the timestamp of the block that destroys this note in a transaction.\n        // Default value is 0x0000000000 for notes that have not been spent.\n        uint40 destroyedOn;\n\n        // The owner of the note\n        address owner;\n    }\n\n    struct Registry {\n        bool active;\n        uint256 scalingFactor;\n        bytes32 confidentialTotalMinted;\n        bytes32 confidentialTotalBurned;\n        bool canConvert;\n        bool canAdjustSupply;\n        mapping(bytes32 => Note) notes;\n    }\n\n    Registry public registry;\n    bytes32 public constant ZERO_VALUE_NOTE_HASH = 0x26d21f105b054b61e8d9680855c3af0633bd7c140b87de95f0ac218046fc71db;\n    constructor () NoteRegistryBehaviour() public {}\n\n    function initialise(\n        address _newOwner,\n        uint256 _scalingFactor,\n        bool _canAdjustSupply,\n        bool _canConvert\n    ) public {\n        require(initialised != true, \"registry already initialised\");\n        _transferOwnership(_newOwner);\n\n        dataLocation = msg.sender;\n\n        registry = Registry({\n            active: true,\n            scalingFactor: _scalingFactor,\n            confidentialTotalMinted: ZERO_VALUE_NOTE_HASH,\n            confidentialTotalBurned: ZERO_VALUE_NOTE_HASH,\n            canConvert: _canConvert,\n            canAdjustSupply: _canAdjustSupply\n        });\n\n        initialised = true;\n    }\n\n    function getRegistry() public view returns (\n        uint256 scalingFactor,\n        bytes32 confidentialTotalMinted,\n        bytes32 confidentialTotalBurned,\n        bool canConvert,\n        bool canAdjustSupply\n    ) {\n        require(registry.active == true, \"expected registry to be created\");\n        scalingFactor = registry.scalingFactor;\n        confidentialTotalMinted = registry.confidentialTotalMinted;\n        confidentialTotalBurned = registry.confidentialTotalBurned;\n        canConvert = registry.canConvert;\n        canAdjustSupply = registry.canAdjustSupply;\n    }\n\n    function burn(bytes memory /* _proofOutputs */) public onlyOwner {\n        require(registry.canAdjustSupply == true, \"this asset is not burnable\");\n    }\n\n    function mint(bytes memory  /* _proofOutputs */) public onlyOwner {\n        require(registry.canAdjustSupply == true, \"this asset is not mintable\");\n    }\n\n    function updateNoteRegistry(\n        uint24 _proof,\n        bytes memory _proofOutput\n    ) public onlyOwner returns (\n        address publicOwner,\n        uint256 transferValue,\n        int256 publicValue\n    ) {\n        require(registry.active == true, \"note registry does not exist for the given address\");\n        bytes memory inputNotes;\n        bytes memory outputNotes;\n        (\n            inputNotes,\n            outputNotes,\n            publicOwner,\n            publicValue\n        ) = _proofOutput.extractProofOutput();\n\n        updateInputNotes(inputNotes);\n        updateOutputNotes(outputNotes);\n\n        // If publicValue != 0, enact a token transfer if asset is convertible\n        if (publicValue != 0) {\n            require(registry.canConvert == true, \"asset cannot be converted into public tokens\");\n            if (publicValue < 0) {\n                transferValue = uint256(-publicValue).mul(registry.scalingFactor);\n            } else {\n                transferValue = uint256(publicValue).mul(registry.scalingFactor);\n            }\n        }\n    }\n\n    function setConfidentialTotalMinted(bytes32 /* newTotalNoteHash */) internal onlyOwner returns (bytes32) {\n        require(registry.canAdjustSupply == true, \"this asset is not mintable\");\n\n    }\n\n    function setConfidentialTotalBurned(bytes32 /* newTotalNoteHash */) internal onlyOwner returns (bytes32) {\n        require(registry.canAdjustSupply == true, \"this asset is not burnable\");\n    }\n\n    function getNote(bytes32 _noteHash) public view returns (\n        uint8 status,\n        uint40 createdOn,\n        uint40 destroyedOn,\n        address noteOwner\n    ) {\n        require(\n            registry.notes[_noteHash].status != uint8(NoteStatus.DOES_NOT_EXIST),\n            \"expected note to exist\"\n        );\n        Note storage notePtr = registry.notes[_noteHash];\n        assembly {\n            let note := sload(notePtr_slot)\n            status := and(note, 0xff)\n            createdOn := and(shr(8, note), 0xffffffffff)\n            destroyedOn := and(shr(48, note), 0xffffffffff)\n            noteOwner := and(shr(88, note), 0xffffffffffffffffffffffffffffffffffffffff)\n        }\n    }\n\n    function updateInputNotes(bytes memory inputNotes) internal {\n        uint256 length = inputNotes.getLength();\n\n        for (uint256 i = 0; i < length; i += 1) {\n            (address noteOwner, bytes32 noteHash,) = inputNotes.get(i).extractNote();\n            deleteNote(noteHash, noteOwner);\n\n        }\n    }\n\n    function updateOutputNotes(bytes memory outputNotes) internal {\n        uint256 length = outputNotes.getLength();\n\n        for (uint256 i = 0; i < length; i += 1) {\n            (address noteOwner, bytes32 noteHash,) = outputNotes.get(i).extractNote();\n            require(noteOwner != address(0x0), \"output note owner cannot be address(0x0)\");\n            createNote(noteHash, noteOwner);\n        }\n    }\n\n    function createNote(bytes32 _noteHash, address _noteOwner) internal {\n        // set up some temporary variables we'll need\n        uint256 noteStatus = uint256(NoteStatus.UNSPENT);\n\n        Note storage notePtr = registry.notes[_noteHash];\n        require(notePtr.status == uint256(NoteStatus.DOES_NOT_EXIST), \"output note exists\");\n        // We manually pack our note struct in Yul, because Solidity can be a bit liberal with gas when doing this\n        assembly {\n            // Write a new note into storage\n            sstore(\n                notePtr_slot,\n                // combine `status`, `createdOn` and `owner` via logical OR opcodes\n                or(\n                    or(\n                        // `status` occupies byte position 0\n                        and(noteStatus, 0xff), // mask to 1 byte (uint8)\n                        // `createdOn` occupies byte positions 1-5 => shift by 8 bits\n                        shl(8, and(timestamp, 0xffffffffff)) // mask timestamp to 40 bits\n                    ),\n                    // `owner` occupies byte positions 11-31 => shift by 88 bits\n                    shl(88, _noteOwner) // _noteOwner already of address type, no need to mask\n                )\n            )\n        }\n    }\n\n    function deleteNote(bytes32 _noteHash, address _noteOwner) internal {\n        // set up some temporary variables we'll need\n        // N.B. the status flags are NoteStatus enums, but written as uint8's.\n        // We represent them as uint256 vars because it is the enum values that enforce type safety.\n        // i.e. if we include enums that range beyond 256,\n        // casting to uint8 won't help because we'll still be writing/reading the wrong note status\n        // To summarise the summary - validate enum bounds in tests, use uint256 to save some gas vs uint8\n        // set up some temporary variables we'll need\n        uint256 noteStatusNew = uint256(NoteStatus.SPENT);\n        uint256 noteStatusOld;\n        address storedNoteOwner;\n\n        Note storage notePtr = registry.notes[_noteHash];\n        // We manually pack our note struct in Yul, because Solidity can be a bit liberal with gas when doing this\n        // Update the status of each `note`:\n        // 1. set the note status to SPENT\n        // 2. update the `destroyedOn` timestamp to the current timestamp\n        // We also must check the following:\n        // 1. the note has an existing status of UNSPENT\n        // 2. the note owner matches the provided input\n        assembly {\n                // load up our note from storage\n                let storedNote := sload(notePtr_slot)\n\n                // extract the status of this note (we'll check that it is UNSPENT outside the asm block)\n                noteStatusOld := and(storedNote, 0xff)\n\n                // extract the owner of this note (we'll check that it is _owner outside the asm block)\n                storedNoteOwner := and(shr(88, storedNote), 0xffffffffffffffffffffffffffffffffffffffff)\n\n                // update the input note and write it into storage.\n                // We need to change its `status` from UNSPENT to SPENT, and update `destroyedOn`\n                sstore(\n                    notePtr_slot,\n                    or(\n                        // zero out the bits used to store `status` and `destroyedOn`\n                        // `status` occupies byte index 1, `destroyedOn` occupies byte indices 6 - 11.\n                        // We create bit mask with a NOT opcode to reduce contract bytecode size.\n                        // We then perform logical AND with the bit mask to zero out relevant bits\n                        and(\n                            storedNote,\n                            not(0xffffffffff0000000000ff)\n                        ),\n                        // Now that we have zeroed out storage locations of `status` and `destroyedOn`, update them\n                        or(\n                            // Create 5-byte timestamp and shift into byte positions 6-11 with a bit shift\n                            shl(48, and(timestamp, 0xffffffffff)),\n                            // Combine with the new note status (masked to a uint8)\n                            and(noteStatusNew, 0xff)\n                        )\n                    )\n                )\n            }\n        // Check that the note status is UNSPENT\n        require(noteStatusOld == uint256(NoteStatus.UNSPENT), \"input note status is not UNSPENT\");\n        // Check that the note owner is the expected owner\n        require(storedNoteOwner == _noteOwner, \"input note owner does not match\");\n    }\n\n    function makeAvailable() public {}\n}\n",
  "sourcePath": "@aztec/protocol/contracts/ACE/noteRegistry/epochs/201907/Behaviour201907.sol",
  "compiler": {
    "name": "solc",
    "version": "0.5.17+commit.d19bba13.Emscripten.clang"
  },
  "schemaVersion": "3.4.3",
  "updatedAt": "2021-12-22T16:36:24.295Z",
  "devdoc": {
    "author": "AZTEC",
    "details": "Details the methods and the storage schema of a note registry. Is an ownable contract, and should always inherrit from the previous epoch of the behaviour contract. This contract defines the shared methods between all asset types for the 201907 generation (epoch 1). Methods are documented in interface. * Copyright 2020 Spilsbury Holdings Ltd  * Licensed under the GNU Lesser General Public Licence, Version 3.0 (the \"License\"); you may not use this file except in compliance with the License. * This program is distributed in the hope that it will be useful, but WITHOUT ANY WARRANTY; without even the implied warranty of MERCHANTABILITY or FITNESS FOR A PARTICULAR PURPOSE.  See the GNU Lesser General Public License for more details. * You should have received a copy of the GNU Lesser General Public License along with this program.  If not, see <https://www.gnu.org/licenses/>.*",
    "methods": {
      "isOwner()": {
        "details": "Returns true if the caller is the current owner."
      },
      "owner()": {
        "details": "Returns the address of the current owner."
      },
      "renounceOwnership()": {
        "details": "Leaves the contract without owner. It will not be possible to call `onlyOwner` functions anymore. Can only be called by the current owner.     * NOTE: Renouncing ownership will leave the contract without an owner, thereby removing any functionality that is only available to the owner."
      },
      "transferOwnership(address)": {
        "details": "Transfers ownership of the contract to a new account (`newOwner`). Can only be called by the current owner."
      }
    },
    "title": "Behaviour201907"
  },
  "userdoc": {
    "methods": {}
  }
}