{
  "contractName": "DividendInterface",
  "abi": [
    {
      "constant": true,
      "inputs": [
        {
          "internalType": "bytes",
          "name": "",
          "type": "bytes"
        },
        {
          "internalType": "address",
          "name": "",
          "type": "address"
        },
        {
          "internalType": "uint256[6]",
          "name": "",
          "type": "uint256[6]"
        }
      ],
      "name": "validateDividend",
      "outputs": [
        {
          "internalType": "bytes",
          "name": "",
          "type": "bytes"
        }
      ],
      "payable": false,
      "stateMutability": "pure",
      "type": "function"
    }
  ],
  "bytecode": "0x61017a610026600b82828239805160001a60731461001957fe5b30600052607381538281f3fe73000000000000000000000000000000000000000030146080604052600436106100355760003560e01c8063a2ed4de41461003a575b600080fd5b6100c6600480360361010081101561005157600080fd5b81019060208101813564010000000081111561006c57600080fd5b82018360208201111561007e57600080fd5b803590602001918460018302840111640100000000831117156100a057600080fd5b919350915073ffffffffffffffffffffffffffffffffffffffff8135169060200161013b565b6040805160208082528351818301528351919283929083019185019080838360005b838110156101005781810151838201526020016100e8565b50505050905090810190601f16801561012d5780820380516001836020036101000a031916815260200191505b509250505060405180910390f35b606094935050505056fea265627a7a723158203d1867cf8608e36349abe2d73c9dc6de39657b10eea7c0197fe0db862660883f64736f6c63430005110032",
  "source": "pragma solidity >=0.5.0 <0.6.0;\n\n/**\n * @title DividendInterface\n * @author AZTEC\n * @dev An interface for the dividend validator contract\n *\n * Copyright 2020 Spilsbury Holdings Ltd \n *\n * Licensed under the GNU Lesser General Public Licence, Version 3.0 (the \"License\");\n * you may not use this file except in compliance with the License.\n *\n * This program is distributed in the hope that it will be useful,\n * but WITHOUT ANY WARRANTY; without even the implied warranty of\n * MERCHANTABILITY or FITNESS FOR A PARTICULAR PURPOSE.  See the\n * GNU Lesser General Public License for more details.\n *\n * You should have received a copy of the GNU Lesser General Public License\n * along with this program.  If not, see <https://www.gnu.org/licenses/>.\n**/\nlibrary DividendInterface {\n    function validateDividend(\n        bytes calldata,\n        address,\n        uint[6] calldata\n    )\n        external\n        pure\n        returns (bytes memory)\n    {}\n}\n",
  "sourcePath": "@aztec/protocol/contracts/interfaces/DividendInterface.sol",
  "compiler": {
    "name": "solc",
    "version": "0.5.17+commit.d19bba13.Emscripten.clang"
  },
  "schemaVersion": "3.4.3",
  "updatedAt": "2021-11-16T18:37:31.109Z",
  "devdoc": {
    "author": "AZTEC",
    "details": "An interface for the dividend validator contract * Copyright 2020 Spilsbury Holdings Ltd  * Licensed under the GNU Lesser General Public Licence, Version 3.0 (the \"License\"); you may not use this file except in compliance with the License. * This program is distributed in the hope that it will be useful, but WITHOUT ANY WARRANTY; without even the implied warranty of MERCHANTABILITY or FITNESS FOR A PARTICULAR PURPOSE.  See the GNU Lesser General Public License for more details. * You should have received a copy of the GNU Lesser General Public License along with this program.  If not, see <https://www.gnu.org/licenses/>.*",
    "methods": {},
    "title": "DividendInterface"
  },
  "userdoc": {
    "methods": {}
  }
}