{
  "contractName": "FactoryBase201907",
  "abi": [
    {
      "inputs": [
        {
          "internalType": "address",
          "name": "_aceAddress",
          "type": "address"
        }
      ],
      "payable": false,
      "stateMutability": "nonpayable",
      "type": "constructor"
    },
    {
      "anonymous": false,
      "inputs": [
        {
          "indexed": false,
          "internalType": "address",
          "name": "behaviourContract",
          "type": "address"
        }
      ],
      "name": "NoteRegistryDeployed",
      "type": "event"
    },
    {
      "anonymous": false,
      "inputs": [
        {
          "indexed": true,
          "internalType": "address",
          "name": "previousOwner",
          "type": "address"
        },
        {
          "indexed": true,
          "internalType": "address",
          "name": "newOwner",
          "type": "address"
        }
      ],
      "name": "OwnershipTransferred",
      "type": "event"
    },
    {
      "constant": true,
      "inputs": [],
      "name": "BURN_PROOF",
      "outputs": [
        {
          "internalType": "uint24",
          "name": "",
          "type": "uint24"
        }
      ],
      "payable": false,
      "stateMutability": "view",
      "type": "function"
    },
    {
      "constant": true,
      "inputs": [],
      "name": "DIVIDEND_PROOF",
      "outputs": [
        {
          "internalType": "uint24",
          "name": "",
          "type": "uint24"
        }
      ],
      "payable": false,
      "stateMutability": "view",
      "type": "function"
    },
    {
      "constant": true,
      "inputs": [],
      "name": "JOIN_SPLIT_PROOF",
      "outputs": [
        {
          "internalType": "uint24",
          "name": "",
          "type": "uint24"
        }
      ],
      "payable": false,
      "stateMutability": "view",
      "type": "function"
    },
    {
      "constant": true,
      "inputs": [],
      "name": "MINT_PROOF",
      "outputs": [
        {
          "internalType": "uint24",
          "name": "",
          "type": "uint24"
        }
      ],
      "payable": false,
      "stateMutability": "view",
      "type": "function"
    },
    {
      "constant": true,
      "inputs": [],
      "name": "PRIVATE_RANGE_PROOF",
      "outputs": [
        {
          "internalType": "uint24",
          "name": "",
          "type": "uint24"
        }
      ],
      "payable": false,
      "stateMutability": "view",
      "type": "function"
    },
    {
      "constant": true,
      "inputs": [],
      "name": "PUBLIC_RANGE_PROOF",
      "outputs": [
        {
          "internalType": "uint24",
          "name": "",
          "type": "uint24"
        }
      ],
      "payable": false,
      "stateMutability": "view",
      "type": "function"
    },
    {
      "constant": false,
      "inputs": [
        {
          "internalType": "address",
          "name": "_proxy",
          "type": "address"
        },
        {
          "internalType": "address",
          "name": "_newImplementation",
          "type": "address"
        },
        {
          "internalType": "address",
          "name": "_newProxyAdmin",
          "type": "address"
        }
      ],
      "name": "handoverBehaviour",
      "outputs": [],
      "payable": false,
      "stateMutability": "nonpayable",
      "type": "function"
    },
    {
      "constant": true,
      "inputs": [],
      "name": "isOwner",
      "outputs": [
        {
          "internalType": "bool",
          "name": "",
          "type": "bool"
        }
      ],
      "payable": false,
      "stateMutability": "view",
      "type": "function"
    },
    {
      "constant": true,
      "inputs": [],
      "name": "owner",
      "outputs": [
        {
          "internalType": "address",
          "name": "",
          "type": "address"
        }
      ],
      "payable": false,
      "stateMutability": "view",
      "type": "function"
    },
    {
      "constant": false,
      "inputs": [],
      "name": "renounceOwnership",
      "outputs": [],
      "payable": false,
      "stateMutability": "nonpayable",
      "type": "function"
    },
    {
      "constant": false,
      "inputs": [
        {
          "internalType": "address",
          "name": "newOwner",
          "type": "address"
        }
      ],
      "name": "transferOwnership",
      "outputs": [],
      "payable": false,
      "stateMutability": "nonpayable",
      "type": "function"
    },
    {
      "constant": false,
      "inputs": [],
      "name": "deployNewBehaviourInstance",
      "outputs": [
        {
          "internalType": "address",
          "name": "",
          "type": "address"
        }
      ],
      "payable": false,
      "stateMutability": "nonpayable",
      "type": "function"
    }
  ],
  "bytecode": "0x608060405234801561001057600080fd5b50604051611bdb380380611bdb8339818101604052602081101561003357600080fd5b50518060006100496001600160e01b0361009a16565b600080546001600160a01b0319166001600160a01b038316908117825560405192935091600080516020611bbb833981519152908290a350610093816001600160e01b0361009e16565b50506101d0565b3390565b6100af6001600160e01b0361011516565b610100576040805162461bcd60e51b815260206004820181905260248201527f4f776e61626c653a2063616c6c6572206973206e6f7420746865206f776e6572604482015290519081900360640190fd5b610112816001600160e01b0361014216565b50565b600080546001600160a01b03166101336001600160e01b0361009a16565b6001600160a01b031614905090565b6001600160a01b0381166101875760405162461bcd60e51b8152600401808060200182810382526026815260200180611b956026913960400191505060405180910390fd5b600080546040516001600160a01b0380851693921691600080516020611bbb83398151915291a3600080546001600160a01b0319166001600160a01b0392909216919091179055565b6119b6806101df6000396000f3fe608060405234801561001057600080fd5b50600436106100d35760003560e01c80638da5cb5b11610081578063b5ee31f01161005b578063b5ee31f01461016a578063df924625146101a2578063f2fde38b146101aa576100d3565b80638da5cb5b1461013e5780638e526d9b146101465780638f32d59b1461014e576100d3565b806349518b28116100b257806349518b2814610124578063715018a61461012c5780638500e1f814610136576100d3565b80625bf732146100d857806308ae900a146100f85780630f5d1a3914610100575b600080fd5b6100e06101d0565b6040805162ffffff9092168252519081900360200190f35b6100e06101d7565b6101086101de565b604080516001600160a01b039092168252519081900360200190f35b6100e06102a9565b6101346102b0565b005b6100e0610360565b610108610367565b6100e0610376565b61015661037d565b604080519115158252519081900360200190f35b6101346004803603606081101561018057600080fd5b506001600160a01b0381358116916020810135821691604090910135166103a1565b6100e0610595565b610134600480360360208110156101c057600080fd5b50356001600160a01b031661059c565b6201010181565b6201040381565b60006101e861037d565b610239576040805162461bcd60e51b815260206004820181905260248201527f4f776e61626c653a2063616c6c6572206973206e6f7420746865206f776e6572604482015290519081900360640190fd5b6000604051610247906106b2565b604051809103906000f080158015610263573d6000803e3d6000fd5b50604080516001600160a01b038316815290519192507ff0b9411f46edcf614ae2f9fe981a238b88f643e02271a06f46cae1674dfad295919081900360200190a1905090565b6201040281565b6102b861037d565b610309576040805162461bcd60e51b815260206004820181905260248201527f4f776e61626c653a2063616c6c6572206973206e6f7420746865206f776e6572604482015290519081900360640190fd5b600080546040516001600160a01b03909116907f8be0079c531659141344cd1fd0a4f28419497f9722a3daafe3b4186f6b6457e0908390a36000805473ffffffffffffffffffffffffffffffffffffffff19169055565b6201040181565b6000546001600160a01b031690565b6201020181565b600080546001600160a01b0316610392610601565b6001600160a01b031614905090565b6103a961037d565b6103fa576040805162461bcd60e51b815260206004820181905260248201527f4f776e61626c653a2063616c6c6572206973206e6f7420746865206f776e6572604482015290519081900360640190fd5b306001600160a01b0316836001600160a01b031663f851a4406040518163ffffffff1660e01b8152600401602060405180830381600087803b15801561043f57600080fd5b505af1158015610453573d6000803e3d6000fd5b505050506040513d602081101561046957600080fd5b50516001600160a01b0316146104b05760405162461bcd60e51b81526004018080602001828103825260228152602001806119606022913960400191505060405180910390fd5b826001600160a01b0316633659cfe6836040518263ffffffff1660e01b815260040180826001600160a01b03166001600160a01b03168152602001915050600060405180830381600087803b15801561050857600080fd5b505af115801561051c573d6000803e3d6000fd5b50505050826001600160a01b0316638f283970826040518263ffffffff1660e01b815260040180826001600160a01b03166001600160a01b03168152602001915050600060405180830381600087803b15801561057857600080fd5b505af115801561058c573d6000803e3d6000fd5b50505050505050565b6201030181565b6105a461037d565b6105f5576040805162461bcd60e51b815260206004820181905260248201527f4f776e61626c653a2063616c6c6572206973206e6f7420746865206f776e6572604482015290519081900360640190fd5b6105fe81610605565b50565b3390565b6001600160a01b03811661064a5760405162461bcd60e51b815260040180806020018281038252602681526020018061193a6026913960400191505060405180910390fd5b600080546040516001600160a01b03808516939216917f8be0079c531659141344cd1fd0a4f28419497f9722a3daafe3b4186f6b6457e091a36000805473ffffffffffffffffffffffffffffffffffffffff19166001600160a01b0392909216919091179055565b61127a806106c08339019056fe608060405234801561001057600080fd5b5060006100246001600160e01b0361008616565b600080546001600160a01b0319166001600160a01b0383169081178255604051929350917f8be0079c531659141344cd1fd0a4f28419497f9722a3daafe3b4186f6b6457e0908290a3506000805460ff60a01b1916600160a01b17905561008a565b3390565b6111e1806100996000396000f3fe608060405234801561001057600080fd5b50600436106101615760003560e01c80637ba0e2e7116100c85780638f32d59b1161008c578063ce88434311610066578063ce88434314610521578063df9246251461055d578063f2fde38b1461056557610161565b80638f32d59b146104b857806398df3d00146104c0578063ad32f9251461051957610161565b80637ba0e2e7146103f25780638500e1f81461049857806385c418f3146104a05780638da5cb5b146104a85780638e526d9b146104b057610161565b80632a07b6c71161012a5780635ab1bd53116101045780635ab1bd5314610372578063715018a6146103a95780637b103999146103b157610161565b80632a07b6c7146101e8578063386612381461029057806349518b281461036a57610161565b80625bf7321461016657806303e012e31461018657806307003bb4146101aa57806307616051146101c657806308ae900a146101e0575b600080fd5b61016e61058b565b6040805162ffffff9092168252519081900360200190f35b61018e610592565b604080516001600160a01b039092168252519081900360200190f35b6101b26105a1565b604080519115158252519081900360200190f35b6101ce6105b1565b60408051918252519081900360200190f35b61016e6105d5565b61028e600480360360208110156101fe57600080fd5b81019060208101813564010000000081111561021957600080fd5b82018360208201111561022b57600080fd5b8035906020019184600183028401116401000000008311171561024d57600080fd5b91908080601f0160208091040260200160405190810160405280939291908181526020018383808284376000920191909152509295506105dc945050505050565b005b610342600480360360408110156102a657600080fd5b62ffffff82351691908101906040810160208201356401000000008111156102cd57600080fd5b8201836020820111156102df57600080fd5b8035906020019184600183028401116401000000008311171561030157600080fd5b91908080601f01602080910402602001604051908101604052809392919081815260200183838082843760009201919091525092955061069a945050505050565b604080516001600160a01b039094168452602084019290925282820152519081900360600190f35b61016e6107fa565b61037a610801565b604080519586526020860194909452848401929092521515606084015215156080830152519081900360a00190f35b61028e610890565b6103b9610933565b604080519615158752602087019590955285850193909352606085019190915215156080840152151560a0830152519081900360c00190f35b61028e6004803603602081101561040857600080fd5b81019060208101813564010000000081111561042357600080fd5b82018360208201111561043557600080fd5b8035906020019184600183028401116401000000008311171561045757600080fd5b91908080601f016020809104026020016040519081016040528093929190818152602001838380828437600092019190915250929550610955945050505050565b61016e610a10565b6101b2610a17565b61018e610a27565b61016e610a36565b6101b2610a3d565b6104dd600480360360208110156104d657600080fd5b5035610a61565b6040805160ff909516855264ffffffffff938416602086015291909216838201526001600160a01b039091166060830152519081900360800190f35b61028e610b0c565b61028e6004803603608081101561053757600080fd5b506001600160a01b03813516906020810135906040810135151590606001351515610b0e565b61016e610c36565b61028e6004803603602081101561057b57600080fd5b50356001600160a01b0316610c3d565b6201010181565b6001546001600160a01b031681565b600054600160a81b900460ff1681565b7f26d21f105b054b61e8d9680855c3af0633bd7c140b87de95f0ac218046fc71db81565b6201040381565b6105e4610a3d565b610635576040805162461bcd60e51b815260206004820181905260248201527f4f776e61626c653a2063616c6c6572206973206e6f7420746865206f776e6572604482015290519081900360640190fd5b60065460ff610100909104161515600114610697576040805162461bcd60e51b815260206004820152601a60248201527f74686973206173736574206973206e6f74206275726e61626c65000000000000604482015290519081900360640190fd5b50565b60008060006106a7610a3d565b6106f8576040805162461bcd60e51b815260206004820181905260248201527f4f776e61626c653a2063616c6c6572206973206e6f7420746865206f776e6572604482015290519081900360640190fd5b60025460ff16151560011461073e5760405162461bcd60e51b81526004018080602001828103825260328152602001806111106032913960400191505060405180910390fd5b60608061074a86610c9f565b9097509450909250905061075d82610cc9565b61076681610d1a565b82156107f15760065460ff1615156001146107b25760405162461bcd60e51b815260040180806020018281038252602c8152602001806110e4602c913960400191505060405180910390fd5b60008312156107da576003546107d39060008590039063ffffffff610da716565b93506107f1565b6003546107ee90849063ffffffff610da716565b93505b50509250925092565b6201040281565b600254600090819081908190819060ff161515600114610868576040805162461bcd60e51b815260206004820152601f60248201527f657870656374656420726567697374727920746f206265206372656174656400604482015290519081900360640190fd5b50506003546004546005546006549296919550935060ff808316935061010090920490911690565b610898610a3d565b6108e9576040805162461bcd60e51b815260206004820181905260248201527f4f776e61626c653a2063616c6c6572206973206e6f7420746865206f776e6572604482015290519081900360640190fd5b600080546040516001600160a01b03909116907f8be0079c531659141344cd1fd0a4f28419497f9722a3daafe3b4186f6b6457e0908390a3600080546001600160a01b0319169055565b60025460035460045460055460065460ff948516948181169161010090041686565b61095d610a3d565b6109ae576040805162461bcd60e51b815260206004820181905260248201527f4f776e61626c653a2063616c6c6572206973206e6f7420746865206f776e6572604482015290519081900360640190fd5b60065460ff610100909104161515600114610697576040805162461bcd60e51b815260206004820152601a60248201527f74686973206173736574206973206e6f74206d696e7461626c65000000000000604482015290519081900360640190fd5b6201040181565b600054600160a01b900460ff1681565b6000546001600160a01b031690565b6201020181565b600080546001600160a01b0316610a52610e09565b6001600160a01b031614905090565b60008181526007602052604081205481908190819060ff16610aca576040805162461bcd60e51b815260206004820152601660248201527f6578706563746564206e6f746520746f20657869737400000000000000000000604482015290519081900360640190fd5b5050506000918252506007602052604090205460ff811691600882901c64ffffffffff90811692603081901c9091169160589190911c6001600160a01b031690565b565b600054600160a81b900460ff16151560011415610b72576040805162461bcd60e51b815260206004820152601c60248201527f726567697374727920616c726561647920696e697469616c6973656400000000604482015290519081900360640190fd5b610b7b84610e0d565b60018054336001600160a01b03199091161781556040805160c081018252828152602081018690527f26d21f105b054b61e8d9680855c3af0633bd7c140b87de95f0ac218046fc71db918101829052606081018290529215156080840181905293151560a09093018390526002805460ff19908116909317905560039490945560048490556005939093556006805490931690911761ff0019166101009091021790555060008054600160a81b60ff60a81b19909116179055565b6201030181565b610c45610a3d565b610c96576040805162461bcd60e51b815260206004820181905260248201527f4f776e61626c653a2063616c6c6572206973206e6f7420746865206f776e6572604482015290519081900360640190fd5b61069781610e0d565b60208101516040820151606083015160808401519284019491909301926001600160a01b03169190565b6000610cd482610ead565b905060005b81811015610d1557600080610cfc610cf7868563ffffffff610eb416565b610f0b565b5091509150610d0b8183610f29565b5050600101610cd9565b505050565b6000610d2582610ead565b905060005b81811015610d1557600080610d48610cf7868563ffffffff610eb416565b5090925090506001600160a01b038216610d935760405162461bcd60e51b81526004018080602001828103825260288152602001806111636028913960400191505060405180910390fd5b610d9d8183611037565b5050600101610d2a565b600082610db657506000610e03565b82820282848281610dc357fe5b0414610e005760405162461bcd60e51b81526004018080602001828103825260218152602001806111426021913960400191505060405180910390fd5b90505b92915050565b3390565b6001600160a01b038116610e525760405162461bcd60e51b81526004018080602001828103825260268152602001806110be6026913960400191505060405180910390fd5b600080546040516001600160a01b03808516939216917f8be0079c531659141344cd1fd0a4f28419497f9722a3daafe3b4186f6b6457e091a3600080546001600160a01b0319166001600160a01b0392909216919091179055565b6020015190565b602082810151908202830160400151830190821080610f045760405162461bcd60e51b815260040180806020018281038252602281526020018061118b6022913960400191505060405180910390fd5b5092915050565b604081015160608201516001600160a01b0390911692909160800190565b600082815260076020526040902080546affffffffff0000000000ff1981166affffffffff0000000000004260301b1617600290811783559160ff82169160581c6001600160a01b03169060018314610fc9576040805162461bcd60e51b815260206004820181905260248201527f696e707574206e6f746520737461747573206973206e6f7420554e5350454e54604482015290519081900360640190fd5b846001600160a01b0316826001600160a01b03161461102f576040805162461bcd60e51b815260206004820152601f60248201527f696e707574206e6f7465206f776e657220646f6573206e6f74206d6174636800604482015290519081900360640190fd5b505050505050565b600082815260076020526040902080546001919060ff16156110a0576040805162461bcd60e51b815260206004820152601260248201527f6f7574707574206e6f7465206578697374730000000000000000000000000000604482015290519081900360640190fd5b8260581b64ffffffffff421660081b60ff8416171781555050505056fe4f776e61626c653a206e6577206f776e657220697320746865207a65726f206164647265737361737365742063616e6e6f7420626520636f6e76657274656420696e746f207075626c696320746f6b656e736e6f746520726567697374727920646f6573206e6f7420657869737420666f722074686520676976656e2061646472657373536166654d6174683a206d756c7469706c69636174696f6e206f766572666c6f776f7574707574206e6f7465206f776e65722063616e6e6f7420626520616464726573732830783029415a54454320617272617920696e646578206973206f7574206f6620626f756e6473a265627a7a7231582012905ce968808819dcdffadbc3d92b79649a01992a7bda74a3436b872c7e006364736f6c634300051100324f776e61626c653a206e6577206f776e657220697320746865207a65726f206164647265737374686973206973206e6f74207468652061646d696e206f66207468652070726f7879a265627a7a7231582073d83a66d6ddf024b0479133ced59bf8a1c70369b651813be4fe574bb185e12d64736f6c634300051100324f776e61626c653a206e6577206f776e657220697320746865207a65726f20616464726573738be0079c531659141344cd1fd0a4f28419497f9722a3daafe3b4186f6b6457e0",
  "source": "pragma solidity >=0.5.0 <0.6.0;\n\nimport \"../../../interfaces/NoteRegistryFactory.sol\";\nimport \"./BehaviourBase201907.sol\";\n\n/**\n * @title FactoryBase201907\n * @author AZTEC\n * @dev Deploys a BehaviourBase201907\n * \n * Copyright 2020 Spilsbury Holdings Ltd \n *\n * Licensed under the GNU Lesser General Public Licence, Version 3.0 (the \"License\");\n * you may not use this file except in compliance with the License.\n *\n * This program is distributed in the hope that it will be useful,\n * but WITHOUT ANY WARRANTY; without even the implied warranty of\n * MERCHANTABILITY or FITNESS FOR A PARTICULAR PURPOSE.  See the\n * GNU Lesser General Public License for more details.\n *\n * You should have received a copy of the GNU Lesser General Public License\n * along with this program.  If not, see <https://www.gnu.org/licenses/>.\n**/\ncontract FactoryBase201907 is NoteRegistryFactory {\n    constructor(address _aceAddress) public NoteRegistryFactory(_aceAddress) {}\n\n    function deployNewBehaviourInstance()\n        public\n        onlyOwner\n        returns (address)\n    {\n        BehaviourBase201907 behaviourContract = new BehaviourBase201907();\n        emit NoteRegistryDeployed(address(behaviourContract));\n        return address(behaviourContract);\n    }\n}\n",
  "sourcePath": "@aztec/protocol/contracts/ACE/noteRegistry/epochs/201907/base/FactoryBase201907.sol",
  "compiler": {
    "name": "solc",
    "version": "0.5.17+commit.d19bba13.Emscripten.clang"
  },
  "schemaVersion": "3.4.3",
  "updatedAt": "2022-01-28T16:15:37.510Z",
  "networkType": "ethereum",
  "devdoc": {
    "author": "AZTEC",
    "details": "Deploys a BehaviourBase201907  * Copyright 2020 Spilsbury Holdings Ltd  * Licensed under the GNU Lesser General Public Licence, Version 3.0 (the \"License\"); you may not use this file except in compliance with the License. * This program is distributed in the hope that it will be useful, but WITHOUT ANY WARRANTY; without even the implied warranty of MERCHANTABILITY or FITNESS FOR A PARTICULAR PURPOSE.  See the GNU Lesser General Public License for more details. * You should have received a copy of the GNU Lesser General Public License along with this program.  If not, see <https://www.gnu.org/licenses/>.*",
    "methods": {
      "isOwner()": {
        "details": "Returns true if the caller is the current owner."
      },
      "owner()": {
        "details": "Returns the address of the current owner."
      },
      "renounceOwnership()": {
        "details": "Leaves the contract without owner. It will not be possible to call `onlyOwner` functions anymore. Can only be called by the current owner.     * NOTE: Renouncing ownership will leave the contract without an owner, thereby removing any functionality that is only available to the owner."
      },
      "transferOwnership(address)": {
        "details": "Transfers ownership of the contract to a new account (`newOwner`). Can only be called by the current owner."
      }
    },
    "title": "FactoryBase201907"
  },
  "userdoc": {
    "methods": {}
  }
}