{
  "contractName": "IAZTEC",
  "abi": [
    {
      "constant": true,
      "inputs": [],
      "name": "BURN_PROOF",
      "outputs": [
        {
          "internalType": "uint24",
          "name": "",
          "type": "uint24"
        }
      ],
      "payable": false,
      "stateMutability": "view",
      "type": "function"
    },
    {
      "constant": true,
      "inputs": [],
      "name": "DIVIDEND_PROOF",
      "outputs": [
        {
          "internalType": "uint24",
          "name": "",
          "type": "uint24"
        }
      ],
      "payable": false,
      "stateMutability": "view",
      "type": "function"
    },
    {
      "constant": true,
      "inputs": [],
      "name": "JOIN_SPLIT_PROOF",
      "outputs": [
        {
          "internalType": "uint24",
          "name": "",
          "type": "uint24"
        }
      ],
      "payable": false,
      "stateMutability": "view",
      "type": "function"
    },
    {
      "constant": true,
      "inputs": [],
      "name": "MINT_PROOF",
      "outputs": [
        {
          "internalType": "uint24",
          "name": "",
          "type": "uint24"
        }
      ],
      "payable": false,
      "stateMutability": "view",
      "type": "function"
    },
    {
      "constant": true,
      "inputs": [],
      "name": "PRIVATE_RANGE_PROOF",
      "outputs": [
        {
          "internalType": "uint24",
          "name": "",
          "type": "uint24"
        }
      ],
      "payable": false,
      "stateMutability": "view",
      "type": "function"
    },
    {
      "constant": true,
      "inputs": [],
      "name": "PUBLIC_RANGE_PROOF",
      "outputs": [
        {
          "internalType": "uint24",
          "name": "",
          "type": "uint24"
        }
      ],
      "payable": false,
      "stateMutability": "view",
      "type": "function"
    }
  ],
  "bytecode": "0x608060405234801561001057600080fd5b50610107806100206000396000f3fe6080604052348015600f57600080fd5b506004361060675760003560e01c80638500e1f81160495780638500e1f81460965780638e526d9b14609c578063df9246251460a2576067565b80625bf73214606c57806308ae900a14608a57806349518b28146090575b600080fd5b607260a8565b6040805162ffffff9092168252519081900360200190f35b607260af565b607260b6565b607260bd565b607260c4565b607260cb565b6201010181565b6201040381565b6201040281565b6201040181565b6201020181565b620103018156fea265627a7a723158202648f5ab5e71abb35f8fd74d9eb668f937f1c65b6d1fad6758e25fb4f1d630d764736f6c63430005110032",
  "source": "pragma solidity >=0.5.0 <0.6.0;\n\n/**\n * @title IAZTEC\n * @author AZTEC\n *\n * Copyright 2020 Spilsbury Holdings Ltd \n *\n * Licensed under the GNU Lesser General Public Licence, Version 3.0 (the \"License\");\n * you may not use this file except in compliance with the License.\n *\n * This program is distributed in the hope that it will be useful,\n * but WITHOUT ANY WARRANTY; without even the implied warranty of\n * MERCHANTABILITY or FITNESS FOR A PARTICULAR PURPOSE.  See the\n * GNU Lesser General Public License for more details.\n *\n * You should have received a copy of the GNU Lesser General Public License\n * along with this program.  If not, see <https://www.gnu.org/licenses/>.\n**/\ncontract IAZTEC {\n    enum ProofCategory {\n        NULL,\n        BALANCED,\n        MINT,\n        BURN,\n        UTILITY\n    }\n\n    enum NoteStatus {\n        DOES_NOT_EXIST,\n        UNSPENT,\n        SPENT\n    }\n    // proofEpoch = 1 | proofCategory = 1 | proofId = 1\n    // 1 * 256**(2) + 1 * 256**(1) ++ 1 * 256**(0)\n    uint24 public constant JOIN_SPLIT_PROOF = 65793;\n\n    // proofEpoch = 1 | proofCategory = 2 | proofId = 1\n    // (1 * 256**(2)) + (2 * 256**(1)) + (1 * 256**(0))\n    uint24 public constant MINT_PROOF = 66049;\n\n    // proofEpoch = 1 | proofCategory = 3 | proofId = 1\n    // (1 * 256**(2)) + (3 * 256**(1)) + (1 * 256**(0))\n    uint24 public constant BURN_PROOF = 66305;\n\n    // proofEpoch = 1 | proofCategory = 4 | proofId = 2\n    // (1 * 256**(2)) + (4 * 256**(1)) + (2 * 256**(0))\n    uint24 public constant PRIVATE_RANGE_PROOF = 66562;\n\n        // proofEpoch = 1 | proofCategory = 4 | proofId = 3\n    // (1 * 256**(2)) + (4 * 256**(1)) + (2 * 256**(0))\n    uint24 public constant PUBLIC_RANGE_PROOF = 66563;\n\n    // proofEpoch = 1 | proofCategory = 4 | proofId = 1\n    // (1 * 256**(2)) + (4 * 256**(1)) + (2 * 256**(0))\n    uint24 public constant DIVIDEND_PROOF = 66561;\n}\n",
  "sourcePath": "@aztec/protocol/contracts/interfaces/IAZTEC.sol",
  "compiler": {
    "name": "solc",
    "version": "0.5.17+commit.d19bba13.Emscripten.clang"
  },
  "schemaVersion": "3.4.3",
  "updatedAt": "2021-12-22T16:36:24.330Z",
  "devdoc": {
    "author": "AZTEC * Copyright 2020 Spilsbury Holdings Ltd  * Licensed under the GNU Lesser General Public Licence, Version 3.0 (the \"License\"); you may not use this file except in compliance with the License. * This program is distributed in the hope that it will be useful, but WITHOUT ANY WARRANTY; without even the implied warranty of MERCHANTABILITY or FITNESS FOR A PARTICULAR PURPOSE.  See the GNU Lesser General Public License for more details. * You should have received a copy of the GNU Lesser General Public License along with this program.  If not, see <https://www.gnu.org/licenses/>.*",
    "methods": {},
    "title": "IAZTEC"
  },
  "userdoc": {
    "methods": {}
  }
}