{
  "contractName": "ZkAssetBase",
  "abi": [
    {
      "inputs": [
        {
          "internalType": "address",
          "name": "_aceAddress",
          "type": "address"
        },
        {
          "internalType": "address",
          "name": "_linkedTokenAddress",
          "type": "address"
        },
        {
          "internalType": "uint256",
          "name": "_scalingFactor",
          "type": "uint256"
        },
        {
          "internalType": "bool",
          "name": "_canAdjustSupply",
          "type": "bool"
        }
      ],
      "payable": false,
      "stateMutability": "nonpayable",
      "type": "constructor"
    },
    {
      "anonymous": false,
      "inputs": [
        {
          "indexed": true,
          "internalType": "address",
          "name": "owner",
          "type": "address"
        },
        {
          "indexed": false,
          "internalType": "uint256",
          "name": "value",
          "type": "uint256"
        }
      ],
      "name": "ConvertTokens",
      "type": "event"
    },
    {
      "anonymous": false,
      "inputs": [
        {
          "indexed": true,
          "internalType": "address",
          "name": "owner",
          "type": "address"
        },
        {
          "indexed": true,
          "internalType": "bytes32",
          "name": "noteHash",
          "type": "bytes32"
        },
        {
          "indexed": false,
          "internalType": "bytes",
          "name": "metadata",
          "type": "bytes"
        }
      ],
      "name": "CreateNote",
      "type": "event"
    },
    {
      "anonymous": false,
      "inputs": [
        {
          "indexed": false,
          "internalType": "uint256",
          "name": "noteRegistryId",
          "type": "uint256"
        }
      ],
      "name": "CreateNoteRegistry",
      "type": "event"
    },
    {
      "anonymous": false,
      "inputs": [
        {
          "indexed": true,
          "internalType": "address",
          "name": "aceAddress",
          "type": "address"
        },
        {
          "indexed": true,
          "internalType": "address",
          "name": "linkedTokenAddress",
          "type": "address"
        },
        {
          "indexed": false,
          "internalType": "uint256",
          "name": "scalingFactor",
          "type": "uint256"
        },
        {
          "indexed": true,
          "internalType": "bool",
          "name": "_canAdjustSupply",
          "type": "bool"
        },
        {
          "indexed": false,
          "internalType": "bool",
          "name": "_canConvert",
          "type": "bool"
        }
      ],
      "name": "CreateZkAsset",
      "type": "event"
    },
    {
      "anonymous": false,
      "inputs": [
        {
          "indexed": true,
          "internalType": "address",
          "name": "owner",
          "type": "address"
        },
        {
          "indexed": true,
          "internalType": "bytes32",
          "name": "noteHash",
          "type": "bytes32"
        }
      ],
      "name": "DestroyNote",
      "type": "event"
    },
    {
      "anonymous": false,
      "inputs": [
        {
          "indexed": true,
          "internalType": "address",
          "name": "owner",
          "type": "address"
        },
        {
          "indexed": false,
          "internalType": "uint256",
          "name": "value",
          "type": "uint256"
        }
      ],
      "name": "RedeemTokens",
      "type": "event"
    },
    {
      "anonymous": false,
      "inputs": [
        {
          "indexed": true,
          "internalType": "address",
          "name": "owner",
          "type": "address"
        },
        {
          "indexed": true,
          "internalType": "bytes32",
          "name": "noteHash",
          "type": "bytes32"
        },
        {
          "indexed": false,
          "internalType": "bytes",
          "name": "metadata",
          "type": "bytes"
        }
      ],
      "name": "UpdateNoteMetaData",
      "type": "event"
    },
    {
      "constant": true,
      "inputs": [],
      "name": "BURN_PROOF",
      "outputs": [
        {
          "internalType": "uint24",
          "name": "",
          "type": "uint24"
        }
      ],
      "payable": false,
      "stateMutability": "view",
      "type": "function"
    },
    {
      "constant": true,
      "inputs": [],
      "name": "DIVIDEND_PROOF",
      "outputs": [
        {
          "internalType": "uint24",
          "name": "",
          "type": "uint24"
        }
      ],
      "payable": false,
      "stateMutability": "view",
      "type": "function"
    },
    {
      "constant": true,
      "inputs": [],
      "name": "EIP712_DOMAIN_HASH",
      "outputs": [
        {
          "internalType": "bytes32",
          "name": "",
          "type": "bytes32"
        }
      ],
      "payable": false,
      "stateMutability": "view",
      "type": "function"
    },
    {
      "constant": true,
      "inputs": [],
      "name": "JOIN_SPLIT_PROOF",
      "outputs": [
        {
          "internalType": "uint24",
          "name": "",
          "type": "uint24"
        }
      ],
      "payable": false,
      "stateMutability": "view",
      "type": "function"
    },
    {
      "constant": true,
      "inputs": [],
      "name": "MINT_PROOF",
      "outputs": [
        {
          "internalType": "uint24",
          "name": "",
          "type": "uint24"
        }
      ],
      "payable": false,
      "stateMutability": "view",
      "type": "function"
    },
    {
      "constant": true,
      "inputs": [],
      "name": "PRIVATE_RANGE_PROOF",
      "outputs": [
        {
          "internalType": "uint24",
          "name": "",
          "type": "uint24"
        }
      ],
      "payable": false,
      "stateMutability": "view",
      "type": "function"
    },
    {
      "constant": true,
      "inputs": [],
      "name": "PUBLIC_RANGE_PROOF",
      "outputs": [
        {
          "internalType": "uint24",
          "name": "",
          "type": "uint24"
        }
      ],
      "payable": false,
      "stateMutability": "view",
      "type": "function"
    },
    {
      "constant": true,
      "inputs": [],
      "name": "ace",
      "outputs": [
        {
          "internalType": "contract IACE",
          "name": "",
          "type": "address"
        }
      ],
      "payable": false,
      "stateMutability": "view",
      "type": "function"
    },
    {
      "constant": true,
      "inputs": [
        {
          "internalType": "bytes32",
          "name": "",
          "type": "bytes32"
        },
        {
          "internalType": "address",
          "name": "",
          "type": "address"
        }
      ],
      "name": "confidentialApproved",
      "outputs": [
        {
          "internalType": "bool",
          "name": "",
          "type": "bool"
        }
      ],
      "payable": false,
      "stateMutability": "view",
      "type": "function"
    },
    {
      "constant": true,
      "inputs": [],
      "name": "linkedToken",
      "outputs": [
        {
          "internalType": "contract IERC20Mintable",
          "name": "",
          "type": "address"
        }
      ],
      "payable": false,
      "stateMutability": "view",
      "type": "function"
    },
    {
      "constant": true,
      "inputs": [
        {
          "internalType": "bytes32",
          "name": "",
          "type": "bytes32"
        }
      ],
      "name": "metaDataTimeLog",
      "outputs": [
        {
          "internalType": "uint256",
          "name": "",
          "type": "uint256"
        }
      ],
      "payable": false,
      "stateMutability": "view",
      "type": "function"
    },
    {
      "constant": true,
      "inputs": [
        {
          "internalType": "bytes32",
          "name": "",
          "type": "bytes32"
        }
      ],
      "name": "noteAccess",
      "outputs": [
        {
          "internalType": "uint256",
          "name": "",
          "type": "uint256"
        }
      ],
      "payable": false,
      "stateMutability": "view",
      "type": "function"
    },
    {
      "constant": true,
      "inputs": [
        {
          "internalType": "bytes32",
          "name": "",
          "type": "bytes32"
        }
      ],
      "name": "signatureLog",
      "outputs": [
        {
          "internalType": "bool",
          "name": "",
          "type": "bool"
        }
      ],
      "payable": false,
      "stateMutability": "view",
      "type": "function"
    },
    {
      "constant": false,
      "inputs": [
        {
          "internalType": "uint24",
          "name": "_proofId",
          "type": "uint24"
        },
        {
          "internalType": "bytes",
          "name": "_proofData",
          "type": "bytes"
        },
        {
          "internalType": "bytes",
          "name": "_signatures",
          "type": "bytes"
        }
      ],
      "name": "confidentialTransfer",
      "outputs": [],
      "payable": false,
      "stateMutability": "nonpayable",
      "type": "function"
    },
    {
      "constant": false,
      "inputs": [
        {
          "internalType": "bytes",
          "name": "_proofData",
          "type": "bytes"
        },
        {
          "internalType": "bytes",
          "name": "_signatures",
          "type": "bytes"
        }
      ],
      "name": "confidentialTransfer",
      "outputs": [],
      "payable": false,
      "stateMutability": "nonpayable",
      "type": "function"
    },
    {
      "constant": false,
      "inputs": [
        {
          "internalType": "bytes32",
          "name": "_noteHash",
          "type": "bytes32"
        },
        {
          "internalType": "address",
          "name": "_spender",
          "type": "address"
        },
        {
          "internalType": "bool",
          "name": "_spenderApproval",
          "type": "bool"
        },
        {
          "internalType": "bytes",
          "name": "_signature",
          "type": "bytes"
        }
      ],
      "name": "confidentialApprove",
      "outputs": [],
      "payable": false,
      "stateMutability": "nonpayable",
      "type": "function"
    },
    {
      "constant": false,
      "inputs": [
        {
          "internalType": "uint24",
          "name": "_proofId",
          "type": "uint24"
        },
        {
          "internalType": "bytes",
          "name": "_proofOutputs",
          "type": "bytes"
        },
        {
          "internalType": "address",
          "name": "_spender",
          "type": "address"
        },
        {
          "internalType": "bool",
          "name": "_approval",
          "type": "bool"
        },
        {
          "internalType": "bytes",
          "name": "_proofSignature",
          "type": "bytes"
        }
      ],
      "name": "approveProof",
      "outputs": [],
      "payable": false,
      "stateMutability": "nonpayable",
      "type": "function"
    },
    {
      "constant": false,
      "inputs": [
        {
          "internalType": "uint24",
          "name": "_proof",
          "type": "uint24"
        },
        {
          "internalType": "bytes",
          "name": "_proofOutput",
          "type": "bytes"
        }
      ],
      "name": "confidentialTransferFrom",
      "outputs": [],
      "payable": false,
      "stateMutability": "nonpayable",
      "type": "function"
    },
    {
      "constant": false,
      "inputs": [
        {
          "internalType": "bytes32",
          "name": "noteHash",
          "type": "bytes32"
        },
        {
          "internalType": "bytes",
          "name": "metaData",
          "type": "bytes"
        }
      ],
      "name": "updateNoteMetaData",
      "outputs": [],
      "payable": false,
      "stateMutability": "nonpayable",
      "type": "function"
    }
  ],
  "bytecode": "0x60806040523480156200001157600080fd5b50604051620026a6380380620026a6833981810160405260808110156200003757600080fd5b50805160208083015160408085015160609586015182516c08a92a06e626488dedac2d2dc5609b1b818701526b1cdd1c9a5b99c81b985b594b60a21b602d8201526e1cdd1c9a5b99c81d995c9cda5bdb8b608a1b60398201527f6164647265737320766572696679696e67436f6e7472616374000000000000006048820152602960f81b6061820152835160428183030181526062820180865281519188019190912060a28301865260199091527f415a5445435f43525950544f4752415048595f454e47494e45000000000000006082909201919091528351808501855260018152603160f81b908701528351808701919091527fc8066e2c715ce196630b273cd256d8959d5b9fefc55e9e6d999fb0f08bb7f75f818501526000805160206200268683398151915297810197909752306080888101919091528351808903909101815260a0909701909252855195909301949094206000908155929390926001600160a01b03841615620001af576001620001b2565b60005b604080516c08a92a06e626488dedac2d2dc5609b1b6020808301919091526b1cdd1c9a5b99c81b985b594b60a21b602d8301526e1cdd1c9a5b99c81d995c9cda5bdb8b608a1b60398301527f6164647265737320766572696679696e67436f6e7472616374000000000000006048830152602960f81b6061830152825160428184030181526062830180855281519183019190912060a2840185526008909152671692d7d054d4d15560c21b608290930192909252825180840184526001808252603160f81b918301919091528351808301939093527f34a1782c7b6da6ed013d1c63b38e9a7204574db51f6df9ff13aa1786590013fd83850152600080516020620026868339815191526060840152306080808501919091528451808503909101815260a0840180865281519190930120600090815581546001600160a01b038c81166001600160a01b03199283161793849055600280548d83169316831790556352a3465160e11b90945260a485015260c4840189905287151560e48501528515156101048501529351949550169263a5468ca2926101248084019391929182900301818387803b1580156200036957600080fd5b505af11580156200037e573d6000803e3d6000fd5b5050604080518681528415156020820152815186151594506001600160a01b03808a1694508a16927fca576e79bcb5c4a0045d9d596a80c733c3997559f688f69e5c03bd737d885b86928290030190a450505050506122a380620003e36000396000f3fe608060405234801561001057600080fd5b50600436106101205760003560e01c806384a26fc8116100ad578063a5c8fa8411610071578063a5c8fa84146106bc578063cdfea90e146106e0578063df92462514610790578063e306f77914610798578063ea12489f146107a057610120565b806384a26fc8146105375780638500e1f8146105665780638e526d9b1461056e5780639698849814610576578063985cd3b71461069f57610120565b80630a60305a116100f45780630a60305a146102b55780630f4a80fe146103965780631f2ac16a146103c25780632e3b9a3b1461048457806349518b281461052f57610120565b80625bf7321461012557806302d1fdc91461014557806308ae900a1461027c57806309146c7c14610284575b600080fd5b61012d6107a8565b6040805162ffffff9092168252519081900360200190f35b61027a6004803603606081101561015b57600080fd5b62ffffff8235169190810190604081016020820135600160201b81111561018157600080fd5b82018360208201111561019357600080fd5b803590602001918460018302840111600160201b831117156101b457600080fd5b91908080601f0160208091040260200160405190810160405280939291908181526020018383808284376000920191909152509295949360208101935035915050600160201b81111561020657600080fd5b82018360208201111561021857600080fd5b803590602001918460018302840111600160201b8311171561023957600080fd5b91908080601f0160208091040260200160405190810160405280939291908181526020018383808284376000920191909152509295506107af945050505050565b005b61012d6109e0565b6102a16004803603602081101561029a57600080fd5b50356109e7565b604080519115158252519081900360200190f35b61027a600480360360a08110156102cb57600080fd5b62ffffff8235169190810190604081016020820135600160201b8111156102f157600080fd5b82018360208201111561030357600080fd5b803590602001918460018302840111600160201b8311171561032457600080fd5b919390926001600160a01b038335169260208101351515929190606081019060400135600160201b81111561035857600080fd5b82018360208201111561036a57600080fd5b803590602001918460018302840111600160201b8311171561038b57600080fd5b5090925090506109fc565b6102a1600480360360408110156103ac57600080fd5b50803590602001356001600160a01b0316610f59565b61027a600480360360808110156103d857600080fd5b8135916001600160a01b0360208201351691604082013515159190810190608081016060820135600160201b81111561041057600080fd5b82018360208201111561042257600080fd5b803590602001918460018302840111600160201b8311171561044357600080fd5b91908080601f016020809104026020016040519081016040528093929190818152602001838380828437600092019190915250929550610f79945050505050565b61027a6004803603604081101561049a57600080fd5b81359190810190604081016020820135600160201b8111156104bb57600080fd5b8201836020820111156104cd57600080fd5b803590602001918460018302840111600160201b831117156104ee57600080fd5b91908080601f016020809104026020016040519081016040528093929190818152602001838380828437600092019190915250929550611263945050505050565b61012d61145e565b6105546004803603602081101561054d57600080fd5b5035611465565b60408051918252519081900360200190f35b61012d611477565b61012d61147e565b61027a6004803603604081101561058c57600080fd5b810190602081018135600160201b8111156105a657600080fd5b8201836020820111156105b857600080fd5b803590602001918460018302840111600160201b831117156105d957600080fd5b91908080601f0160208091040260200160405190810160405280939291908181526020018383808284376000920191909152509295949360208101935035915050600160201b81111561062b57600080fd5b82018360208201111561063d57600080fd5b803590602001918460018302840111600160201b8311171561065e57600080fd5b91908080601f016020809104026020016040519081016040528093929190818152602001838380828437600092019190915250929550611485945050505050565b610554600480360360208110156106b557600080fd5b5035611497565b6106c46114a9565b604080516001600160a01b039092168252519081900360200190f35b61027a600480360360408110156106f657600080fd5b62ffffff8235169190810190604081016020820135600160201b81111561071c57600080fd5b82018360208201111561072e57600080fd5b803590602001918460018302840111600160201b8311171561074f57600080fd5b91908080601f0160208091040260200160405190810160405280939291908181526020018383808284376000920191909152509295506114b8945050505050565b61012d611730565b610554611737565b6106c461173d565b6201010181565b60006107bf8462ffffff1661174c565b5091505060ff811660011461081b576040805162461bcd60e51b815260206004820152601c60248201527f74686973206973206e6f7420612062616c616e6365642070726f6f6600000000604482015290519081900360640190fd5b60015460405163a2866ea360e01b815262ffffff861660048201908152336024830181905260606044840181815288516064860152885191956001600160a01b03169463a2866ea3948b94938b93919260840190602085019080838360005b8381101561089257818101518382015260200161087a565b50505050905090810190601f1680156108bf5780820380516001836020036101000a031916815260200191505b50945050505050600060405180830381600087803b1580156108e057600080fd5b505af11580156108f4573d6000803e3d6000fd5b505050506040513d6000823e601f3d908101601f19168201604052602081101561091d57600080fd5b8101908080516040519392919084600160201b82111561093c57600080fd5b90830190602082018581111561095157600080fd5b8251600160201b81118282018810171561096a57600080fd5b82525081516020918201929091019080838360005b8381101561099757818101518382015260200161097f565b50505050905090810190601f1680156109c45780820380516001836020036101000a031916815260200191505b5060405250505090506109d985828587611766565b5050505050565b6201040381565b60066020526000908152604090205460ff1681565b600082826040518083838082843760408051939091018390039092206000818152600660205292909220549195505060ff161515600114159250610a8a915050576040805162461bcd60e51b815260206004820152601f60248201527f7369676e61747572652068617320616c7265616479206265656e207573656400604482015290519081900360640190fd5b6000818152600660209081526040808320805460ff191660011790558051608081019091526042808252909161214a908301396040516020018082805190602001908083835b60208310610aef5780518252601f199092019160209182019101610ad0565b51815160001960209485036101000a0190811690199190911617905260408051601f1995909301838103959095018352848152825192820192909220671692d7d054d4d15560c21b85528251948590036008018520603160f81b8652835195869003600101862086840192909252858401526060850152306080808601919091528251808603909101815260a0850183528051908201207f50726f6f665369676e617475726528000000000000000000000000000000000060c08601527f627974657333322070726f6f66486173682c000000000000000000000000000060cf8601526f1859191c995cdcc81cdc195b99195c8b60821b60e18601526c189bdbdb08185c1c1c9bdd985b609a1b60f1860152602960f81b60fe860152825160df81870301815260ff9095019283905284519490910193909320929550600094508593508c91508b908083838082843760408051939091018390038320602080850198909852838201526001600160a01b038f1660608401528d15156080808501919091528151808503909101815260a08401825280519088012061190160f01b60c085015260c284019890985260e280840198909852805180840390980188526101028301808252885198880198909820610122601f8e01899004909802840188019091528b88529750600096610d07968996509094508c93508b9283925001838280828437600092019190915250611ae892505050565b905060005b610d4b8b8b8080601f016020809104026020016040519081016040528093929190818152602001838380828437600092019190915250611c4192505050565b811015610f4b576060610d9d828d8d8080601f016020809104026020016040519081016040528093929190818152602001838380828437600092019190915250929392505063ffffffff611c48169050565b90506060610daa82611c98565b5091925060009150505b610dbd82611c41565b811015610f0f576000610dde610dd9848463ffffffff611c4816565b611cc2565b5060015460408051637f6f713360e11b81523060048201526024810184905290519294506000935083926001600160a01b039092169163fedee26691604480820192608092909190829003018186803b158015610e3a57600080fd5b505afa158015610e4e573d6000803e3d6000fd5b505050506040513d6080811015610e6457600080fd5b5080516060909101519092509050600160ff831614610eb45760405162461bcd60e51b81526004018080602001828103825260228152602001806120da6022913960400191505060405180910390fd5b876001600160a01b0316816001600160a01b031614610f045760405162461bcd60e51b81526004018080602001828103825260268152602001806121246026913960400191505060405180910390fd5b505050600101610db4565b5050805160209182012060009081526003825260408082206001600160a01b038d16835290925220805460ff1916891515179055600101610d0c565b505050505050505050505050565b600360209081526000928352604080842090915290825290205460ff1681565b60015460408051637f6f713360e11b81523060048201526024810187905290516000926001600160a01b03169163fedee266916044808301926080929190829003018186803b158015610fcb57600080fd5b505afa158015610fdf573d6000803e3d6000fd5b505050506040513d6080811015610ff557600080fd5b50519050600160ff82161461103b5760405162461bcd60e51b81526004018080602001828103825260228152602001806120da6022913960400191505060405180910390fd5b6000826040516020018082805190602001908083835b602083106110705780518252601f199092019160209182019101611051565b51815160209384036101000a60001901801990921691161790526040805192909401828103601f190183528452815191810191909120600081815260069092529290205491945050600160ff9091161515141591506111189050576040805162461bcd60e51b815260206004820152601f60248201527f7369676e61747572652068617320616c7265616479206265656e207573656400604482015290519081900360640190fd5b825115611139576000818152600660205260409020805460ff191660011790555b604080517f4e6f74655369676e61747572652800000000000000000000000000000000000060208083019190915270189e5d195ccccc881b9bdd1952185cda0b607a1b602e8301526f1859191c995cdcc81cdc195b99195c8b60821b603f8301527f626f6f6c207370656e646572417070726f76616c000000000000000000000000604f830152602960f81b606383015282516044818403018152606483018452805190820120608483015260a482018990526001600160a01b03881660c483015286151560e48084019190915283518084039091018152610104909201909252805191012061122a818886611ce0565b5050506000938452506003602090815260408085206001600160a01b039490941685529290529120805460ff1916911515919091179055565b60015460408051637f6f713360e11b815230600482015260248101859052905160009283926001600160a01b039091169163fedee26691604480820192608092909190829003018186803b1580156112ba57600080fd5b505afa1580156112ce573d6000803e3d6000fd5b505050506040513d60808110156112e457600080fd5b508051606091820151604080513390941b60208581019190915260348086018a9052825180870390910181526054909501825284519481019490942060008981526004865282812054828252600590965291909120549295509093509111158061135657506001600160a01b03821633145b801561136557508260ff166001145b6113a05760405162461bcd60e51b815260040180806020018281038252603281526020018061218c6032913960400191505060405180910390fd5b6113aa8486611e03565b6113b385611e8c565b84826001600160a01b03167fda392cb8aa0843e7e474e7bacfae355313fc4202094b3e81d2a488b5c05207bf866040518080602001828103825283818151815260200191508051906020019080838360005b8381101561141d578181015183820152602001611405565b50505050905090810190601f16801561144a5780820380516001836020036101000a031916815260200191505b509250505060405180910390a35050505050565b6201040281565b60056020526000908152604090205481565b6201040181565b6201020181565b6114936201010183836107af565b5050565b60046020526000908152604090205481565b6001546001600160a01b031681565b6060806000806114c785611c98565b88516020808b01919091206000818152600383526040808220338352909352919091205494985092965090945092509060ff16151560011461159f57600061150e86611c41565b905060005b8181101561159c576000611530610dd9898463ffffffff611c4816565b50600081815260036020908152604080832033845290915290205490925060ff16151560011490506115935760405162461bcd60e51b815260040180806020018281038252603181526020018061221c6031913960400191505060405180910390fd5b50600101611513565b50505b600154604051634bbbcb6960e11b815262ffffff89166004820190815233604483018190526060602484019081528a5160648501528a516001600160a01b039095169463977796d2948d948d94939092909160840190602086019080838360005b83811015611618578181015183820152602001611600565b50505050905090810190601f1680156116455780820380516001836020036101000a031916815260200191505b50945050505050600060405180830381600087803b15801561166657600080fd5b505af115801561167a573d6000803e3d6000fd5b5050505061168785611e9f565b61169084611f0e565b60008212156116de57826001600160a01b03167ffed3b27b73d78d9d1f344bbbf25f7af35e0ac4d6cf8193604ce18082168e461a836000036040518082815260200191505060405180910390a25b6000821315611727576040805183815290516001600160a01b038516917f60213c45c34d8b94e495fd5871fdea7a7511f659e884ea25a0c8843b7f98bfad919081900360200190a25b50505050505050565b6201030181565b60005481565b6002546001600160a01b031681565b60ff62010000820481169261010083048216929190911690565b604081015160005b61177785611c41565b811015611ae0576060611790868363ffffffff611c4816565b600154604051634bbbcb6960e11b815262ffffff8a166004820190815230604483018190526060602484019081528551606485015285519596506001600160a01b039094169463977796d2948d94889492608490910190602086019080838360005b8381101561180a5781810151838201526020016117f2565b50505050905090810190601f1680156118375780820380516001836020036101000a031916815260200191505b50945050505050600060405180830381600087803b15801561185857600080fd5b505af115801561186c573d6000803e3d6000fd5b5050505060608060008061187f85611c98565b9350935093509350600061189285611c41565b1115611a275760005b6118a485611c41565b811015611a255760606118b78b83612001565b905060006118ce610dd9888563ffffffff611c4816565b50915050600060405160200180807f4a6f696e53706c69745369676e61747572652800000000000000000000000000815250601301806c1d5a5b9d0c8d081c1c9bdbd98b609a1b815250600d018070189e5d195ccccc881b9bdd1952185cda0b607a1b815250601101807f75696e74323536206368616c6c656e67652c0000000000000000000000000000815250601201807f616464726573732073656e646572000000000000000000000000000000000000815250600e0180602960f81b8152506001019050604051602081830303815290604052805190602001208f838d33604051602001808681526020018562ffffff1662ffffff168152602001848152602001838152602001826001600160a01b03166001600160a01b0316815260200195505050505050604051602081830303815290604052805190602001209050611a1a818385611ce0565b50505060010161189b565b505b611a3084611e9f565b611a3983611f0e565b6000811215611a8757816001600160a01b03167ffed3b27b73d78d9d1f344bbbf25f7af35e0ac4d6cf8193604ce18082168e461a826000036040518082815260200191505060405180910390a25b6000811315611ad0576040805182815290516001600160a01b038416917f60213c45c34d8b94e495fd5871fdea7a7511f659e884ea25a0c8843b7f98bfad919081900360200190a25b505050505060018101905061176e565b505050505050565b6000808251848452606084015160408501518160f81c9150604086015160608701526020860151604087015281602087015260208660808860015afa601c8314601b84141760418514167f7fffffffffffffffffffffffffffffff5d576e7357a4501ddfe92f46681b20a08310161693508551871460008114611b6a57611b6f565b865195505b5050508352808015611b8957506001600160a01b03821615155b611c3a576001600160a01b038216611be8576040805162461bcd60e51b815260206004820152601a60248201527f7369676e657220616464726573732063616e6e6f742062652030000000000000604482015290519081900360640190fd5b80611c3a576040805162461bcd60e51b815260206004820152601960248201527f7369676e6174757265207265636f76657279206661696c656400000000000000604482015290519081900360640190fd5b5092915050565b6020015190565b602082810151908202830160400151830190821080611c3a5760405162461bcd60e51b815260040180806020018281038252602281526020018061224d6022913960400191505060405180910390fd5b60208101516040820151606083015160808401519284019491909301926001600160a01b03169190565b604081015160608201516001600160a01b0390911692909160800190565b60015460408051637f6f713360e11b81523060048201526024810185905290516000926001600160a01b03169163fedee266916044808301926080929190829003018186803b158015611d3257600080fd5b505afa158015611d46573d6000803e3d6000fd5b505050506040513d6080811015611d5c57600080fd5b5060600151825190915060009015801590611d8057506001600160a01b0382163314155b15611da0576000611d9086612069565b9050611d9c8185611ae8565b9150505b816001600160a01b0316816001600160a01b03161480611dc857506001600160a01b03821633145b6109d95760405162461bcd60e51b81526004018080602001828103825260288152602001806120fc6028913960400191505060405180910390fd5b815160e18301516061821115611e865760005b818110156109d9576000611e2a868361208a565b6040805160609290921b6bffffffffffffffffffffffff19166020808401919091526034808401899052825180850390910181526054909301825282519281019290922060009081526005909252902042905550600101611e16565b50505050565b6000908152600460205260409020429055565b60005b611eab82611c41565b81101561149357600080611ec8610dd9858563ffffffff611c4816565b509150915080826001600160a01b03167f979308e20fbd28822c4526e85d528175e04e3ca0cf91c46301db34401a26a8c660405160405180910390a35050600101611ea2565b60005b611f1a82611c41565b811015611493576000806060611f39610dd9868663ffffffff611c4816565b925092509250611f4882611e8c565b611f528183611e03565b81836001600160a01b03167f5ffb3072e4515cf3bfae8b16be9dff6313cf7c313a0c26faafe6971d8c7585f1836040518080602001828103825283818151815260200191508051906020019080838360005b83811015611fbc578181015183820152602001611fa4565b50505050905090810190601f168015611fe95780820380516001836020036101000a031916815260200191505b509250505060405180910390a3505050600101611f11565b60419081029190910160208181015160408084015193850151815193840192909252828101939093527fff0000000000000000000000000000000000000000000000000000000000000060f89190911b16606082015281518082039093018352606101905290565b60008054604080516119019093526020919091529182526042601e20915290565b6020828101519082028301610101015190808310611c3a5760405162461bcd60e51b815260040180806020018281038252605e8152602001806121be605e913960600191505060405180910390fdfe6f6e6c7920756e7370656e74206e6f7465732063616e20626520617070726f766564746865206e6f7465206f776e657220646964206e6f74207369676e2074686973206d657373616765746865206e6f7465206f776e657220646964206e6f74207369676e20746869732070726f6f66454950373132446f6d61696e28737472696e67206e616d652c737472696e672076657273696f6e2c6164647265737320766572696679696e67436f6e74726163742963616c6c657220646f6573206e6f742068617665207065726d697373696f6e20746f20757064617465206d6574614461746161646472657373506f73206f7574206f6620626f756e6473202d2061646472657373506f73206d757374206265206c657373207468616e20746865206e756d626572206f662061646472657373657320746f20626520617070726f76656473656e64657220646f6573206e6f74206861766520617070726f76616c20746f207370656e6420696e707574206e6f7465415a54454320617272617920696e646578206973206f7574206f6620626f756e6473a265627a7a723158201b35cfc65265aab61fe13566c50c93b9577b5ba1839a9325a36b4178b3d14ec264736f6c63430005110032c89efdaa54c0f20c7adf612882df0950f5a951637e0307cdcb4c672f298b8bc6",
  "source": "pragma solidity >=0.5.0 <0.6.0;\n\nimport \"openzeppelin-solidity/contracts/math/SafeMath.sol\";\n\nimport \"@aztec/protocol/contracts/libs/NoteUtils.sol\";\nimport \"@aztec/protocol/contracts/interfaces/IACE.sol\";\nimport \"@aztec/protocol/contracts/interfaces/IAZTEC.sol\";\nimport \"@aztec/protocol/contracts/interfaces/IZkAsset.sol\";\nimport \"@aztec/protocol/contracts/interfaces/IERC20Mintable.sol\";\nimport \"@aztec/protocol/contracts/libs/LibEIP712.sol\";\nimport \"@aztec/protocol/contracts/libs/MetaDataUtils.sol\";\nimport \"@aztec/protocol/contracts/libs/ProofUtils.sol\";\n\n/**\n * @title ZkAssetBase\n * @author AZTEC\n * @dev A contract defining the standard interface and behaviours of a confidential asset.\n * The ownership values and transfer values are encrypted.\n *\n * Copyright 2020 Spilsbury Holdings Ltd \n *\n * Licensed under the GNU Lesser General Public Licence, Version 3.0 (the \"License\");\n * you may not use this file except in compliance with the License.\n *\n * This program is distributed in the hope that it will be useful,\n * but WITHOUT ANY WARRANTY; without even the implied warranty of\n * MERCHANTABILITY or FITNESS FOR A PARTICULAR PURPOSE.  See the\n * GNU Lesser General Public License for more details.\n *\n * You should have received a copy of the GNU Lesser General Public License\n * along with this program.  If not, see <https://www.gnu.org/licenses/>.\n**/\ncontract ZkAssetBase is IZkAsset, IAZTEC, LibEIP712 {\n    using NoteUtils for bytes;\n    using SafeMath for uint256;\n    using ProofUtils for uint24;\n\n    // EIP712 Domain Name value\n    string constant internal EIP712_DOMAIN_NAME = \"ZK_ASSET\";\n\n    bytes32 constant internal PROOF_SIGNATURE_TYPE_HASH = keccak256(abi.encodePacked(\n        \"ProofSignature(\",\n            \"bytes32 proofHash,\",\n            \"address spender,\",\n            \"bool approval\",\n        \")\"\n    ));\n    string private constant EIP712_DOMAIN  = \"EIP712Domain(string name,string version,address verifyingContract)\";\n\n    bytes32 private constant EIP712_DOMAIN_TYPEHASH = keccak256(abi.encodePacked(EIP712_DOMAIN));\n\n    bytes32 constant internal NOTE_SIGNATURE_TYPEHASH = keccak256(abi.encodePacked(\n        \"NoteSignature(\",\n            \"bytes32 noteHash,\",\n            \"address spender,\",\n            \"bool spenderApproval\",\n        \")\"\n    ));\n\n    bytes32 constant internal JOIN_SPLIT_SIGNATURE_TYPE_HASH = keccak256(abi.encodePacked(\n        \"JoinSplitSignature(\",\n            \"uint24 proof,\",\n            \"bytes32 noteHash,\",\n            \"uint256 challenge,\",\n            \"address sender\",\n        \")\"\n    ));\n\n    IACE public ace;\n    IERC20Mintable public linkedToken;\n\n    mapping(bytes32 => mapping(address => bool)) public confidentialApproved;\n    mapping(bytes32 => uint256) public metaDataTimeLog;\n    mapping(bytes32 => uint256) public noteAccess;\n    mapping(bytes32 => bool) public signatureLog;\n\n    constructor(\n        address _aceAddress,\n        address _linkedTokenAddress,\n        uint256 _scalingFactor,\n        bool _canAdjustSupply\n    ) public {\n        bool canConvert = (_linkedTokenAddress == address(0x0)) ? false : true;\n        EIP712_DOMAIN_HASH = keccak256(abi.encodePacked(\n            EIP712_DOMAIN_SEPARATOR_SCHEMA_HASH,\n            keccak256(bytes(EIP712_DOMAIN_NAME)),\n            keccak256(bytes(EIP712_DOMAIN_VERSION)),\n            bytes32(uint256(address(this)))\n        ));\n        ace = IACE(_aceAddress);\n        linkedToken = IERC20Mintable(_linkedTokenAddress);\n        ace.createNoteRegistry(\n            _linkedTokenAddress,\n            _scalingFactor,\n            _canAdjustSupply,\n            canConvert\n        );\n        emit CreateZkAsset(\n            _aceAddress,\n            _linkedTokenAddress,\n            _scalingFactor,\n            _canAdjustSupply,\n            canConvert\n        );\n    }\n\n    /**\n    * @dev Executes a basic unilateral, confidential transfer of AZTEC notes\n    * Will submit _proofData to the validateProof() function of the Cryptography Engine.\n    *\n    * Upon successfull verification, it will update note registry state - creating output notes and\n    * destroying input notes.\n    *\n    * @param _proofId - id of proof to be validated. Needs to be a balanced proof.\n    * @param _proofData - bytes variable outputted from a proof verification contract, representing\n    * transfer instructions for the IACE\n    * @param _signatures - array of the ECDSA signatures over all inputNotes\n    */\n    function confidentialTransfer(uint24 _proofId, bytes memory _proofData, bytes memory _signatures) public {\n        // Check that it's a balanced proof\n        (, uint8 category, ) = _proofId.getProofComponents();\n\n        require(category == uint8(ProofCategory.BALANCED), \"this is not a balanced proof\");\n        bytes memory proofOutputs = ace.validateProof(_proofId, msg.sender, _proofData);\n        confidentialTransferInternal(_proofId, proofOutputs, _signatures, _proofData);\n    }\n\n    /**\n    * @dev Executes a basic unilateral, confidential transfer of AZTEC notes\n    * Will submit _proofData to the validateProof() function of the Cryptography Engine.\n    *\n    * Upon successfull verification, it will update note registry state - creating output notes and\n    * destroying input notes.\n    *\n    * @param _proofData - bytes variable outputted from a proof verification contract, representing\n    * transfer instructions for the IACE\n    * @param _signatures - array of the ECDSA signatures over all inputNotes\n    */\n    function confidentialTransfer(bytes memory _proofData, bytes memory _signatures) public {\n        confidentialTransfer(JOIN_SPLIT_PROOF, _proofData, _signatures);\n    }\n\n    /**\n    * @dev Note owner approving a third party, another address, to spend the note on\n    * owner's behalf. This is necessary to allow the confidentialTransferFrom() method\n    * to be called\n    *\n    * @param _noteHash - keccak256 hash of the note coordinates (gamma and sigma)\n    * @param _spender - address being approved to spend the note\n    * @param _spenderApproval - defines whether the _spender address is being approved to spend the\n    * note, or if permission is being revoked. True if approved, false if not approved\n    * @param _signature - ECDSA signature from the note owner that validates the\n    * confidentialApprove() instruction\n    */\n    function confidentialApprove(\n        bytes32 _noteHash,\n        address _spender,\n        bool _spenderApproval,\n        bytes memory _signature\n    ) public {\n        ( uint8 status, , , ) = ace.getNote(address(this), _noteHash);\n        require(status == 1, \"only unspent notes can be approved\");\n\n        bytes32 signatureHash = keccak256(abi.encodePacked(_signature));\n        require(signatureLog[signatureHash] != true, \"signature has already been used\");\n        // Only need to prevent replay from calls where msg.sender isn't owner of note.\n        if (_signature.length != 0) {\n            signatureLog[signatureHash] = true;\n        }\n\n        bytes32 _hashStruct = keccak256(abi.encode(\n                NOTE_SIGNATURE_TYPEHASH,\n                _noteHash,\n                _spender,\n                _spenderApproval\n        ));\n\n        validateSignature(_hashStruct, _noteHash, _signature);\n        confidentialApproved[_noteHash][_spender] = _spenderApproval;\n    }\n\n    /**\n     * @dev Note owner can approve a third party address, such as a smart contract,\n     * to spend a proof on their behalf. This allows a batch approval of notes\n     * to be performed, rather than individually for each note via confidentialApprove().\n     *\n     * @param _proofId - id of proof to be approved. Needs to be a balanced proof.\n     * @param _proofOutputs - data of proof\n     * @param _spender - address being approved to spend the notes\n     * @param _proofSignature - ECDSA signature over the proof, approving it to be spent\n     */\n    function approveProof(\n        uint24 _proofId,\n        bytes calldata _proofOutputs,\n        address _spender,\n        bool _approval,\n        bytes calldata _proofSignature\n    ) external {\n        // Prevent possible replay attacks\n        bytes32 signatureHash = keccak256(_proofSignature);\n        require(signatureLog[signatureHash] != true, \"signature has already been used\");\n        signatureLog[signatureHash] = true;\n\n        bytes32 DOMAIN_SEPARATOR = keccak256(abi.encode(\n            EIP712_DOMAIN_TYPEHASH,\n            keccak256(\"ZK_ASSET\"),\n            keccak256(\"1\"),\n            address(this)\n        ));\n\n        bytes32 msgHash = keccak256(abi.encodePacked(\n            \"\\x19\\x01\",\n            DOMAIN_SEPARATOR,\n            keccak256(abi.encode(\n                PROOF_SIGNATURE_TYPE_HASH,\n                keccak256(_proofOutputs),\n                _spender,\n                _approval\n            ))\n        ));\n\n        address signer = recoverSignature(\n            msgHash,\n            _proofSignature\n        );\n\n        for (uint i = 0; i < _proofOutputs.getLength(); i += 1) {\n            bytes memory proofOutput = _proofOutputs.get(i);\n\n            (bytes memory inputNotes,,,) = proofOutput.extractProofOutput();\n\n            for (uint256 j = 0; j < inputNotes.getLength(); j += 1) {\n                (, bytes32 noteHash, ) = inputNotes.get(j).extractNote();\n                ( uint8 status, , , address noteOwner ) = ace.getNote(address(this), noteHash);\n                require(status == 1, \"only unspent notes can be approved\");\n                require(noteOwner == signer, \"the note owner did not sign this proof\");\n            }\n\n            confidentialApproved[keccak256(proofOutput)][_spender] = _approval;\n        }\n    }\n\n    /**\n    * @dev Perform ECDSA signature validation for a signature over an input note\n    *\n    * @param _hashStruct - the data to sign in an EIP712 signature\n    * @param _noteHash - keccak256 hash of the note coordinates (gamma and sigma)\n    * @param _signature - ECDSA signature for a particular input note\n    */\n    function validateSignature(\n        bytes32 _hashStruct,\n        bytes32 _noteHash,\n        bytes memory _signature\n    ) internal view {\n        (, , , address noteOwner ) = ace.getNote(address(this), _noteHash);\n\n        address signer;\n        if (_signature.length != 0 && noteOwner != msg.sender) {\n            // validate EIP712 signature\n            bytes32 msgHash = hashEIP712Message(_hashStruct);\n            signer = recoverSignature(\n                msgHash,\n                _signature\n            );\n        }\n        require(signer == noteOwner || noteOwner == msg.sender, \"the note owner did not sign this message\");\n    }\n\n    /**\n    * @dev Extract the appropriate ECDSA signature from an array of signatures,\n    *\n    * @param _signatures - array of ECDSA signatures over all inputNotes\n    * @param _i - index used to determine which signature element is desired\n    */\n    function extractSignature(bytes memory _signatures, uint _i) internal pure returns (\n        bytes memory _signature\n    ){\n        bytes32 r;\n        bytes32 s;\n        uint8 v;\n\n        assembly {\n            // memory map of signatures\n            // 0x00 - 0x20 : length of signature array\n            // 0x20 - 0x40 : first sig, r\n            // 0x40 - 0x60 : first sig, s\n            // 0x61 - 0x62 : first sig, v\n            // 0x62 - 0x82 : second sig, r\n            // and so on...\n            // Length of a signature = 0x41\n\n            let sigLength := 0x41\n\n            r := mload(add(add(_signatures, 0x20), mul(_i, sigLength)))\n            s := mload(add(add(_signatures, 0x40), mul(_i, sigLength)))\n            v := mload(add(add(_signatures, 0x41), mul(_i, sigLength)))\n        }\n\n        _signature = abi.encodePacked(r, s, v);\n    }\n\n    /**\n    * @dev Executes a value transfer mediated by smart contracts. The method is supplied with\n    * transfer instructions represented by a bytes _proofOutput argument that was outputted\n    * from a proof verification contract.\n    *\n    * @param _proof - uint24 variable which acts as a unique identifier for the proof which\n    * _proofOutput is being submitted. _proof contains three concatenated uint8 variables:\n    * 1) epoch number 2) category number 3) ID number for the proof\n    * @param _proofOutput - output of a zero-knowledge proof validation contract. Represents\n    * transfer instructions for the IACE\n    */\n    function confidentialTransferFrom(uint24 _proof, bytes memory _proofOutput) public {\n        (bytes memory inputNotes,\n        bytes memory outputNotes,\n        address publicOwner,\n        int256 publicValue) = _proofOutput.extractProofOutput();\n\n        bytes32 proofHash = keccak256(_proofOutput);\n\n        if (confidentialApproved[proofHash][msg.sender] != true) {\n            uint256 length = inputNotes.getLength();\n            for (uint i = 0; i < length; i += 1) {\n                (, bytes32 noteHash, ) = inputNotes.get(i).extractNote();\n                require(\n                    confidentialApproved[noteHash][msg.sender] == true,\n                    \"sender does not have approval to spend input note\"\n                );\n            }\n        }\n\n        ace.updateNoteRegistry(_proof, _proofOutput, msg.sender);\n\n        logInputNotes(inputNotes);\n        logOutputNotes(outputNotes);\n\n        if (publicValue < 0) {\n            emit ConvertTokens(publicOwner, uint256(-publicValue));\n        }\n        if (publicValue > 0) {\n            emit RedeemTokens(publicOwner, uint256(publicValue));\n        }\n    }\n\n    /**\n    * @dev Internal method to act on transfer instructions from a successful proof validation.\n    * Specifically, it:\n    * - extracts the relevant objects from the proofOutput object\n    * - validates an EIP712 signature over each input note\n    * - updates note registry state\n    * - emits events for note creation/destruction\n    * - converts or redeems tokens, according to the publicValue\n    * @param _proofId - id of proof resulting in _proofData\n    * @param proofOutputs - transfer instructions from a zero-knowledege proof validator\n    * contract\n    * @param _signatures - ECDSA signatures over a set of input notes\n    * @param _proofData - cryptographic proof data outputted from a proof construction\n    * operation\n    */\n    function confidentialTransferInternal(\n        uint24 _proofId,\n        bytes memory proofOutputs,\n        bytes memory _signatures,\n        bytes memory _proofData\n    ) internal {\n        bytes32 _challenge;\n        assembly {\n            _challenge := mload(add(_proofData, 0x40))\n        }\n\n        for (uint i = 0; i < proofOutputs.getLength(); i += 1) {\n            bytes memory proofOutput = proofOutputs.get(i);\n            ace.updateNoteRegistry(_proofId, proofOutput, address(this));\n\n            (bytes memory inputNotes,\n            bytes memory outputNotes,\n            address publicOwner,\n            int256 publicValue) = proofOutput.extractProofOutput();\n\n\n            if (inputNotes.getLength() > uint(0)) {\n                for (uint j = 0; j < inputNotes.getLength(); j += 1) {\n                    bytes memory _signature = extractSignature(_signatures, j);\n\n                    (, bytes32 noteHash, ) = inputNotes.get(j).extractNote();\n\n                    bytes32 hashStruct = keccak256(abi.encode(\n                        JOIN_SPLIT_SIGNATURE_TYPE_HASH,\n                        _proofId,\n                        noteHash,\n                        _challenge,\n                        msg.sender\n                    ));\n\n                    validateSignature(hashStruct, noteHash, _signature);\n                }\n            }\n\n            logInputNotes(inputNotes);\n            logOutputNotes(outputNotes);\n            if (publicValue < 0) {\n                emit ConvertTokens(publicOwner, uint256(-publicValue));\n            }\n            if (publicValue > 0) {\n                emit RedeemTokens(publicOwner, uint256(publicValue));\n            }\n\n        }\n    }\n\n    /**\n    * @dev Update the metadata of a note that already exists in storage.\n    * @param noteHash - hash of a note, used as a unique identifier for the note\n    * @param metaData - metadata to update the note with\n    */\n    function updateNoteMetaData(bytes32 noteHash, bytes memory metaData) public {\n        // Get the note from this assets registry\n        ( uint8 status, , , address noteOwner ) = ace.getNote(address(this), noteHash);\n\n        bytes32 addressID = keccak256(abi.encodePacked(msg.sender, noteHash));\n        require(\n            (noteAccess[addressID] >= metaDataTimeLog[noteHash] || noteOwner == msg.sender) && status == 1,\n            'caller does not have permission to update metaData'\n        );\n\n        // Approve the addresses in the note metaData\n        approveAddresses(metaData, noteHash);\n\n        // Set the metaDataTimeLog to the latest block time\n        setMetaDataTimeLog(noteHash);\n\n        emit UpdateNoteMetaData(noteOwner, noteHash, metaData);\n    }\n\n    /**\n    * @dev Set the metaDataTimeLog mapping\n    * @param noteHash - hash of a note, used as a unique identifier for the note\n    */\n    function setMetaDataTimeLog(bytes32 noteHash) internal {\n        metaDataTimeLog[noteHash] = block.timestamp;\n    }\n\n    /**\n    * @dev Add approved addresses to a noteAccess mapping and to the global collection of addresses that\n    * have been approved\n    * @param metaData - metaData of a note, which contains addresses to be approved\n    * @param noteHash - hash of an AZTEC note, a unique identifier of the note\n    */\n    function approveAddresses(bytes memory metaData, bytes32 noteHash) internal {\n        /**\n        * Memory map of metaData\n        * 0x00 - 0x20 : length of metaData\n        * 0x20 - 0x81 : ephemeral key\n        * 0x81 - 0xa1 : approved addresses offset\n        * 0xa1 - 0xc1 : encrypted view keys offset\n        * 0xc1 - 0xe1 : app data offset\n        * 0xe1 - L_addresses : approvedAddresses\n        * (0xe1 + L_addresses) - (0xe1 + L_addresses + L_encryptedViewKeys) : encrypted view keys\n        * (0xe1 + L_addresses + L_encryptedViewKeys) - (0xe1 + L_addresses + L_encryptedViewKeys + L_appData) : appData\n        */\n\n        bytes32 metaDataLength;\n        bytes32 numAddresses;\n        assembly {\n            metaDataLength := mload(metaData)\n            numAddresses := mload(add(metaData, 0xe1))\n        }\n\n        // if customData has been set, approve the relevant addresses\n        if (uint256(metaDataLength) > 0x61) {\n            for (uint256 i = 0; i < uint256(numAddresses); i += 1) {\n                address extractedAddress = MetaDataUtils.extractAddress(metaData, i);\n                bytes32 addressID = keccak256(abi.encodePacked(extractedAddress, noteHash));\n                noteAccess[addressID] = block.timestamp;\n            }\n        }\n    }\n\n\n    /**\n    * @dev Emit events for all input notes, which represent notes being destroyed\n    * and removed from the note registry\n    *\n    * @param inputNotes - input notes being destroyed and removed from note registry state\n    */\n    function logInputNotes(bytes memory inputNotes) internal {\n        for (uint i = 0; i < inputNotes.getLength(); i += 1) {\n            (address noteOwner, bytes32 noteHash, ) = inputNotes.get(i).extractNote();\n            emit DestroyNote(noteOwner, noteHash);\n        }\n    }\n\n    /**\n    * @dev Emit events for all output notes, which represent notes being created and added\n    * to the note registry\n    *\n    * @param outputNotes - outputNotes being created and added to note registry state\n    */\n    function logOutputNotes(bytes memory outputNotes) internal {\n        for (uint i = 0; i < outputNotes.getLength(); i += 1) {\n            (address noteOwner, bytes32 noteHash, bytes memory metaData) = outputNotes.get(i).extractNote();\n            setMetaDataTimeLog(noteHash);\n            approveAddresses(metaData, noteHash);\n            emit CreateNote(noteOwner, noteHash, metaData);\n        }\n    }\n}\n",
  "sourcePath": "/Users/patricio/workspace/research/privacy/aztec/smart-wallet-react/contracts/aztec/contracts/aztec/ZkAssetBase.sol",
  "compiler": {
    "name": "solc",
    "version": "0.5.17+commit.d19bba13.Emscripten.clang"
  },
  "schemaVersion": "3.4.3",
  "updatedAt": "2021-12-23T21:02:09.485Z",
  "devdoc": {
    "author": "AZTEC",
    "details": "A contract defining the standard interface and behaviours of a confidential asset. The ownership values and transfer values are encrypted. * Copyright 2020 Spilsbury Holdings Ltd  * Licensed under the GNU Lesser General Public Licence, Version 3.0 (the \"License\"); you may not use this file except in compliance with the License. * This program is distributed in the hope that it will be useful, but WITHOUT ANY WARRANTY; without even the implied warranty of MERCHANTABILITY or FITNESS FOR A PARTICULAR PURPOSE.  See the GNU Lesser General Public License for more details. * You should have received a copy of the GNU Lesser General Public License along with this program.  If not, see <https://www.gnu.org/licenses/>.*",
    "methods": {
      "approveProof(uint24,bytes,address,bool,bytes)": {
        "details": "Note owner can approve a third party address, such as a smart contract, to spend a proof on their behalf. This allows a batch approval of notes to be performed, rather than individually for each note via confidentialApprove().",
        "params": {
          "_proofId": "- id of proof to be approved. Needs to be a balanced proof.",
          "_proofOutputs": "- data of proof",
          "_proofSignature": "- ECDSA signature over the proof, approving it to be spent",
          "_spender": "- address being approved to spend the notes"
        }
      },
      "confidentialApprove(bytes32,address,bool,bytes)": {
        "details": "Note owner approving a third party, another address, to spend the note on owner's behalf. This is necessary to allow the confidentialTransferFrom() method to be called",
        "params": {
          "_noteHash": "- keccak256 hash of the note coordinates (gamma and sigma)",
          "_signature": "- ECDSA signature from the note owner that validates the confidentialApprove() instruction",
          "_spender": "- address being approved to spend the note",
          "_spenderApproval": "- defines whether the _spender address is being approved to spend the note, or if permission is being revoked. True if approved, false if not approved"
        }
      },
      "confidentialTransfer(bytes,bytes)": {
        "details": "Executes a basic unilateral, confidential transfer of AZTEC notes Will submit _proofData to the validateProof() function of the Cryptography Engine.    * Upon successfull verification, it will update note registry state - creating output notes and destroying input notes.",
        "params": {
          "_proofData": "- bytes variable outputted from a proof verification contract, representing transfer instructions for the IACE",
          "_signatures": "- array of the ECDSA signatures over all inputNotes"
        }
      },
      "confidentialTransfer(uint24,bytes,bytes)": {
        "details": "Executes a basic unilateral, confidential transfer of AZTEC notes Will submit _proofData to the validateProof() function of the Cryptography Engine.    * Upon successfull verification, it will update note registry state - creating output notes and destroying input notes.",
        "params": {
          "_proofData": "- bytes variable outputted from a proof verification contract, representing transfer instructions for the IACE",
          "_proofId": "- id of proof to be validated. Needs to be a balanced proof.",
          "_signatures": "- array of the ECDSA signatures over all inputNotes"
        }
      },
      "confidentialTransferFrom(uint24,bytes)": {
        "details": "Executes a value transfer mediated by smart contracts. The method is supplied with transfer instructions represented by a bytes _proofOutput argument that was outputted from a proof verification contract.",
        "params": {
          "_proof": "- uint24 variable which acts as a unique identifier for the proof which _proofOutput is being submitted. _proof contains three concatenated uint8 variables: 1) epoch number 2) category number 3) ID number for the proof",
          "_proofOutput": "- output of a zero-knowledge proof validation contract. Represents transfer instructions for the IACE"
        }
      },
      "updateNoteMetaData(bytes32,bytes)": {
        "details": "Update the metadata of a note that already exists in storage.",
        "params": {
          "metaData": "- metadata to update the note with",
          "noteHash": "- hash of a note, used as a unique identifier for the note"
        }
      }
    },
    "title": "ZkAssetBase"
  },
  "userdoc": {
    "methods": {}
  }
}