{
  "contractName": "ZKERC20",
  "abi": [
    {
      "inputs": [
        {
          "internalType": "address",
          "name": "_aceAddress",
          "type": "address"
        },
        {
          "internalType": "address",
          "name": "_erc20Address",
          "type": "address"
        }
      ],
      "payable": false,
      "stateMutability": "nonpayable",
      "type": "constructor"
    },
    {
      "anonymous": false,
      "inputs": [
        {
          "indexed": true,
          "internalType": "address",
          "name": "owner",
          "type": "address"
        },
        {
          "indexed": false,
          "internalType": "uint256",
          "name": "value",
          "type": "uint256"
        }
      ],
      "name": "ConvertTokens",
      "type": "event"
    },
    {
      "anonymous": false,
      "inputs": [
        {
          "indexed": true,
          "internalType": "address",
          "name": "owner",
          "type": "address"
        },
        {
          "indexed": true,
          "internalType": "bytes32",
          "name": "noteHash",
          "type": "bytes32"
        },
        {
          "indexed": false,
          "internalType": "bytes",
          "name": "metadata",
          "type": "bytes"
        }
      ],
      "name": "CreateNote",
      "type": "event"
    },
    {
      "anonymous": false,
      "inputs": [
        {
          "indexed": false,
          "internalType": "uint256",
          "name": "noteRegistryId",
          "type": "uint256"
        }
      ],
      "name": "CreateNoteRegistry",
      "type": "event"
    },
    {
      "anonymous": false,
      "inputs": [
        {
          "indexed": true,
          "internalType": "address",
          "name": "aceAddress",
          "type": "address"
        },
        {
          "indexed": true,
          "internalType": "address",
          "name": "linkedTokenAddress",
          "type": "address"
        },
        {
          "indexed": false,
          "internalType": "uint256",
          "name": "scalingFactor",
          "type": "uint256"
        },
        {
          "indexed": true,
          "internalType": "bool",
          "name": "_canAdjustSupply",
          "type": "bool"
        },
        {
          "indexed": false,
          "internalType": "bool",
          "name": "_canConvert",
          "type": "bool"
        }
      ],
      "name": "CreateZkAsset",
      "type": "event"
    },
    {
      "anonymous": false,
      "inputs": [
        {
          "indexed": true,
          "internalType": "address",
          "name": "owner",
          "type": "address"
        },
        {
          "indexed": true,
          "internalType": "bytes32",
          "name": "noteHash",
          "type": "bytes32"
        }
      ],
      "name": "DestroyNote",
      "type": "event"
    },
    {
      "anonymous": false,
      "inputs": [
        {
          "indexed": false,
          "internalType": "address",
          "name": "owner",
          "type": "address"
        },
        {
          "indexed": false,
          "internalType": "uint256",
          "name": "value",
          "type": "uint256"
        },
        {
          "indexed": false,
          "internalType": "bytes32",
          "name": "noteHash",
          "type": "bytes32"
        }
      ],
      "name": "Log",
      "type": "event"
    },
    {
      "anonymous": false,
      "inputs": [
        {
          "indexed": false,
          "internalType": "string",
          "name": "value",
          "type": "string"
        }
      ],
      "name": "LogString",
      "type": "event"
    },
    {
      "anonymous": false,
      "inputs": [
        {
          "indexed": true,
          "internalType": "address",
          "name": "owner",
          "type": "address"
        },
        {
          "indexed": false,
          "internalType": "uint256",
          "name": "value",
          "type": "uint256"
        }
      ],
      "name": "RedeemTokens",
      "type": "event"
    },
    {
      "anonymous": false,
      "inputs": [
        {
          "indexed": true,
          "internalType": "address",
          "name": "userAddress",
          "type": "address"
        },
        {
          "indexed": false,
          "internalType": "bytes",
          "name": "publicKey",
          "type": "bytes"
        },
        {
          "indexed": false,
          "internalType": "bytes",
          "name": "encryptionPK",
          "type": "bytes"
        }
      ],
      "name": "SetEncryptionPK",
      "type": "event"
    },
    {
      "anonymous": false,
      "inputs": [
        {
          "indexed": true,
          "internalType": "address",
          "name": "owner",
          "type": "address"
        },
        {
          "indexed": true,
          "internalType": "bytes32",
          "name": "noteHash",
          "type": "bytes32"
        },
        {
          "indexed": false,
          "internalType": "bytes",
          "name": "metadata",
          "type": "bytes"
        }
      ],
      "name": "UpdateNoteMetaData",
      "type": "event"
    },
    {
      "constant": true,
      "inputs": [],
      "name": "BURN_PROOF",
      "outputs": [
        {
          "internalType": "uint24",
          "name": "",
          "type": "uint24"
        }
      ],
      "payable": false,
      "stateMutability": "view",
      "type": "function"
    },
    {
      "constant": true,
      "inputs": [],
      "name": "DIVIDEND_PROOF",
      "outputs": [
        {
          "internalType": "uint24",
          "name": "",
          "type": "uint24"
        }
      ],
      "payable": false,
      "stateMutability": "view",
      "type": "function"
    },
    {
      "constant": true,
      "inputs": [],
      "name": "EIP712_DOMAIN_HASH",
      "outputs": [
        {
          "internalType": "bytes32",
          "name": "",
          "type": "bytes32"
        }
      ],
      "payable": false,
      "stateMutability": "view",
      "type": "function"
    },
    {
      "constant": true,
      "inputs": [],
      "name": "JOIN_SPLIT_PROOF",
      "outputs": [
        {
          "internalType": "uint24",
          "name": "",
          "type": "uint24"
        }
      ],
      "payable": false,
      "stateMutability": "view",
      "type": "function"
    },
    {
      "constant": true,
      "inputs": [],
      "name": "MINT_PROOF",
      "outputs": [
        {
          "internalType": "uint24",
          "name": "",
          "type": "uint24"
        }
      ],
      "payable": false,
      "stateMutability": "view",
      "type": "function"
    },
    {
      "constant": true,
      "inputs": [],
      "name": "PRIVATE_RANGE_PROOF",
      "outputs": [
        {
          "internalType": "uint24",
          "name": "",
          "type": "uint24"
        }
      ],
      "payable": false,
      "stateMutability": "view",
      "type": "function"
    },
    {
      "constant": true,
      "inputs": [],
      "name": "PUBLIC_RANGE_PROOF",
      "outputs": [
        {
          "internalType": "uint24",
          "name": "",
          "type": "uint24"
        }
      ],
      "payable": false,
      "stateMutability": "view",
      "type": "function"
    },
    {
      "constant": true,
      "inputs": [],
      "name": "ace",
      "outputs": [
        {
          "internalType": "contract IACE",
          "name": "",
          "type": "address"
        }
      ],
      "payable": false,
      "stateMutability": "view",
      "type": "function"
    },
    {
      "constant": false,
      "inputs": [
        {
          "internalType": "uint24",
          "name": "_proofId",
          "type": "uint24"
        },
        {
          "internalType": "bytes",
          "name": "_proofOutputs",
          "type": "bytes"
        },
        {
          "internalType": "address",
          "name": "_spender",
          "type": "address"
        },
        {
          "internalType": "bool",
          "name": "_approval",
          "type": "bool"
        },
        {
          "internalType": "bytes",
          "name": "_proofSignature",
          "type": "bytes"
        }
      ],
      "name": "approveProof",
      "outputs": [],
      "payable": false,
      "stateMutability": "nonpayable",
      "type": "function"
    },
    {
      "constant": false,
      "inputs": [
        {
          "internalType": "bytes32",
          "name": "_noteHash",
          "type": "bytes32"
        },
        {
          "internalType": "address",
          "name": "_spender",
          "type": "address"
        },
        {
          "internalType": "bool",
          "name": "_spenderApproval",
          "type": "bool"
        },
        {
          "internalType": "bytes",
          "name": "_signature",
          "type": "bytes"
        }
      ],
      "name": "confidentialApprove",
      "outputs": [],
      "payable": false,
      "stateMutability": "nonpayable",
      "type": "function"
    },
    {
      "constant": true,
      "inputs": [
        {
          "internalType": "bytes32",
          "name": "",
          "type": "bytes32"
        },
        {
          "internalType": "address",
          "name": "",
          "type": "address"
        }
      ],
      "name": "confidentialApproved",
      "outputs": [
        {
          "internalType": "bool",
          "name": "",
          "type": "bool"
        }
      ],
      "payable": false,
      "stateMutability": "view",
      "type": "function"
    },
    {
      "constant": false,
      "inputs": [
        {
          "internalType": "uint24",
          "name": "_proofId",
          "type": "uint24"
        },
        {
          "internalType": "bytes",
          "name": "_proofData",
          "type": "bytes"
        },
        {
          "internalType": "bytes",
          "name": "_signatures",
          "type": "bytes"
        }
      ],
      "name": "confidentialTransfer",
      "outputs": [],
      "payable": false,
      "stateMutability": "nonpayable",
      "type": "function"
    },
    {
      "constant": false,
      "inputs": [
        {
          "internalType": "bytes",
          "name": "_proofData",
          "type": "bytes"
        },
        {
          "internalType": "bytes",
          "name": "_signatures",
          "type": "bytes"
        }
      ],
      "name": "confidentialTransfer",
      "outputs": [],
      "payable": false,
      "stateMutability": "nonpayable",
      "type": "function"
    },
    {
      "constant": false,
      "inputs": [
        {
          "internalType": "uint24",
          "name": "_proof",
          "type": "uint24"
        },
        {
          "internalType": "bytes",
          "name": "_proofOutput",
          "type": "bytes"
        }
      ],
      "name": "confidentialTransferFrom",
      "outputs": [],
      "payable": false,
      "stateMutability": "nonpayable",
      "type": "function"
    },
    {
      "constant": true,
      "inputs": [],
      "name": "erc20Address",
      "outputs": [
        {
          "internalType": "address",
          "name": "",
          "type": "address"
        }
      ],
      "payable": false,
      "stateMutability": "view",
      "type": "function"
    },
    {
      "constant": true,
      "inputs": [],
      "name": "linkedToken",
      "outputs": [
        {
          "internalType": "contract IERC20Mintable",
          "name": "",
          "type": "address"
        }
      ],
      "payable": false,
      "stateMutability": "view",
      "type": "function"
    },
    {
      "constant": true,
      "inputs": [
        {
          "internalType": "bytes32",
          "name": "",
          "type": "bytes32"
        }
      ],
      "name": "metaDataTimeLog",
      "outputs": [
        {
          "internalType": "uint256",
          "name": "",
          "type": "uint256"
        }
      ],
      "payable": false,
      "stateMutability": "view",
      "type": "function"
    },
    {
      "constant": true,
      "inputs": [
        {
          "internalType": "bytes32",
          "name": "",
          "type": "bytes32"
        }
      ],
      "name": "noteAccess",
      "outputs": [
        {
          "internalType": "uint256",
          "name": "",
          "type": "uint256"
        }
      ],
      "payable": false,
      "stateMutability": "view",
      "type": "function"
    },
    {
      "constant": false,
      "inputs": [
        {
          "internalType": "bytes",
          "name": "publicKey",
          "type": "bytes"
        },
        {
          "internalType": "bytes",
          "name": "encryptionPK",
          "type": "bytes"
        }
      ],
      "name": "setEncryptionPK",
      "outputs": [],
      "payable": false,
      "stateMutability": "nonpayable",
      "type": "function"
    },
    {
      "constant": true,
      "inputs": [
        {
          "internalType": "bytes32",
          "name": "",
          "type": "bytes32"
        }
      ],
      "name": "signatureLog",
      "outputs": [
        {
          "internalType": "bool",
          "name": "",
          "type": "bool"
        }
      ],
      "payable": false,
      "stateMutability": "view",
      "type": "function"
    },
    {
      "constant": false,
      "inputs": [
        {
          "internalType": "bytes32",
          "name": "noteHash",
          "type": "bytes32"
        },
        {
          "internalType": "bytes",
          "name": "metaData",
          "type": "bytes"
        }
      ],
      "name": "updateNoteMetaData",
      "outputs": [],
      "payable": false,
      "stateMutability": "nonpayable",
      "type": "function"
    },
    {
      "constant": false,
      "inputs": [
        {
          "internalType": "bytes32",
          "name": "_proofHash",
          "type": "bytes32"
        },
        {
          "internalType": "uint256",
          "name": "_value",
          "type": "uint256"
        }
      ],
      "name": "approveAceToSpendTokens",
      "outputs": [],
      "payable": false,
      "stateMutability": "nonpayable",
      "type": "function"
    }
  ],
  "bytecode": "0x60806040523480156200001157600080fd5b5060405162002a5538038062002a55833981810160405260408110156200003757600080fd5b508051602091820151604080516c08a92a06e626488dedac2d2dc5609b1b818601526b1cdd1c9a5b99c81b985b594b60a21b602d8201526e1cdd1c9a5b99c81d995c9cda5bdb8b608a1b60398201527f6164647265737320766572696679696e67436f6e7472616374000000000000006048820152602960f81b6061820152815160428183030181526062820180845281519187019190912060a28301845260199091527f415a5445435f43525950544f4752415048595f454e47494e45000000000000006082909201919091528151808301835260018152603160f81b908601528151808601919091527fc8066e2c715ce196630b273cd256d8959d5b9fefc55e9e6d999fb0f08bb7f75f8183015260008051602062002a358339815191526060820152306080808301919091528251808303909101815260a0909101909152805193019290922060009081559091908290829066038d7ea4c6800090839083908390806001600160a01b03841615620001b4576001620001b7565b60005b604080516c08a92a06e626488dedac2d2dc5609b1b6020808301919091526b1cdd1c9a5b99c81b985b594b60a21b602d8301526e1cdd1c9a5b99c81d995c9cda5bdb8b608a1b60398301527f6164647265737320766572696679696e67436f6e7472616374000000000000006048830152602960f81b6061830152825160428184030181526062830180855281519183019190912060a2840185526008909152671692d7d054d4d15560c21b608290930192909252825180840184526001808252603160f81b918301919091528351808301939093527f34a1782c7b6da6ed013d1c63b38e9a7204574db51f6df9ff13aa1786590013fd8385015260008051602062002a358339815191526060840152306080808501919091528451808503909101815260a0840180865281519190930120600090815581546001600160a01b038c81166001600160a01b03199283161793849055600280548d83169316831790556352a3465160e11b90945260a485015260c4840189905287151560e48501528515156101048501529351949550169263a5468ca2926101248084019391929182900301818387803b1580156200036e57600080fd5b505af115801562000383573d6000803e3d6000fd5b5050604080518681528415156020820152815186151594506001600160a01b03808a1694508a16927fca576e79bcb5c4a0045d9d596a80c733c3997559f688f69e5c03bd737d885b86928290030190a45050600780546001600160a01b03998a166001600160a01b031991821617909155600880549890991697169690961790965550505050505061261a806200041b6000396000f3fe608060405234801561001057600080fd5b50600436106101615760003560e01c806350a1e1db116100c8578063985cd3b71161008c578063df92462511610066578063df92462514610925578063e306f7791461092d578063ea12489f1461093557610161565b8063985cd3b714610850578063a5c8fa841461086d578063cdfea90e1461087557610161565b806350a1e1db146105bf57806384a26fc8146106e85780638500e1f8146107175780638e526d9b1461071f578063969884981461072757610161565b80630f4a80fe1161012a5780632e3b9a3b116101045780632e3b9a3b146104e95780633de59d4c1461059457806349518b28146105b757610161565b80630f4a80fe146103d75780631f2ac16a14610403578063276184ae146104c557610161565b80625bf7321461016657806302d1fdc91461018657806308ae900a146102bd57806309146c7c146102c55780630a60305a146102f6575b600080fd5b61016e61093d565b6040805162ffffff9092168252519081900360200190f35b6102bb6004803603606081101561019c57600080fd5b62ffffff8235169190810190604081016020820135600160201b8111156101c257600080fd5b8201836020820111156101d457600080fd5b803590602001918460018302840111600160201b831117156101f557600080fd5b91908080601f0160208091040260200160405190810160405280939291908181526020018383808284376000920191909152509295949360208101935035915050600160201b81111561024757600080fd5b82018360208201111561025957600080fd5b803590602001918460018302840111600160201b8311171561027a57600080fd5b91908080601f016020809104026020016040519081016040528093929190818152602001838380828437600092019190915250929550610944945050505050565b005b61016e610b75565b6102e2600480360360208110156102db57600080fd5b5035610b7c565b604080519115158252519081900360200190f35b6102bb600480360360a081101561030c57600080fd5b62ffffff8235169190810190604081016020820135600160201b81111561033257600080fd5b82018360208201111561034457600080fd5b803590602001918460018302840111600160201b8311171561036557600080fd5b919390926001600160a01b038335169260208101351515929190606081019060400135600160201b81111561039957600080fd5b8201836020820111156103ab57600080fd5b803590602001918460018302840111600160201b831117156103cc57600080fd5b509092509050610b91565b6102e2600480360360408110156103ed57600080fd5b50803590602001356001600160a01b03166110ee565b6102bb6004803603608081101561041957600080fd5b8135916001600160a01b0360208201351691604082013515159190810190608081016060820135600160201b81111561045157600080fd5b82018360208201111561046357600080fd5b803590602001918460018302840111600160201b8311171561048457600080fd5b91908080601f01602080910402602001604051908101604052809392919081815260200183838082843760009201919091525092955061110e945050505050565b6104cd6113f8565b604080516001600160a01b039092168252519081900360200190f35b6102bb600480360360408110156104ff57600080fd5b81359190810190604081016020820135600160201b81111561052057600080fd5b82018360208201111561053257600080fd5b803590602001918460018302840111600160201b8311171561055357600080fd5b91908080601f016020809104026020016040519081016040528093929190818152602001838380828437600092019190915250929550611407945050505050565b6102bb600480360360408110156105aa57600080fd5b5080359060200135611602565b61016e6116c7565b6102bb600480360360408110156105d557600080fd5b810190602081018135600160201b8111156105ef57600080fd5b82018360208201111561060157600080fd5b803590602001918460018302840111600160201b8311171561062257600080fd5b91908080601f0160208091040260200160405190810160405280939291908181526020018383808284376000920191909152509295949360208101935035915050600160201b81111561067457600080fd5b82018360208201111561068657600080fd5b803590602001918460018302840111600160201b831117156106a757600080fd5b91908080601f0160208091040260200160405190810160405280939291908181526020018383808284376000920191909152509295506116ce945050505050565b610705600480360360208110156106fe57600080fd5b50356117dc565b60408051918252519081900360200190f35b61016e6117ee565b61016e6117f5565b6102bb6004803603604081101561073d57600080fd5b810190602081018135600160201b81111561075757600080fd5b82018360208201111561076957600080fd5b803590602001918460018302840111600160201b8311171561078a57600080fd5b91908080601f0160208091040260200160405190810160405280939291908181526020018383808284376000920191909152509295949360208101935035915050600160201b8111156107dc57600080fd5b8201836020820111156107ee57600080fd5b803590602001918460018302840111600160201b8311171561080f57600080fd5b91908080601f0160208091040260200160405190810160405280939291908181526020018383808284376000920191909152509295506117fc945050505050565b6107056004803603602081101561086657600080fd5b503561180e565b6104cd611820565b6102bb6004803603604081101561088b57600080fd5b62ffffff8235169190810190604081016020820135600160201b8111156108b157600080fd5b8201836020820111156108c357600080fd5b803590602001918460018302840111600160201b831117156108e457600080fd5b91908080601f01602080910402602001604051908101604052809392919081815260200183838082843760009201919091525092955061182f945050505050565b61016e611aa7565b610705611aae565b6104cd611ab4565b6201010181565b60006109548462ffffff16611ac3565b5091505060ff81166001146109b0576040805162461bcd60e51b815260206004820152601c60248201527f74686973206973206e6f7420612062616c616e6365642070726f6f6600000000604482015290519081900360640190fd5b60015460405163a2866ea360e01b815262ffffff861660048201908152336024830181905260606044840181815288516064860152885191956001600160a01b03169463a2866ea3948b94938b93919260840190602085019080838360005b83811015610a27578181015183820152602001610a0f565b50505050905090810190601f168015610a545780820380516001836020036101000a031916815260200191505b50945050505050600060405180830381600087803b158015610a7557600080fd5b505af1158015610a89573d6000803e3d6000fd5b505050506040513d6000823e601f3d908101601f191682016040526020811015610ab257600080fd5b8101908080516040519392919084600160201b821115610ad157600080fd5b908301906020820185811115610ae657600080fd5b8251600160201b811182820188101715610aff57600080fd5b82525081516020918201929091019080838360005b83811015610b2c578181015183820152602001610b14565b50505050905090810190601f168015610b595780820380516001836020036101000a031916815260200191505b506040525050509050610b6e85828587611add565b5050505050565b6201040381565b60066020526000908152604090205460ff1681565b600082826040518083838082843760408051939091018390039092206000818152600660205292909220549195505060ff161515600114159250610c1f915050576040805162461bcd60e51b815260206004820152601f60248201527f7369676e61747572652068617320616c7265616479206265656e207573656400604482015290519081900360640190fd5b6000818152600660209081526040808320805460ff19166001179055805160808101909152604280825290916124c1908301396040516020018082805190602001908083835b60208310610c845780518252601f199092019160209182019101610c65565b51815160001960209485036101000a0190811690199190911617905260408051601f1995909301838103959095018352848152825192820192909220671692d7d054d4d15560c21b85528251948590036008018520603160f81b8652835195869003600101862086840192909252858401526060850152306080808601919091528251808603909101815260a0850183528051908201207f50726f6f665369676e617475726528000000000000000000000000000000000060c08601527f627974657333322070726f6f66486173682c000000000000000000000000000060cf8601526f1859191c995cdcc81cdc195b99195c8b60821b60e18601526c189bdbdb08185c1c1c9bdd985b609a1b60f1860152602960f81b60fe860152825160df81870301815260ff9095019283905284519490910193909320929550600094508593508c91508b908083838082843760408051939091018390038320602080850198909852838201526001600160a01b038f1660608401528d15156080808501919091528151808503909101815260a08401825280519088012061190160f01b60c085015260c284019890985260e280840198909852805180840390980188526101028301808252885198880198909820610122601f8e01899004909802840188019091528b88529750600096610e9c968996509094508c93508b9283925001838280828437600092019190915250611e5f92505050565b905060005b610ee08b8b8080601f016020809104026020016040519081016040528093929190818152602001838380828437600092019190915250611fb892505050565b8110156110e0576060610f32828d8d8080601f016020809104026020016040519081016040528093929190818152602001838380828437600092019190915250929392505063ffffffff611fbf169050565b90506060610f3f8261200f565b5091925060009150505b610f5282611fb8565b8110156110a4576000610f73610f6e848463ffffffff611fbf16565b612039565b5060015460408051637f6f713360e11b81523060048201526024810184905290519294506000935083926001600160a01b039092169163fedee26691604480820192608092909190829003018186803b158015610fcf57600080fd5b505afa158015610fe3573d6000803e3d6000fd5b505050506040513d6080811015610ff957600080fd5b5080516060909101519092509050600160ff8316146110495760405162461bcd60e51b81526004018080602001828103825260228152602001806124516022913960400191505060405180910390fd5b876001600160a01b0316816001600160a01b0316146110995760405162461bcd60e51b815260040180806020018281038252602681526020018061249b6026913960400191505060405180910390fd5b505050600101610f49565b5050805160209182012060009081526003825260408082206001600160a01b038d16835290925220805460ff1916891515179055600101610ea1565b505050505050505050505050565b600360209081526000928352604080842090915290825290205460ff1681565b60015460408051637f6f713360e11b81523060048201526024810187905290516000926001600160a01b03169163fedee266916044808301926080929190829003018186803b15801561116057600080fd5b505afa158015611174573d6000803e3d6000fd5b505050506040513d608081101561118a57600080fd5b50519050600160ff8216146111d05760405162461bcd60e51b81526004018080602001828103825260228152602001806124516022913960400191505060405180910390fd5b6000826040516020018082805190602001908083835b602083106112055780518252601f1990920191602091820191016111e6565b51815160209384036101000a60001901801990921691161790526040805192909401828103601f190183528452815191810191909120600081815260069092529290205491945050600160ff9091161515141591506112ad9050576040805162461bcd60e51b815260206004820152601f60248201527f7369676e61747572652068617320616c7265616479206265656e207573656400604482015290519081900360640190fd5b8251156112ce576000818152600660205260409020805460ff191660011790555b604080517f4e6f74655369676e61747572652800000000000000000000000000000000000060208083019190915270189e5d195ccccc881b9bdd1952185cda0b607a1b602e8301526f1859191c995cdcc81cdc195b99195c8b60821b603f8301527f626f6f6c207370656e646572417070726f76616c000000000000000000000000604f830152602960f81b606383015282516044818403018152606483018452805190820120608483015260a482018990526001600160a01b03881660c483015286151560e4808401919091528351808403909101815261010490920190925280519101206113bf818886612057565b5050506000938452506003602090815260408085206001600160a01b039490941685529290529120805460ff1916911515919091179055565b6008546001600160a01b031681565b60015460408051637f6f713360e11b815230600482015260248101859052905160009283926001600160a01b039091169163fedee26691604480820192608092909190829003018186803b15801561145e57600080fd5b505afa158015611472573d6000803e3d6000fd5b505050506040513d608081101561148857600080fd5b508051606091820151604080513390941b60208581019190915260348086018a905282518087039091018152605490950182528451948101949094206000898152600486528281205482825260059096529190912054929550909350911115806114fa57506001600160a01b03821633145b801561150957508260ff166001145b6115445760405162461bcd60e51b81526004018080602001828103825260328152602001806125036032913960400191505060405180910390fd5b61154e848661217a565b61155785612203565b84826001600160a01b03167fda392cb8aa0843e7e474e7bacfae355313fc4202094b3e81d2a488b5c05207bf866040518080602001828103825283818151815260200191508051906020019080838360005b838110156115c15781810151838201526020016115a9565b50505050905090810190601f1680156115ee5780820380516001836020036101000a031916815260200191505b509250505060405180910390a35050505050565b6007546040805163e308d6ff60e01b8152306004820152602481018590526044810184905290516001600160a01b0390921691829163e308d6ff91606480830192600092919082900301818387803b15801561165d57600080fd5b505af1158015611671573d6000803e3d6000fd5b5050600754604080516001600160a01b03909216825260208201869052818101879052517fbad55d907da885e51d8382278186c32b8bf91c769ca0a40d28ddfd02580cd7d19350908190036060019150a1505050565b6201040281565b336001600160a01b03167fa72d184eae6f545449e12f3b6efb1c093d9815a2a6180bafc834555f3dab69498383604051808060200180602001838103835285818151815260200191508051906020019080838360005b8381101561173c578181015183820152602001611724565b50505050905090810190601f1680156117695780820380516001836020036101000a031916815260200191505b50838103825284518152845160209182019186019080838360005b8381101561179c578181015183820152602001611784565b50505050905090810190601f1680156117c95780820380516001836020036101000a031916815260200191505b5094505050505060405180910390a25050565b60056020526000908152604090205481565b6201040181565b6201020181565b61180a620101018383610944565b5050565b60046020526000908152604090205481565b6001546001600160a01b031681565b60608060008061183e8561200f565b88516020808b01919091206000818152600383526040808220338352909352919091205494985092965090945092509060ff16151560011461191657600061188586611fb8565b905060005b818110156119135760006118a7610f6e898463ffffffff611fbf16565b50600081815260036020908152604080832033845290915290205490925060ff161515600114905061190a5760405162461bcd60e51b81526004018080602001828103825260318152602001806125936031913960400191505060405180910390fd5b5060010161188a565b50505b600154604051634bbbcb6960e11b815262ffffff89166004820190815233604483018190526060602484019081528a5160648501528a516001600160a01b039095169463977796d2948d948d94939092909160840190602086019080838360005b8381101561198f578181015183820152602001611977565b50505050905090810190601f1680156119bc5780820380516001836020036101000a031916815260200191505b50945050505050600060405180830381600087803b1580156119dd57600080fd5b505af11580156119f1573d6000803e3d6000fd5b505050506119fe85612216565b611a0784612285565b6000821215611a5557826001600160a01b03167ffed3b27b73d78d9d1f344bbbf25f7af35e0ac4d6cf8193604ce18082168e461a836000036040518082815260200191505060405180910390a25b6000821315611a9e576040805183815290516001600160a01b038516917f60213c45c34d8b94e495fd5871fdea7a7511f659e884ea25a0c8843b7f98bfad919081900360200190a25b50505050505050565b6201030181565b60005481565b6002546001600160a01b031681565b60ff62010000820481169261010083048216929190911690565b604081015160005b611aee85611fb8565b811015611e57576060611b07868363ffffffff611fbf16565b600154604051634bbbcb6960e11b815262ffffff8a166004820190815230604483018190526060602484019081528551606485015285519596506001600160a01b039094169463977796d2948d94889492608490910190602086019080838360005b83811015611b81578181015183820152602001611b69565b50505050905090810190601f168015611bae5780820380516001836020036101000a031916815260200191505b50945050505050600060405180830381600087803b158015611bcf57600080fd5b505af1158015611be3573d6000803e3d6000fd5b50505050606080600080611bf68561200f565b93509350935093506000611c0985611fb8565b1115611d9e5760005b611c1b85611fb8565b811015611d9c576060611c2e8b83612378565b90506000611c45610f6e888563ffffffff611fbf16565b50915050600060405160200180807f4a6f696e53706c69745369676e61747572652800000000000000000000000000815250601301806c1d5a5b9d0c8d081c1c9bdbd98b609a1b815250600d018070189e5d195ccccc881b9bdd1952185cda0b607a1b815250601101807f75696e74323536206368616c6c656e67652c0000000000000000000000000000815250601201807f616464726573732073656e646572000000000000000000000000000000000000815250600e0180602960f81b8152506001019050604051602081830303815290604052805190602001208f838d33604051602001808681526020018562ffffff1662ffffff168152602001848152602001838152602001826001600160a01b03166001600160a01b0316815260200195505050505050604051602081830303815290604052805190602001209050611d91818385612057565b505050600101611c12565b505b611da784612216565b611db083612285565b6000811215611dfe57816001600160a01b03167ffed3b27b73d78d9d1f344bbbf25f7af35e0ac4d6cf8193604ce18082168e461a826000036040518082815260200191505060405180910390a25b6000811315611e47576040805182815290516001600160a01b038416917f60213c45c34d8b94e495fd5871fdea7a7511f659e884ea25a0c8843b7f98bfad919081900360200190a25b5050505050600181019050611ae5565b505050505050565b6000808251848452606084015160408501518160f81c9150604086015160608701526020860151604087015281602087015260208660808860015afa601c8314601b84141760418514167f7fffffffffffffffffffffffffffffff5d576e7357a4501ddfe92f46681b20a08310161693508551871460008114611ee157611ee6565b865195505b5050508352808015611f0057506001600160a01b03821615155b611fb1576001600160a01b038216611f5f576040805162461bcd60e51b815260206004820152601a60248201527f7369676e657220616464726573732063616e6e6f742062652030000000000000604482015290519081900360640190fd5b80611fb1576040805162461bcd60e51b815260206004820152601960248201527f7369676e6174757265207265636f76657279206661696c656400000000000000604482015290519081900360640190fd5b5092915050565b6020015190565b602082810151908202830160400151830190821080611fb15760405162461bcd60e51b81526004018080602001828103825260228152602001806125c46022913960400191505060405180910390fd5b60208101516040820151606083015160808401519284019491909301926001600160a01b03169190565b604081015160608201516001600160a01b0390911692909160800190565b60015460408051637f6f713360e11b81523060048201526024810185905290516000926001600160a01b03169163fedee266916044808301926080929190829003018186803b1580156120a957600080fd5b505afa1580156120bd573d6000803e3d6000fd5b505050506040513d60808110156120d357600080fd5b50606001518251909150600090158015906120f757506001600160a01b0382163314155b15612117576000612107866123e0565b90506121138185611e5f565b9150505b816001600160a01b0316816001600160a01b0316148061213f57506001600160a01b03821633145b610b6e5760405162461bcd60e51b81526004018080602001828103825260288152602001806124736028913960400191505060405180910390fd5b815160e183015160618211156121fd5760005b81811015610b6e5760006121a18683612401565b6040805160609290921b6bffffffffffffffffffffffff1916602080840191909152603480840189905282518085039091018152605490930182528251928101929092206000908152600590925290204290555060010161218d565b50505050565b6000908152600460205260409020429055565b60005b61222282611fb8565b81101561180a5760008061223f610f6e858563ffffffff611fbf16565b509150915080826001600160a01b03167f979308e20fbd28822c4526e85d528175e04e3ca0cf91c46301db34401a26a8c660405160405180910390a35050600101612219565b60005b61229182611fb8565b81101561180a5760008060606122b0610f6e868663ffffffff611fbf16565b9250925092506122bf82612203565b6122c9818361217a565b81836001600160a01b03167f5ffb3072e4515cf3bfae8b16be9dff6313cf7c313a0c26faafe6971d8c7585f1836040518080602001828103825283818151815260200191508051906020019080838360005b8381101561233357818101518382015260200161231b565b50505050905090810190601f1680156123605780820380516001836020036101000a031916815260200191505b509250505060405180910390a3505050600101612288565b60419081029190910160208181015160408084015193850151815193840192909252828101939093527fff0000000000000000000000000000000000000000000000000000000000000060f89190911b16606082015281518082039093018352606101905290565b60008054604080516119019093526020919091529182526042601e20915290565b6020828101519082028301610101015190808310611fb15760405162461bcd60e51b815260040180806020018281038252605e815260200180612535605e913960600191505060405180910390fdfe6f6e6c7920756e7370656e74206e6f7465732063616e20626520617070726f766564746865206e6f7465206f776e657220646964206e6f74207369676e2074686973206d657373616765746865206e6f7465206f776e657220646964206e6f74207369676e20746869732070726f6f66454950373132446f6d61696e28737472696e67206e616d652c737472696e672076657273696f6e2c6164647265737320766572696679696e67436f6e74726163742963616c6c657220646f6573206e6f742068617665207065726d697373696f6e20746f20757064617465206d6574614461746161646472657373506f73206f7574206f6620626f756e6473202d2061646472657373506f73206d757374206265206c657373207468616e20746865206e756d626572206f662061646472657373657320746f20626520617070726f76656473656e64657220646f6573206e6f74206861766520617070726f76616c20746f207370656e6420696e707574206e6f7465415a54454320617272617920696e646578206973206f7574206f6620626f756e6473a265627a7a7231582014b4f0b74743339296b8625f2315b0919d8c9cdf2e8f21e4204ed03c5280bf4a64736f6c63430005110032c89efdaa54c0f20c7adf612882df0950f5a951637e0307cdcb4c672f298b8bc6",
  "source": "pragma solidity >= 0.5.0 <0.7.0;\n\nimport \"./ZkAsset.sol\";\nimport \"@aztec/protocol/contracts/ACE/ACE.sol\";\n\ncontract ZKERC20 is ZkAsset {\n\n  event Log(address owner, uint256 value, bytes32 noteHash);\n  event LogString(string value);\n  address aceAddress;\n  address public erc20Address;\n\n  constructor(\n    address _aceAddress,\n    address _erc20Address\n   ) public ZkAsset(_aceAddress, address(_erc20Address), 1000000000000000) {\n     aceAddress = _aceAddress;\n     erc20Address = _erc20Address;\n  }\n\n  function approveAceToSpendTokens(bytes32 _proofHash, uint256 _value) public {\n\n    ACE aceContract = ACE(aceAddress);\n    aceContract.publicApprove(address(this), _proofHash, _value);\n    emit Log(aceAddress, _value, _proofHash);\n  }\n\n}\n",
  "sourcePath": "/Users/patricio/workspace/research/privacy/aztec/smart-wallet-react/contracts/aztec/contracts/aztec/ZKERC20.sol",
  "compiler": {
    "name": "solc",
    "version": "0.5.17+commit.d19bba13.Emscripten.clang"
  },
  "schemaVersion": "3.4.3",
  "updatedAt": "2022-02-07T19:14:39.608Z",
  "devdoc": {
    "methods": {
      "approveProof(uint24,bytes,address,bool,bytes)": {
        "details": "Note owner can approve a third party address, such as a smart contract, to spend a proof on their behalf. This allows a batch approval of notes to be performed, rather than individually for each note via confidentialApprove().",
        "params": {
          "_proofId": "- id of proof to be approved. Needs to be a balanced proof.",
          "_proofOutputs": "- data of proof",
          "_proofSignature": "- ECDSA signature over the proof, approving it to be spent",
          "_spender": "- address being approved to spend the notes"
        }
      },
      "confidentialApprove(bytes32,address,bool,bytes)": {
        "details": "Note owner approving a third party, another address, to spend the note on owner's behalf. This is necessary to allow the confidentialTransferFrom() method to be called",
        "params": {
          "_noteHash": "- keccak256 hash of the note coordinates (gamma and sigma)",
          "_signature": "- ECDSA signature from the note owner that validates the confidentialApprove() instruction",
          "_spender": "- address being approved to spend the note",
          "_spenderApproval": "- defines whether the _spender address is being approved to spend the note, or if permission is being revoked. True if approved, false if not approved"
        }
      },
      "confidentialTransfer(bytes,bytes)": {
        "details": "Executes a basic unilateral, confidential transfer of AZTEC notes Will submit _proofData to the validateProof() function of the Cryptography Engine.    * Upon successfull verification, it will update note registry state - creating output notes and destroying input notes.",
        "params": {
          "_proofData": "- bytes variable outputted from a proof verification contract, representing transfer instructions for the IACE",
          "_signatures": "- array of the ECDSA signatures over all inputNotes"
        }
      },
      "confidentialTransfer(uint24,bytes,bytes)": {
        "details": "Executes a basic unilateral, confidential transfer of AZTEC notes Will submit _proofData to the validateProof() function of the Cryptography Engine.    * Upon successfull verification, it will update note registry state - creating output notes and destroying input notes.",
        "params": {
          "_proofData": "- bytes variable outputted from a proof verification contract, representing transfer instructions for the IACE",
          "_proofId": "- id of proof to be validated. Needs to be a balanced proof.",
          "_signatures": "- array of the ECDSA signatures over all inputNotes"
        }
      },
      "confidentialTransferFrom(uint24,bytes)": {
        "details": "Executes a value transfer mediated by smart contracts. The method is supplied with transfer instructions represented by a bytes _proofOutput argument that was outputted from a proof verification contract.",
        "params": {
          "_proof": "- uint24 variable which acts as a unique identifier for the proof which _proofOutput is being submitted. _proof contains three concatenated uint8 variables: 1) epoch number 2) category number 3) ID number for the proof",
          "_proofOutput": "- output of a zero-knowledge proof validation contract. Represents transfer instructions for the IACE"
        }
      },
      "setEncryptionPK(bytes,bytes)": {
        "details": "Used to publish the PK for encrypt msg. Since the encryption PK is diff from the main PK.  (could be the same but not best practice). As we are using theGraphQl, emiting as an event is a good way of indexing this.",
        "params": {
          "encryptionPK": "- the encryption PK"
        }
      },
      "updateNoteMetaData(bytes32,bytes)": {
        "details": "Update the metadata of a note that already exists in storage.",
        "params": {
          "metaData": "- metadata to update the note with",
          "noteHash": "- hash of a note, used as a unique identifier for the note"
        }
      }
    }
  },
  "userdoc": {
    "methods": {}
  }
}