{
  "contractName": "ZKERC20",
  "abi": [
    {
      "inputs": [
        {
          "internalType": "address",
          "name": "_aceAddress",
          "type": "address"
        },
        {
          "internalType": "address",
          "name": "_erc20Address",
          "type": "address"
        }
      ],
      "payable": false,
      "stateMutability": "nonpayable",
      "type": "constructor"
    },
    {
      "anonymous": false,
      "inputs": [
        {
          "indexed": true,
          "internalType": "address",
          "name": "owner",
          "type": "address"
        },
        {
          "indexed": false,
          "internalType": "uint256",
          "name": "value",
          "type": "uint256"
        }
      ],
      "name": "ConvertTokens",
      "type": "event"
    },
    {
      "anonymous": false,
      "inputs": [
        {
          "indexed": true,
          "internalType": "address",
          "name": "owner",
          "type": "address"
        },
        {
          "indexed": true,
          "internalType": "bytes32",
          "name": "noteHash",
          "type": "bytes32"
        },
        {
          "indexed": false,
          "internalType": "bytes",
          "name": "metadata",
          "type": "bytes"
        }
      ],
      "name": "CreateNote",
      "type": "event"
    },
    {
      "anonymous": false,
      "inputs": [
        {
          "indexed": false,
          "internalType": "uint256",
          "name": "noteRegistryId",
          "type": "uint256"
        }
      ],
      "name": "CreateNoteRegistry",
      "type": "event"
    },
    {
      "anonymous": false,
      "inputs": [
        {
          "indexed": true,
          "internalType": "address",
          "name": "aceAddress",
          "type": "address"
        },
        {
          "indexed": true,
          "internalType": "address",
          "name": "linkedTokenAddress",
          "type": "address"
        },
        {
          "indexed": false,
          "internalType": "uint256",
          "name": "scalingFactor",
          "type": "uint256"
        },
        {
          "indexed": true,
          "internalType": "bool",
          "name": "_canAdjustSupply",
          "type": "bool"
        },
        {
          "indexed": false,
          "internalType": "bool",
          "name": "_canConvert",
          "type": "bool"
        }
      ],
      "name": "CreateZkAsset",
      "type": "event"
    },
    {
      "anonymous": false,
      "inputs": [
        {
          "indexed": true,
          "internalType": "address",
          "name": "owner",
          "type": "address"
        },
        {
          "indexed": true,
          "internalType": "bytes32",
          "name": "noteHash",
          "type": "bytes32"
        }
      ],
      "name": "DestroyNote",
      "type": "event"
    },
    {
      "anonymous": false,
      "inputs": [
        {
          "indexed": false,
          "internalType": "address",
          "name": "owner",
          "type": "address"
        },
        {
          "indexed": false,
          "internalType": "uint256",
          "name": "value",
          "type": "uint256"
        },
        {
          "indexed": false,
          "internalType": "bytes32",
          "name": "noteHash",
          "type": "bytes32"
        }
      ],
      "name": "Log",
      "type": "event"
    },
    {
      "anonymous": false,
      "inputs": [
        {
          "indexed": false,
          "internalType": "string",
          "name": "value",
          "type": "string"
        }
      ],
      "name": "LogString",
      "type": "event"
    },
    {
      "anonymous": false,
      "inputs": [
        {
          "indexed": true,
          "internalType": "address",
          "name": "owner",
          "type": "address"
        },
        {
          "indexed": false,
          "internalType": "uint256",
          "name": "value",
          "type": "uint256"
        }
      ],
      "name": "RedeemTokens",
      "type": "event"
    },
    {
      "anonymous": false,
      "inputs": [
        {
          "indexed": true,
          "internalType": "address",
          "name": "owner",
          "type": "address"
        },
        {
          "indexed": true,
          "internalType": "bytes32",
          "name": "noteHash",
          "type": "bytes32"
        },
        {
          "indexed": false,
          "internalType": "bytes",
          "name": "metadata",
          "type": "bytes"
        }
      ],
      "name": "UpdateNoteMetaData",
      "type": "event"
    },
    {
      "constant": true,
      "inputs": [],
      "name": "BURN_PROOF",
      "outputs": [
        {
          "internalType": "uint24",
          "name": "",
          "type": "uint24"
        }
      ],
      "payable": false,
      "stateMutability": "view",
      "type": "function"
    },
    {
      "constant": true,
      "inputs": [],
      "name": "DIVIDEND_PROOF",
      "outputs": [
        {
          "internalType": "uint24",
          "name": "",
          "type": "uint24"
        }
      ],
      "payable": false,
      "stateMutability": "view",
      "type": "function"
    },
    {
      "constant": true,
      "inputs": [],
      "name": "EIP712_DOMAIN_HASH",
      "outputs": [
        {
          "internalType": "bytes32",
          "name": "",
          "type": "bytes32"
        }
      ],
      "payable": false,
      "stateMutability": "view",
      "type": "function"
    },
    {
      "constant": true,
      "inputs": [],
      "name": "JOIN_SPLIT_PROOF",
      "outputs": [
        {
          "internalType": "uint24",
          "name": "",
          "type": "uint24"
        }
      ],
      "payable": false,
      "stateMutability": "view",
      "type": "function"
    },
    {
      "constant": true,
      "inputs": [],
      "name": "MINT_PROOF",
      "outputs": [
        {
          "internalType": "uint24",
          "name": "",
          "type": "uint24"
        }
      ],
      "payable": false,
      "stateMutability": "view",
      "type": "function"
    },
    {
      "constant": true,
      "inputs": [],
      "name": "PRIVATE_RANGE_PROOF",
      "outputs": [
        {
          "internalType": "uint24",
          "name": "",
          "type": "uint24"
        }
      ],
      "payable": false,
      "stateMutability": "view",
      "type": "function"
    },
    {
      "constant": true,
      "inputs": [],
      "name": "PUBLIC_RANGE_PROOF",
      "outputs": [
        {
          "internalType": "uint24",
          "name": "",
          "type": "uint24"
        }
      ],
      "payable": false,
      "stateMutability": "view",
      "type": "function"
    },
    {
      "constant": true,
      "inputs": [],
      "name": "ace",
      "outputs": [
        {
          "internalType": "contract IACE",
          "name": "",
          "type": "address"
        }
      ],
      "payable": false,
      "stateMutability": "view",
      "type": "function"
    },
    {
      "constant": false,
      "inputs": [
        {
          "internalType": "uint24",
          "name": "_proofId",
          "type": "uint24"
        },
        {
          "internalType": "bytes",
          "name": "_proofOutputs",
          "type": "bytes"
        },
        {
          "internalType": "address",
          "name": "_spender",
          "type": "address"
        },
        {
          "internalType": "bool",
          "name": "_approval",
          "type": "bool"
        },
        {
          "internalType": "bytes",
          "name": "_proofSignature",
          "type": "bytes"
        }
      ],
      "name": "approveProof",
      "outputs": [],
      "payable": false,
      "stateMutability": "nonpayable",
      "type": "function"
    },
    {
      "constant": false,
      "inputs": [
        {
          "internalType": "bytes32",
          "name": "_noteHash",
          "type": "bytes32"
        },
        {
          "internalType": "address",
          "name": "_spender",
          "type": "address"
        },
        {
          "internalType": "bool",
          "name": "_spenderApproval",
          "type": "bool"
        },
        {
          "internalType": "bytes",
          "name": "_signature",
          "type": "bytes"
        }
      ],
      "name": "confidentialApprove",
      "outputs": [],
      "payable": false,
      "stateMutability": "nonpayable",
      "type": "function"
    },
    {
      "constant": true,
      "inputs": [
        {
          "internalType": "bytes32",
          "name": "",
          "type": "bytes32"
        },
        {
          "internalType": "address",
          "name": "",
          "type": "address"
        }
      ],
      "name": "confidentialApproved",
      "outputs": [
        {
          "internalType": "bool",
          "name": "",
          "type": "bool"
        }
      ],
      "payable": false,
      "stateMutability": "view",
      "type": "function"
    },
    {
      "constant": false,
      "inputs": [
        {
          "internalType": "uint24",
          "name": "_proofId",
          "type": "uint24"
        },
        {
          "internalType": "bytes",
          "name": "_proofData",
          "type": "bytes"
        },
        {
          "internalType": "bytes",
          "name": "_signatures",
          "type": "bytes"
        }
      ],
      "name": "confidentialTransfer",
      "outputs": [],
      "payable": false,
      "stateMutability": "nonpayable",
      "type": "function"
    },
    {
      "constant": false,
      "inputs": [
        {
          "internalType": "bytes",
          "name": "_proofData",
          "type": "bytes"
        },
        {
          "internalType": "bytes",
          "name": "_signatures",
          "type": "bytes"
        }
      ],
      "name": "confidentialTransfer",
      "outputs": [],
      "payable": false,
      "stateMutability": "nonpayable",
      "type": "function"
    },
    {
      "constant": false,
      "inputs": [
        {
          "internalType": "uint24",
          "name": "_proof",
          "type": "uint24"
        },
        {
          "internalType": "bytes",
          "name": "_proofOutput",
          "type": "bytes"
        }
      ],
      "name": "confidentialTransferFrom",
      "outputs": [],
      "payable": false,
      "stateMutability": "nonpayable",
      "type": "function"
    },
    {
      "constant": true,
      "inputs": [],
      "name": "erc20Address",
      "outputs": [
        {
          "internalType": "address",
          "name": "",
          "type": "address"
        }
      ],
      "payable": false,
      "stateMutability": "view",
      "type": "function"
    },
    {
      "constant": true,
      "inputs": [],
      "name": "linkedToken",
      "outputs": [
        {
          "internalType": "contract IERC20Mintable",
          "name": "",
          "type": "address"
        }
      ],
      "payable": false,
      "stateMutability": "view",
      "type": "function"
    },
    {
      "constant": true,
      "inputs": [
        {
          "internalType": "bytes32",
          "name": "",
          "type": "bytes32"
        }
      ],
      "name": "metaDataTimeLog",
      "outputs": [
        {
          "internalType": "uint256",
          "name": "",
          "type": "uint256"
        }
      ],
      "payable": false,
      "stateMutability": "view",
      "type": "function"
    },
    {
      "constant": true,
      "inputs": [
        {
          "internalType": "bytes32",
          "name": "",
          "type": "bytes32"
        }
      ],
      "name": "noteAccess",
      "outputs": [
        {
          "internalType": "uint256",
          "name": "",
          "type": "uint256"
        }
      ],
      "payable": false,
      "stateMutability": "view",
      "type": "function"
    },
    {
      "constant": true,
      "inputs": [
        {
          "internalType": "bytes32",
          "name": "",
          "type": "bytes32"
        }
      ],
      "name": "signatureLog",
      "outputs": [
        {
          "internalType": "bool",
          "name": "",
          "type": "bool"
        }
      ],
      "payable": false,
      "stateMutability": "view",
      "type": "function"
    },
    {
      "constant": false,
      "inputs": [
        {
          "internalType": "bytes32",
          "name": "noteHash",
          "type": "bytes32"
        },
        {
          "internalType": "bytes",
          "name": "metaData",
          "type": "bytes"
        }
      ],
      "name": "updateNoteMetaData",
      "outputs": [],
      "payable": false,
      "stateMutability": "nonpayable",
      "type": "function"
    },
    {
      "constant": false,
      "inputs": [
        {
          "internalType": "bytes32",
          "name": "_proofHash",
          "type": "bytes32"
        },
        {
          "internalType": "uint256",
          "name": "_value",
          "type": "uint256"
        }
      ],
      "name": "approveAceToSpendTokens",
      "outputs": [],
      "payable": false,
      "stateMutability": "nonpayable",
      "type": "function"
    },
    {
      "constant": false,
      "inputs": [
        {
          "internalType": "bytes",
          "name": "_proofData",
          "type": "bytes"
        },
        {
          "internalType": "bytes",
          "name": "_signatures",
          "type": "bytes"
        }
      ],
      "name": "confidentialTransferSmartWallet",
      "outputs": [],
      "payable": false,
      "stateMutability": "nonpayable",
      "type": "function"
    },
    {
      "constant": false,
      "inputs": [
        {
          "internalType": "uint24",
          "name": "_proofId",
          "type": "uint24"
        },
        {
          "internalType": "bytes",
          "name": "_proofData",
          "type": "bytes"
        },
        {
          "internalType": "bytes",
          "name": "_signatures",
          "type": "bytes"
        }
      ],
      "name": "confidentialTransferSmartWallet",
      "outputs": [],
      "payable": false,
      "stateMutability": "nonpayable",
      "type": "function"
    }
  ],
  "bytecode": "0x60806040523480156200001157600080fd5b50604051620031c6380380620031c6833981810160405260408110156200003757600080fd5b508051602091820151604080516c08a92a06e626488dedac2d2dc5609b1b818601526b1cdd1c9a5b99c81b985b594b60a21b602d8201526e1cdd1c9a5b99c81d995c9cda5bdb8b608a1b60398201527f6164647265737320766572696679696e67436f6e7472616374000000000000006048820152602960f81b6061820152815160428183030181526062820180845281519187019190912060a28301845260199091527f415a5445435f43525950544f4752415048595f454e47494e4500000000000000608290920191909152815180830183526001808252603160f81b918701919091528251808701929092527fc8066e2c715ce196630b273cd256d8959d5b9fefc55e9e6d999fb0f08bb7f75f82840152600080516020620031a68339815191526060830152306080808401919091528351808403909101815260a0909201909252805194019390932060009081559192909183918391839083908390806001600160a01b03841615620001b0576001620001b3565b60005b604080516c08a92a06e626488dedac2d2dc5609b1b6020808301919091526b1cdd1c9a5b99c81b985b594b60a21b602d8301526e1cdd1c9a5b99c81d995c9cda5bdb8b608a1b60398301527f6164647265737320766572696679696e67436f6e7472616374000000000000006048830152602960f81b6061830152825160428184030181526062830180855281519183019190912060a2840185526008909152671692d7d054d4d15560c21b608290930192909252825180840184526001808252603160f81b918301919091528351808301939093527f34a1782c7b6da6ed013d1c63b38e9a7204574db51f6df9ff13aa1786590013fd83850152600080516020620031a68339815191526060840152306080808501919091528451808503909101815260a0840180865281519190930120600090815581546001600160a01b038c81166001600160a01b03199283161793849055600280548d83169316831790556352a3465160e11b90945260a485015260c4840189905287151560e48501528515156101048501529351949550169263a5468ca2926101248084019391929182900301818387803b1580156200036a57600080fd5b505af11580156200037f573d6000803e3d6000fd5b5050604080518681528415156020820152815186151594506001600160a01b03808a1694508a16927fca576e79bcb5c4a0045d9d596a80c733c3997559f688f69e5c03bd737d885b86928290030190a45050600780546001600160a01b03998a166001600160a01b0319918216179091556008805498909916971696909617909655505050505050612d8f80620004176000396000f3fe608060405234801561001057600080fd5b506004361061017c5760003560e01c80633de59d4c116100e3578063985cd3b71161008c578063df92462511610066578063df92462514610a75578063e306f77914610a7d578063ea12489f14610a855761017c565b8063985cd3b7146109a0578063a5c8fa84146109bd578063cdfea90e146109c55761017c565b80638500e1f8116100bd5780638500e1f8146108675780638e526d9b1461086f57806396988498146108775761017c565b80633de59d4c1461080d57806349518b281461083057806384a26fc8146108385761017c565b80630f4a80fe11610145578063276184ae1161011f578063276184ae146106095780632ae4e2cc1461062d5780632e3b9a3b146107625761017c565b80630f4a80fe146103f25780631f2ac16a1461041e578063227f317b146104e05761017c565b80625bf7321461018157806302d1fdc9146101a157806308ae900a146102d857806309146c7c146102e05780630a60305a14610311575b600080fd5b610189610a8d565b6040805162ffffff9092168252519081900360200190f35b6102d6600480360360608110156101b757600080fd5b62ffffff8235169190810190604081016020820135600160201b8111156101dd57600080fd5b8201836020820111156101ef57600080fd5b803590602001918460018302840111600160201b8311171561021057600080fd5b91908080601f0160208091040260200160405190810160405280939291908181526020018383808284376000920191909152509295949360208101935035915050600160201b81111561026257600080fd5b82018360208201111561027457600080fd5b803590602001918460018302840111600160201b8311171561029557600080fd5b91908080601f016020809104026020016040519081016040528093929190818152602001838380828437600092019190915250929550610a94945050505050565b005b610189610cc5565b6102fd600480360360208110156102f657600080fd5b5035610ccc565b604080519115158252519081900360200190f35b6102d6600480360360a081101561032757600080fd5b62ffffff8235169190810190604081016020820135600160201b81111561034d57600080fd5b82018360208201111561035f57600080fd5b803590602001918460018302840111600160201b8311171561038057600080fd5b919390926001600160a01b038335169260208101351515929190606081019060400135600160201b8111156103b457600080fd5b8201836020820111156103c657600080fd5b803590602001918460018302840111600160201b831117156103e757600080fd5b509092509050610ce1565b6102fd6004803603604081101561040857600080fd5b50803590602001356001600160a01b031661123e565b6102d66004803603608081101561043457600080fd5b8135916001600160a01b0360208201351691604082013515159190810190608081016060820135600160201b81111561046c57600080fd5b82018360208201111561047e57600080fd5b803590602001918460018302840111600160201b8311171561049f57600080fd5b91908080601f01602080910402602001604051908101604052809392919081815260200183838082843760009201919091525092955061125e945050505050565b6102d6600480360360408110156104f657600080fd5b810190602081018135600160201b81111561051057600080fd5b82018360208201111561052257600080fd5b803590602001918460018302840111600160201b8311171561054357600080fd5b91908080601f0160208091040260200160405190810160405280939291908181526020018383808284376000920191909152509295949360208101935035915050600160201b81111561059557600080fd5b8201836020820111156105a757600080fd5b803590602001918460018302840111600160201b831117156105c857600080fd5b91908080601f016020809104026020016040519081016040528093929190818152602001838380828437600092019190915250929550611548945050505050565b61061161155a565b604080516001600160a01b039092168252519081900360200190f35b6102d66004803603606081101561064357600080fd5b62ffffff8235169190810190604081016020820135600160201b81111561066957600080fd5b82018360208201111561067b57600080fd5b803590602001918460018302840111600160201b8311171561069c57600080fd5b91908080601f0160208091040260200160405190810160405280939291908181526020018383808284376000920191909152509295949360208101935035915050600160201b8111156106ee57600080fd5b82018360208201111561070057600080fd5b803590602001918460018302840111600160201b8311171561072157600080fd5b91908080601f016020809104026020016040519081016040528093929190818152602001838380828437600092019190915250929550611569945050505050565b6102d66004803603604081101561077857600080fd5b81359190810190604081016020820135600160201b81111561079957600080fd5b8201836020820111156107ab57600080fd5b803590602001918460018302840111600160201b831117156107cc57600080fd5b91908080601f016020809104026020016040519081016040528093929190818152602001838380828437600092019190915250929550611793945050505050565b6102d66004803603604081101561082357600080fd5b508035906020013561198e565b610189611a53565b6108556004803603602081101561084e57600080fd5b5035611a5a565b60408051918252519081900360200190f35b610189611a6c565b610189611a73565b6102d66004803603604081101561088d57600080fd5b810190602081018135600160201b8111156108a757600080fd5b8201836020820111156108b957600080fd5b803590602001918460018302840111600160201b831117156108da57600080fd5b91908080601f0160208091040260200160405190810160405280939291908181526020018383808284376000920191909152509295949360208101935035915050600160201b81111561092c57600080fd5b82018360208201111561093e57600080fd5b803590602001918460018302840111600160201b8311171561095f57600080fd5b91908080601f016020809104026020016040519081016040528093929190818152602001838380828437600092019190915250929550611a7a945050505050565b610855600480360360208110156109b657600080fd5b5035611a88565b610611611a9a565b6102d6600480360360408110156109db57600080fd5b62ffffff8235169190810190604081016020820135600160201b811115610a0157600080fd5b820183602082011115610a1357600080fd5b803590602001918460018302840111600160201b83111715610a3457600080fd5b91908080601f016020809104026020016040519081016040528093929190818152602001838380828437600092019190915250929550611aa9945050505050565b610189611d21565b610855611d28565b610611611d2e565b6201010181565b6000610aa48462ffffff16611d3d565b5091505060ff8116600114610b00576040805162461bcd60e51b815260206004820152601c60248201527f74686973206973206e6f7420612062616c616e6365642070726f6f6600000000604482015290519081900360640190fd5b60015460405163a2866ea360e01b815262ffffff861660048201908152336024830181905260606044840181815288516064860152885191956001600160a01b03169463a2866ea3948b94938b93919260840190602085019080838360005b83811015610b77578181015183820152602001610b5f565b50505050905090810190601f168015610ba45780820380516001836020036101000a031916815260200191505b50945050505050600060405180830381600087803b158015610bc557600080fd5b505af1158015610bd9573d6000803e3d6000fd5b505050506040513d6000823e601f3d908101601f191682016040526020811015610c0257600080fd5b8101908080516040519392919084600160201b821115610c2157600080fd5b908301906020820185811115610c3657600080fd5b8251600160201b811182820188101715610c4f57600080fd5b82525081516020918201929091019080838360005b83811015610c7c578181015183820152602001610c64565b50505050905090810190601f168015610ca95780820380516001836020036101000a031916815260200191505b506040525050509050610cbe85828587611d57565b5050505050565b6201040381565b60066020526000908152604090205460ff1681565b600082826040518083838082843760408051939091018390039092206000818152600660205292909220549195505060ff161515600114159250610d6f915050576040805162461bcd60e51b815260206004820152601f60248201527f7369676e61747572652068617320616c7265616479206265656e207573656400604482015290519081900360640190fd5b6000818152600660209081526040808320805460ff1916600117905580516080810190915260428082529091612bb4908301396040516020018082805190602001908083835b60208310610dd45780518252601f199092019160209182019101610db5565b51815160001960209485036101000a0190811690199190911617905260408051601f1995909301838103959095018352848152825192820192909220671692d7d054d4d15560c21b85528251948590036008018520603160f81b8652835195869003600101862086840192909252858401526060850152306080808601919091528251808603909101815260a0850183528051908201207f50726f6f665369676e617475726528000000000000000000000000000000000060c08601527f627974657333322070726f6f66486173682c000000000000000000000000000060cf8601526f1859191c995cdcc81cdc195b99195c8b60821b60e18601526c189bdbdb08185c1c1c9bdd985b609a1b60f1860152602960f81b60fe860152825160df81870301815260ff9095019283905284519490910193909320929550600094508593508c91508b908083838082843760408051939091018390038320602080850198909852838201526001600160a01b038f1660608401528d15156080808501919091528151808503909101815260a08401825280519088012061190160f01b60c085015260c284019890985260e280840198909852805180840390980188526101028301808252885198880198909820610122601f8e01899004909802840188019091528b88529750600096610fec968996509094508c93508b92839250018382808284376000920191909152506120b592505050565b905060005b6110308b8b8080601f01602080910402602001604051908101604052809392919081815260200183838082843760009201919091525061220e92505050565b811015611230576060611082828d8d8080601f016020809104026020016040519081016040528093929190818152602001838380828437600092019190915250929392505063ffffffff612215169050565b9050606061108f82612265565b5091925060009150505b6110a28261220e565b8110156111f45760006110c36110be848463ffffffff61221516565b61228f565b5060015460408051637f6f713360e11b81523060048201526024810184905290519294506000935083926001600160a01b039092169163fedee26691604480820192608092909190829003018186803b15801561111f57600080fd5b505afa158015611133573d6000803e3d6000fd5b505050506040513d608081101561114957600080fd5b5080516060909101519092509050600160ff8316146111995760405162461bcd60e51b8152600401808060200182810382526022815260200180612b446022913960400191505060405180910390fd5b876001600160a01b0316816001600160a01b0316146111e95760405162461bcd60e51b8152600401808060200182810382526026815260200180612b8e6026913960400191505060405180910390fd5b505050600101611099565b5050805160209182012060009081526003825260408082206001600160a01b038d16835290925220805460ff1916891515179055600101610ff1565b505050505050505050505050565b600360209081526000928352604080842090915290825290205460ff1681565b60015460408051637f6f713360e11b81523060048201526024810187905290516000926001600160a01b03169163fedee266916044808301926080929190829003018186803b1580156112b057600080fd5b505afa1580156112c4573d6000803e3d6000fd5b505050506040513d60808110156112da57600080fd5b50519050600160ff8216146113205760405162461bcd60e51b8152600401808060200182810382526022815260200180612b446022913960400191505060405180910390fd5b6000826040516020018082805190602001908083835b602083106113555780518252601f199092019160209182019101611336565b51815160209384036101000a60001901801990921691161790526040805192909401828103601f190183528452815191810191909120600081815260069092529290205491945050600160ff9091161515141591506113fd9050576040805162461bcd60e51b815260206004820152601f60248201527f7369676e61747572652068617320616c7265616479206265656e207573656400604482015290519081900360640190fd5b82511561141e576000818152600660205260409020805460ff191660011790555b604080517f4e6f74655369676e61747572652800000000000000000000000000000000000060208083019190915270189e5d195ccccc881b9bdd1952185cda0b607a1b602e8301526f1859191c995cdcc81cdc195b99195c8b60821b603f8301527f626f6f6c207370656e646572417070726f76616c000000000000000000000000604f830152602960f81b606383015282516044818403018152606483018452805190820120608483015260a482018990526001600160a01b03881660c483015286151560e48084019190915283518084039091018152610104909201909252805191012061150f8188866122ad565b5050506000938452506003602090815260408085206001600160a01b039490941685529290529120805460ff1916911515919091179055565b611556620101018383611569565b5050565b6008546001600160a01b031681565b60006115798462ffffff16611d3d565b5091505060ff81166001146115d5576040805162461bcd60e51b815260206004820152601c60248201527f74686973206973206e6f7420612062616c616e6365642070726f6f6600000000604482015290519081900360640190fd5b60015460405163a2866ea360e01b815262ffffff861660048201908152336024830181905260606044840181815288516064860152885191956001600160a01b03169463a2866ea3948b94938b93919260840190602085019080838360005b8381101561164c578181015183820152602001611634565b50505050905090810190601f1680156116795780820380516001836020036101000a031916815260200191505b50945050505050600060405180830381600087803b15801561169a57600080fd5b505af11580156116ae573d6000803e3d6000fd5b505050506040513d6000823e601f3d908101601f1916820160405260208110156116d757600080fd5b8101908080516040519392919084600160201b8211156116f657600080fd5b90830190602082018581111561170b57600080fd5b8251600160201b81118282018810171561172457600080fd5b82525081516020918201929091019080838360005b83811015611751578181015183820152602001611739565b50505050905090810190601f16801561177e5780820380516001836020036101000a031916815260200191505b506040525050509050610cbe858285876123ad565b60015460408051637f6f713360e11b815230600482015260248101859052905160009283926001600160a01b039091169163fedee26691604480820192608092909190829003018186803b1580156117ea57600080fd5b505afa1580156117fe573d6000803e3d6000fd5b505050506040513d608081101561181457600080fd5b508051606091820151604080513390941b60208581019190915260348086018a9052825180870390910181526054909501825284519481019490942060008981526004865282812054828252600590965291909120549295509093509111158061188657506001600160a01b03821633145b801561189557508260ff166001145b6118d05760405162461bcd60e51b8152600401808060200182810382526032815260200180612bf66032913960400191505060405180910390fd5b6118da8486612726565b6118e3856127af565b84826001600160a01b03167fda392cb8aa0843e7e474e7bacfae355313fc4202094b3e81d2a488b5c05207bf866040518080602001828103825283818151815260200191508051906020019080838360005b8381101561194d578181015183820152602001611935565b50505050905090810190601f16801561197a5780820380516001836020036101000a031916815260200191505b509250505060405180910390a35050505050565b6007546040805163e308d6ff60e01b8152306004820152602481018590526044810184905290516001600160a01b0390921691829163e308d6ff91606480830192600092919082900301818387803b1580156119e957600080fd5b505af11580156119fd573d6000803e3d6000fd5b5050600754604080516001600160a01b03909216825260208201869052818101879052517fbad55d907da885e51d8382278186c32b8bf91c769ca0a40d28ddfd02580cd7d19350908190036060019150a1505050565b6201040281565b60056020526000908152604090205481565b6201040181565b6201020181565b611556620101018383610a94565b60046020526000908152604090205481565b6001546001600160a01b031681565b606080600080611ab885612265565b88516020808b01919091206000818152600383526040808220338352909352919091205494985092965090945092509060ff161515600114611b90576000611aff8661220e565b905060005b81811015611b8d576000611b216110be898463ffffffff61221516565b50600081815260036020908152604080832033845290915290205490925060ff1615156001149050611b845760405162461bcd60e51b8152600401808060200182810382526031815260200180612c866031913960400191505060405180910390fd5b50600101611b04565b50505b600154604051634bbbcb6960e11b815262ffffff89166004820190815233604483018190526060602484019081528a5160648501528a516001600160a01b039095169463977796d2948d948d94939092909160840190602086019080838360005b83811015611c09578181015183820152602001611bf1565b50505050905090810190601f168015611c365780820380516001836020036101000a031916815260200191505b50945050505050600060405180830381600087803b158015611c5757600080fd5b505af1158015611c6b573d6000803e3d6000fd5b50505050611c78856127c2565b611c8184612831565b6000821215611ccf57826001600160a01b03167ffed3b27b73d78d9d1f344bbbf25f7af35e0ac4d6cf8193604ce18082168e461a836000036040518082815260200191505060405180910390a25b6000821315611d18576040805183815290516001600160a01b038516917f60213c45c34d8b94e495fd5871fdea7a7511f659e884ea25a0c8843b7f98bfad919081900360200190a25b50505050505050565b6201030181565b60005481565b6002546001600160a01b031681565b60ff62010000820481169261010083048216929190911690565b604081015160005b611d688561220e565b8110156120ad576060611d81868363ffffffff61221516565b600154604051634bbbcb6960e11b815262ffffff8a166004820190815230604483018190526060602484019081528551606485015285519596506001600160a01b039094169463977796d2948d94889492608490910190602086019080838360005b83811015611dfb578181015183820152602001611de3565b50505050905090810190601f168015611e285780820380516001836020036101000a031916815260200191505b50945050505050600060405180830381600087803b158015611e4957600080fd5b505af1158015611e5d573d6000803e3d6000fd5b50505050606080600080611e7085612265565b93509350935093506000611e838561220e565b1115611ff45760005b611e958561220e565b811015611ff2576060611ea88b83612924565b90506000611ebf6110be888563ffffffff61221516565b509150506000604051602001808072094ded2dca6e0d8d2e8a6d2cedcc2e8eae4ca5606b1b815250601301806c1d5a5b9d0c8d081c1c9bdbd98b609a1b815250600d018070189e5d195ccccc881b9bdd1952185cda0b607a1b81525060110180711d5a5b9d0c8d4d8818da185b1b195b99d94b60721b815250601201806d30b2323932b9b99039b2b73232b960911b815250600e0180602960f81b8152506001019050604051602081830303815290604052805190602001208f838d33604051602001808681526020018562ffffff1662ffffff168152602001848152602001838152602001826001600160a01b03166001600160a01b0316815260200195505050505050604051602081830303815290604052805190602001209050611fe78183856122ad565b505050600101611e8c565b505b611ffd846127c2565b61200683612831565b600081121561205457816001600160a01b03167ffed3b27b73d78d9d1f344bbbf25f7af35e0ac4d6cf8193604ce18082168e461a826000036040518082815260200191505060405180910390a25b600081131561209d576040805182815290516001600160a01b038416917f60213c45c34d8b94e495fd5871fdea7a7511f659e884ea25a0c8843b7f98bfad919081900360200190a25b5050505050600181019050611d5f565b505050505050565b6000808251848452606084015160408501518160f81c9150604086015160608701526020860151604087015281602087015260208660808860015afa601c8314601b84141760418514167f7fffffffffffffffffffffffffffffff5d576e7357a4501ddfe92f46681b20a083101616935085518714600081146121375761213c565b865195505b505050835280801561215657506001600160a01b03821615155b612207576001600160a01b0382166121b5576040805162461bcd60e51b815260206004820152601a60248201527f7369676e657220616464726573732063616e6e6f742062652030000000000000604482015290519081900360640190fd5b80612207576040805162461bcd60e51b815260206004820152601960248201527f7369676e6174757265207265636f76657279206661696c656400000000000000604482015290519081900360640190fd5b5092915050565b6020015190565b6020828101519082028301604001518301908210806122075760405162461bcd60e51b8152600401808060200182810382526022815260200180612d396022913960400191505060405180910390fd5b60208101516040820151606083015160808401519284019491909301926001600160a01b03169190565b604081015160608201516001600160a01b0390911692909160800190565b60015460408051637f6f713360e11b81523060048201526024810185905290516000926001600160a01b03169163fedee266916044808301926080929190829003018186803b1580156122ff57600080fd5b505afa158015612313573d6000803e3d6000fd5b505050506040513d608081101561232957600080fd5b506060015182519091506000901561235a5760006123468661298c565b905061235281856120b5565b91505061235d565b50335b816001600160a01b0316816001600160a01b031614610cbe5760405162461bcd60e51b8152600401808060200182810382526028815260200180612b666028913960400191505060405180910390fd5b604081015160005b6123be8561220e565b8110156120ad5760606123d7868363ffffffff61221516565b90506060806000806123e885612265565b935093509350935060006123fb8561220e565b111561256c5760005b61240d8561220e565b81101561256a5760606124208b83612924565b905060006124376110be888563ffffffff61221516565b509150506000604051602001808072094ded2dca6e0d8d2e8a6d2cedcc2e8eae4ca5606b1b815250601301806c1d5a5b9d0c8d081c1c9bdbd98b609a1b815250600d018070189e5d195ccccc881b9bdd1952185cda0b607a1b81525060110180711d5a5b9d0c8d4d8818da185b1b195b99d94b60721b815250601201806d30b2323932b9b99039b2b73232b960911b815250600e0180602960f81b8152506001019050604051602081830303815290604052805190602001208f838d33604051602001808681526020018562ffffff1662ffffff168152602001848152602001838152602001826001600160a01b03166001600160a01b031681526020019550505050505060405160208183030381529060405280519060200120905061255f8183856129ad565b505050600101612404565b505b600160009054906101000a90046001600160a01b03166001600160a01b031663977796d28c87306040518463ffffffff1660e01b8152600401808462ffffff1662ffffff16815260200180602001836001600160a01b03166001600160a01b03168152602001828103825284818151815260200191508051906020019080838360005b838110156126075781810151838201526020016125ef565b50505050905090810190601f1680156126345780820380516001836020036101000a031916815260200191505b50945050505050600060405180830381600087803b15801561265557600080fd5b505af1158015612669573d6000803e3d6000fd5b50505050612676846127c2565b61267f83612831565b60008112156126cd57816001600160a01b03167ffed3b27b73d78d9d1f344bbbf25f7af35e0ac4d6cf8193604ce18082168e461a826000036040518082815260200191505060405180910390a25b6000811315612716576040805182815290516001600160a01b038416917f60213c45c34d8b94e495fd5871fdea7a7511f659e884ea25a0c8843b7f98bfad919081900360200190a25b50505050506001810190506123b5565b815160e183015160618211156127a95760005b81811015610cbe57600061274d8683612af4565b6040805160609290921b6bffffffffffffffffffffffff19166020808401919091526034808401899052825180850390910181526054909301825282519281019290922060009081526005909252902042905550600101612739565b50505050565b6000908152600460205260409020429055565b60005b6127ce8261220e565b811015611556576000806127eb6110be858563ffffffff61221516565b509150915080826001600160a01b03167f979308e20fbd28822c4526e85d528175e04e3ca0cf91c46301db34401a26a8c660405160405180910390a350506001016127c5565b60005b61283d8261220e565b81101561155657600080606061285c6110be868663ffffffff61221516565b92509250925061286b826127af565b6128758183612726565b81836001600160a01b03167f5ffb3072e4515cf3bfae8b16be9dff6313cf7c313a0c26faafe6971d8c7585f1836040518080602001828103825283818151815260200191508051906020019080838360005b838110156128df5781810151838201526020016128c7565b50505050905090810190601f16801561290c5780820380516001836020036101000a031916815260200191505b509250505060405180910390a3505050600101612834565b60419081029190910160208181015160408084015193850151815193840192909252828101939093527fff0000000000000000000000000000000000000000000000000000000000000060f89190911b16606082015281518082039093018352606101905290565b60008054604080516119019093526020919091529182526042601e20915290565b60015460408051637f6f713360e11b81523060048201526024810185905290516000926001600160a01b03169163fedee266916044808301926080929190829003018186803b1580156129ff57600080fd5b505afa158015612a13573d6000803e3d6000fd5b505050506040513d6080811015612a2957600080fd5b506060908101516040805160c08101909152608280825291935060009291612cb7602083013990508351600014158015612a7157508080519060200120848051906020012014155b15612a91576000612a818761298c565b9050612a8d81866120b5565b9250505b826001600160a01b0316826001600160a01b03161480612ab957506001600160a01b03831633145b6120ad5760405162461bcd60e51b8152600401808060200182810382526028815260200180612b666028913960400191505060405180910390fd5b60208281015190820283016101010151908083106122075760405162461bcd60e51b815260040180806020018281038252605e815260200180612c28605e913960600191505060405180910390fdfe6f6e6c7920756e7370656e74206e6f7465732063616e20626520617070726f766564746865206e6f7465206f776e657220646964206e6f74207369676e2074686973206d657373616765746865206e6f7465206f776e657220646964206e6f74207369676e20746869732070726f6f66454950373132446f6d61696e28737472696e67206e616d652c737472696e672076657273696f6e2c6164647265737320766572696679696e67436f6e74726163742963616c6c657220646f6573206e6f742068617665207065726d697373696f6e20746f20757064617465206d6574614461746161646472657373506f73206f7574206f6620626f756e6473202d2061646472657373506f73206d757374206265206c657373207468616e20746865206e756d626572206f662061646472657373657320746f20626520617070726f76656473656e64657220646f6573206e6f74206861766520617070726f76616c20746f207370656e6420696e707574206e6f746530303030303030303030303030303030303030303030303030303030303030303030303030303030303030303030303030303030303030303030303030303030303030303030303030303030303030303030303030303030303030303030303030303030303030303030303030303030303030303030303030303030303030303030415a54454320617272617920696e646578206973206f7574206f6620626f756e6473a265627a7a72315820f0678523ae8f5d5255ffb0f643b5668b6ef7d98fd720f3df8f0789d02ec1363764736f6c63430005110032c89efdaa54c0f20c7adf612882df0950f5a951637e0307cdcb4c672f298b8bc6",
  "source": "pragma solidity >= 0.5.0 <0.7.0;\n\nimport \"@aztec/protocol/contracts/ERC1724/ZkAsset.sol\";\nimport \"@aztec/protocol/contracts/ACE/ACE.sol\";\n\ncontract ZKERC20 is ZkAsset {\n\n  event Log(address owner, uint256 value, bytes32 noteHash);\n  event LogString(string value);\n  address aceAddress;\n  address public erc20Address;\n\n  constructor(\n    address _aceAddress,\n    address _erc20Address\n   ) public ZkAsset(_aceAddress, address(_erc20Address), 1) {\n     aceAddress = _aceAddress;\n     erc20Address = _erc20Address;\n  }\n\n  function approveAceToSpendTokens(bytes32 _proofHash, uint256 _value) public {\n\n    ACE aceContract = ACE(aceAddress);\n    aceContract.publicApprove(address(this), _proofHash, _value);\n    emit Log(aceAddress, _value, _proofHash);\n  }\n\n  /**\n  * @dev Executes a basic unilateral, confidential transfer of AZTEC notes\n  * Will submit _proofData to the validateProof() function of the Cryptography Engine.\n  *\n  * Upon successfull verification, it will update note registry state - creating output notes and\n  * destroying input notes.\n  *\n  * @param _proofId - id of proof to be validated. Needs to be a balanced proof.\n  * @param _proofData - bytes variable outputted from a proof verification contract, representing\n  * transfer instructions for the IACE\n  * @param _signatures - array of the ECDSA signatures over all inputNotes\n  */\n  function confidentialTransferSmartWallet(uint24 _proofId, bytes memory _proofData, bytes memory _signatures) public {\n      // Check that it's a balanced proof\n      (, uint8 category, ) = _proofId.getProofComponents();\n\n      require(category == uint8(ProofCategory.BALANCED), \"this is not a balanced proof\");\n      bytes memory proofOutputs = ace.validateProof(_proofId, msg.sender, _proofData);\n      confidentialTransferInternalSmartWallet(_proofId, proofOutputs, _signatures, _proofData);\n  }\n\n  /**\n  * @dev Executes a basic unilateral, confidential transfer of AZTEC notes\n  * Will submit _proofData to the validateProof() function of the Cryptography Engine.\n  *\n  * Upon successfull verification, it will update note registry state - creating output notes and\n  * destroying input notes.\n  *\n  * @param _proofData - bytes variable outputted from a proof verification contract, representing\n  * transfer instructions for the IACE\n  * @param _signatures - array of the ECDSA signatures over all inputNotes\n  */\n  function confidentialTransferSmartWallet(bytes memory _proofData, bytes memory _signatures) public {\n      confidentialTransferSmartWallet(JOIN_SPLIT_PROOF, _proofData, _signatures);\n  }\n\n  /**\n  * @dev Perform ECDSA signature validation for a signature over an input note\n  *\n  * @param _hashStruct - the data to sign in an EIP712 signature\n  * @param _noteHash - keccak256 hash of the note coordinates (gamma and sigma)\n  * @param _signature - ECDSA signature for a particular input note\n  */\n  function validateSignatureSmartWallet(\n      bytes32 _hashStruct,\n      bytes32 _noteHash,\n      bytes memory _signature\n  ) internal view {\n      (, , , address noteOwner ) = ace.getNote(address(this), _noteHash);\n\n      address signer;\n      bytes memory noneSignature = bytes(\"0000000000000000000000000000000000000000000000000000000000000000000000000000000000000000000000000000000000000000000000000000000000\");\n      if (_signature.length != 0 && keccak256(_signature) != keccak256(noneSignature)) {\n          // validate EIP712 signature\n          bytes32 msgHash = hashEIP712Message(_hashStruct);\n          signer = recoverSignature(\n              msgHash,\n              _signature\n          );\n      }\n      require(signer == noteOwner || noteOwner == msg.sender, \"the note owner did not sign this message\");\n  }\n\n  /**\n    * @dev Internal method to act on transfer instructions from a successful proof validation.\n    * Specifically, it:\n    * - extracts the relevant objects from the proofOutput object\n    * - validates an EIP712 signature over each input note\n    * - updates note registry state\n    * - emits events for note creation/destruction\n    * - converts or redeems tokens, according to the publicValue\n    * @param _proofId - id of proof resulting in _proofData\n    * @param proofOutputs - transfer instructions from a zero-knowledege proof validator\n    * contract\n    * @param _signatures - ECDSA signatures over a set of input notes\n    * @param _proofData - cryptographic proof data outputted from a proof construction\n    * operation\n    */\n    function confidentialTransferInternalSmartWallet(\n        uint24 _proofId,\n        bytes memory proofOutputs,\n        bytes memory _signatures,\n        bytes memory _proofData\n    ) internal {\n        bytes32 _challenge;\n        assembly {\n            _challenge := mload(add(_proofData, 0x40))\n        }\n\n        for (uint i = 0; i < proofOutputs.getLength(); i += 1) {\n            bytes memory proofOutput = proofOutputs.get(i);\n\n            (bytes memory inputNotes,\n            bytes memory outputNotes,\n            address publicOwner,\n            int256 publicValue) = proofOutput.extractProofOutput();\n\n\n            if (inputNotes.getLength() > uint(0)) {\n                for (uint j = 0; j < inputNotes.getLength(); j += 1) {\n                    bytes memory _signature = extractSignature(_signatures, j);\n\n                    (, bytes32 noteHash, ) = inputNotes.get(j).extractNote();\n\n                    bytes32 hashStruct = keccak256(abi.encode(\n                        JOIN_SPLIT_SIGNATURE_TYPE_HASH,\n                        _proofId,\n                        noteHash,\n                        _challenge,\n                        msg.sender\n                    ));\n\n                    validateSignatureSmartWallet(hashStruct, noteHash, _signature);\n                }\n            }\n            ace.updateNoteRegistry(_proofId, proofOutput, address(this));\n\n            logInputNotes(inputNotes);\n            logOutputNotes(outputNotes);\n            if (publicValue < 0) {\n                emit ConvertTokens(publicOwner, uint256(-publicValue));\n            }\n            if (publicValue > 0) {\n                emit RedeemTokens(publicOwner, uint256(publicValue));\n            }\n\n        }\n    }\n\n}\n",
  "sourcePath": "/Users/patricio/workspace/research/privacy/aztec/smart-wallet-react/contracts/aztec/contracts/aztec/ZKERC20.sol",
  "compiler": {
    "name": "solc",
    "version": "0.5.17+commit.d19bba13.Emscripten.clang"
  },
  "schemaVersion": "3.4.3",
  "updatedAt": "2021-12-22T16:36:24.347Z",
  "devdoc": {
    "methods": {
      "approveProof(uint24,bytes,address,bool,bytes)": {
        "details": "Note owner can approve a third party address, such as a smart contract, to spend a proof on their behalf. This allows a batch approval of notes to be performed, rather than individually for each note via confidentialApprove().",
        "params": {
          "_proofId": "- id of proof to be approved. Needs to be a balanced proof.",
          "_proofOutputs": "- data of proof",
          "_proofSignature": "- ECDSA signature over the proof, approving it to be spent",
          "_spender": "- address being approved to spend the notes"
        }
      },
      "confidentialApprove(bytes32,address,bool,bytes)": {
        "details": "Note owner approving a third party, another address, to spend the note on owner's behalf. This is necessary to allow the confidentialTransferFrom() method to be called",
        "params": {
          "_noteHash": "- keccak256 hash of the note coordinates (gamma and sigma)",
          "_signature": "- ECDSA signature from the note owner that validates the confidentialApprove() instruction",
          "_spender": "- address being approved to spend the note",
          "_spenderApproval": "- defines whether the _spender address is being approved to spend the note, or if permission is being revoked. True if approved, false if not approved"
        }
      },
      "confidentialTransfer(bytes,bytes)": {
        "details": "Executes a basic unilateral, confidential transfer of AZTEC notes Will submit _proofData to the validateProof() function of the Cryptography Engine.    * Upon successfull verification, it will update note registry state - creating output notes and destroying input notes.",
        "params": {
          "_proofData": "- bytes variable outputted from a proof verification contract, representing transfer instructions for the IACE",
          "_signatures": "- array of the ECDSA signatures over all inputNotes"
        }
      },
      "confidentialTransfer(uint24,bytes,bytes)": {
        "details": "Executes a basic unilateral, confidential transfer of AZTEC notes Will submit _proofData to the validateProof() function of the Cryptography Engine.    * Upon successfull verification, it will update note registry state - creating output notes and destroying input notes.",
        "params": {
          "_proofData": "- bytes variable outputted from a proof verification contract, representing transfer instructions for the IACE",
          "_proofId": "- id of proof to be validated. Needs to be a balanced proof.",
          "_signatures": "- array of the ECDSA signatures over all inputNotes"
        }
      },
      "confidentialTransferFrom(uint24,bytes)": {
        "details": "Executes a value transfer mediated by smart contracts. The method is supplied with transfer instructions represented by a bytes _proofOutput argument that was outputted from a proof verification contract.",
        "params": {
          "_proof": "- uint24 variable which acts as a unique identifier for the proof which _proofOutput is being submitted. _proof contains three concatenated uint8 variables: 1) epoch number 2) category number 3) ID number for the proof",
          "_proofOutput": "- output of a zero-knowledge proof validation contract. Represents transfer instructions for the IACE"
        }
      },
      "confidentialTransferSmartWallet(bytes,bytes)": {
        "details": "Executes a basic unilateral, confidential transfer of AZTEC notes Will submit _proofData to the validateProof() function of the Cryptography Engine.  * Upon successfull verification, it will update note registry state - creating output notes and destroying input notes.",
        "params": {
          "_proofData": "- bytes variable outputted from a proof verification contract, representing transfer instructions for the IACE",
          "_signatures": "- array of the ECDSA signatures over all inputNotes"
        }
      },
      "confidentialTransferSmartWallet(uint24,bytes,bytes)": {
        "details": "Executes a basic unilateral, confidential transfer of AZTEC notes Will submit _proofData to the validateProof() function of the Cryptography Engine.  * Upon successfull verification, it will update note registry state - creating output notes and destroying input notes.",
        "params": {
          "_proofData": "- bytes variable outputted from a proof verification contract, representing transfer instructions for the IACE",
          "_proofId": "- id of proof to be validated. Needs to be a balanced proof.",
          "_signatures": "- array of the ECDSA signatures over all inputNotes"
        }
      },
      "updateNoteMetaData(bytes32,bytes)": {
        "details": "Update the metadata of a note that already exists in storage.",
        "params": {
          "metaData": "- metadata to update the note with",
          "noteHash": "- hash of a note, used as a unique identifier for the note"
        }
      }
    }
  },
  "userdoc": {
    "methods": {}
  }
}