{
  "contractName": "CustomSmartWallet",
  "abi": [
    {
      "stateMutability": "payable",
      "type": "fallback",
      "payable": true
    },
    {
      "inputs": [],
      "name": "DATA_VERSION_HASH",
      "outputs": [
        {
          "internalType": "bytes32",
          "name": "",
          "type": "bytes32"
        }
      ],
      "stateMutability": "view",
      "type": "function",
      "constant": true
    },
    {
      "inputs": [],
      "name": "nonce",
      "outputs": [
        {
          "internalType": "uint256",
          "name": "",
          "type": "uint256"
        }
      ],
      "stateMutability": "view",
      "type": "function",
      "constant": true
    },
    {
      "stateMutability": "payable",
      "type": "receive",
      "payable": true
    },
    {
      "inputs": [
        {
          "internalType": "bytes32",
          "name": "domainSeparator",
          "type": "bytes32"
        },
        {
          "internalType": "bytes32",
          "name": "suffixData",
          "type": "bytes32"
        },
        {
          "components": [
            {
              "internalType": "address",
              "name": "relayHub",
              "type": "address"
            },
            {
              "internalType": "address",
              "name": "from",
              "type": "address"
            },
            {
              "internalType": "address",
              "name": "to",
              "type": "address"
            },
            {
              "internalType": "address",
              "name": "tokenContract",
              "type": "address"
            },
            {
              "internalType": "uint256",
              "name": "value",
              "type": "uint256"
            },
            {
              "internalType": "uint256",
              "name": "gas",
              "type": "uint256"
            },
            {
              "internalType": "uint256",
              "name": "nonce",
              "type": "uint256"
            },
            {
              "internalType": "uint256",
              "name": "tokenAmount",
              "type": "uint256"
            },
            {
              "internalType": "uint256",
              "name": "tokenGas",
              "type": "uint256"
            },
            {
              "internalType": "bytes",
              "name": "data",
              "type": "bytes"
            }
          ],
          "internalType": "struct IForwarder.ForwardRequest",
          "name": "req",
          "type": "tuple"
        },
        {
          "internalType": "bytes",
          "name": "sig",
          "type": "bytes"
        }
      ],
      "name": "verify",
      "outputs": [],
      "stateMutability": "view",
      "type": "function",
      "constant": true
    },
    {
      "inputs": [
        {
          "internalType": "address",
          "name": "owner",
          "type": "address"
        },
        {
          "internalType": "address",
          "name": "factory",
          "type": "address"
        },
        {
          "internalType": "address",
          "name": "swTemplate",
          "type": "address"
        },
        {
          "internalType": "address",
          "name": "destinationContract",
          "type": "address"
        },
        {
          "internalType": "address",
          "name": "logic",
          "type": "address"
        },
        {
          "internalType": "uint256",
          "name": "index",
          "type": "uint256"
        },
        {
          "internalType": "bytes32",
          "name": "initParamsHash",
          "type": "bytes32"
        },
        {
          "internalType": "bytes",
          "name": "data",
          "type": "bytes"
        }
      ],
      "name": "recover",
      "outputs": [
        {
          "internalType": "bool",
          "name": "success",
          "type": "bool"
        },
        {
          "internalType": "bytes",
          "name": "ret",
          "type": "bytes"
        }
      ],
      "stateMutability": "payable",
      "type": "function",
      "payable": true
    },
    {
      "inputs": [
        {
          "internalType": "address",
          "name": "to",
          "type": "address"
        },
        {
          "internalType": "bytes",
          "name": "data",
          "type": "bytes"
        }
      ],
      "name": "directExecute",
      "outputs": [
        {
          "internalType": "bool",
          "name": "success",
          "type": "bool"
        },
        {
          "internalType": "bytes",
          "name": "ret",
          "type": "bytes"
        }
      ],
      "stateMutability": "payable",
      "type": "function",
      "payable": true
    },
    {
      "inputs": [
        {
          "internalType": "bytes32",
          "name": "domainSeparator",
          "type": "bytes32"
        },
        {
          "internalType": "bytes32",
          "name": "suffixData",
          "type": "bytes32"
        },
        {
          "components": [
            {
              "internalType": "address",
              "name": "relayHub",
              "type": "address"
            },
            {
              "internalType": "address",
              "name": "from",
              "type": "address"
            },
            {
              "internalType": "address",
              "name": "to",
              "type": "address"
            },
            {
              "internalType": "address",
              "name": "tokenContract",
              "type": "address"
            },
            {
              "internalType": "uint256",
              "name": "value",
              "type": "uint256"
            },
            {
              "internalType": "uint256",
              "name": "gas",
              "type": "uint256"
            },
            {
              "internalType": "uint256",
              "name": "nonce",
              "type": "uint256"
            },
            {
              "internalType": "uint256",
              "name": "tokenAmount",
              "type": "uint256"
            },
            {
              "internalType": "uint256",
              "name": "tokenGas",
              "type": "uint256"
            },
            {
              "internalType": "bytes",
              "name": "data",
              "type": "bytes"
            }
          ],
          "internalType": "struct IForwarder.ForwardRequest",
          "name": "req",
          "type": "tuple"
        },
        {
          "internalType": "bytes",
          "name": "sig",
          "type": "bytes"
        }
      ],
      "name": "execute",
      "outputs": [
        {
          "internalType": "bool",
          "name": "success",
          "type": "bool"
        },
        {
          "internalType": "bytes",
          "name": "ret",
          "type": "bytes"
        }
      ],
      "stateMutability": "payable",
      "type": "function",
      "payable": true
    },
    {
      "inputs": [],
      "name": "isInitialized",
      "outputs": [
        {
          "internalType": "bool",
          "name": "",
          "type": "bool"
        }
      ],
      "stateMutability": "view",
      "type": "function",
      "constant": true
    },
    {
      "inputs": [
        {
          "internalType": "address",
          "name": "owner",
          "type": "address"
        },
        {
          "internalType": "address",
          "name": "logic",
          "type": "address"
        },
        {
          "internalType": "address",
          "name": "tokenAddr",
          "type": "address"
        },
        {
          "internalType": "address",
          "name": "tokenRecipient",
          "type": "address"
        },
        {
          "internalType": "uint256",
          "name": "tokenAmount",
          "type": "uint256"
        },
        {
          "internalType": "uint256",
          "name": "tokenGas",
          "type": "uint256"
        },
        {
          "internalType": "bytes",
          "name": "initParams",
          "type": "bytes"
        }
      ],
      "name": "initialize",
      "outputs": [],
      "stateMutability": "nonpayable",
      "type": "function"
    }
  ],
  "bytecode": "0x608060405234801561001057600080fd5b50611906806100206000396000f3fe60806040526004361061007f5760003560e01c8063affed0e01161004e578063affed0e014610108578063b3104ef61461012a578063bb219fee1461013f578063e6ddc71a1461015f5761008e565b8063244f53b51461009657806336896bc8146100c0578063392e53cd146100d357806368f4153b146100f55761008e565b3661008e5761008c61017f565b005b61008c61017f565b6100a96100a43660046110bb565b6101d1565b6040516100b7929190611492565b60405180910390f35b6100a96100ce366004610f6d565b610359565b3480156100df57600080fd5b506100e86104c6565b6040516100b79190611487565b6100a961010336600461112e565b6104e6565b34801561011457600080fd5b5061011d6107d6565b6040516100b791906114b5565b34801561013657600080fd5b5061011d6107dc565b34801561014b57600080fd5b5061008c61015a36600461112e565b610800565b34801561016b57600080fd5b5061008c61017a366004611022565b610849565b7f360894a13ba1a3210667c828492db98dca3e2076cc3735a920a3ca505d382bbc5480156101ce57604051819036600082376000803683855af43d806000843e8180156101ca578184f35b8184fd5b50565b60006060336040516020016101e69190611287565b60405160208183030381529060405280519060200120610204610a9b565b1461022a5760405162461bcd60e51b8152600401610221906117fc565b60405180910390fd5b7f360894a13ba1a3210667c828492db98dca3e2076cc3735a920a3ca505d382bbc54806102b957856001600160a01b031634868660405161026c929190611365565b60006040518083038185875af1925050503d80600081146102a9576040519150601f19603f3d011682016040523d82523d6000602084013e6102ae565b606091505b50909350915061031c565b6040516001600160a01b038216906102d5906000903690611365565b600060405180830381855af49150503d8060008114610310576040519150601f19603f3d011682016040523d82523d6000602084013e610315565b606091505b5090935091505b47156103505760405133904780156108fc02916000818181858888f1935050505015801561034e573d6000803e3d6000fd5b505b50935093915050565b60006060600060ff60f81b8b8d338b8a8c60405160200161037e9594939291906112a4565b604051602081830303815290604052805190602001208c6040516020016103a59190611391565b604051602081830303815290604052805190602001206040516020016103ce94939291906112e7565b60408051601f19818403018152919052805160209091012090506001600160a01b03811630146104105760405162461bcd60e51b815260040161022190611552565b6001600160a01b0389161561048357886001600160a01b031634868660405161043a929190611365565b60006040518083038185875af1925050503d8060008114610477576040519150601f19603f3d011682016040523d82523d6000602084013e61047c565b606091505b5090935091505b47156104b75760405133904780156108fc02916000818181858888f193505050501580156104b5573d6000803e3d6000fd5b505b50995099975050505050505050565b6000806104d1610a9b565b14156104df575060006104e3565b5060015b90565b6000606084600001516001600160a01b0316336001600160a01b03161461051f5760405162461bcd60e51b8152600401610221906115f7565b61056187878787878080601f016020809104026020016040519081016040528093929190818152602001838380828437600092019190915250610ac092505050565b60008054600101905560e08501511561065e5784606001516001600160a01b0316856101000151328760e0015160405160240161059f929190611415565b60408051601f198184030181529181526020820180516001600160e01b031663a9059cbb60e01b179052516105d49190611375565b60006040518083038160008787f1925050503d8060008114610612576040519150601f19603f3d011682016040523d82523d6000602084013e610617565b606091505b509092509050818015610642575080511580610642575080806020019051810190610642919061110e565b61065e5760405162461bcd60e51b815260040161022190611720565b7f360894a13ba1a3210667c828492db98dca3e2076cc3735a920a3ca505d382bbc5460a08601515a116106a35760405162461bcd60e51b81526004016102219061178e565b806107215785604001516001600160a01b03168660a0015187608001518861012001516040516106d39190611375565b600060405180830381858888f193505050503d8060008114610711576040519150601f19603f3d011682016040523d82523d6000602084013e610716565b606091505b509093509150610784565b6040516001600160a01b0382169061073d906000903690611365565b600060405180830381855af49150503d8060008114610778576040519150601f19603f3d011682016040523d82523d6000602084013e61077d565b606091505b5090935091505b4780156107ca5786602001516001600160a01b03166108fc829081150290604051600060405180830381858888f193505050501580156107c8573d6000803e3d6000fd5b505b50509550959350505050565b60005481565b7fad7c5bef027816a800da1736444fb58a807ef4c9603b7848673f7e3a68eb14a581565b61084285858585858080601f016020809104026020016040519081016040528093929190818152602001838380828437600092019190915250610ac092505050565b5050505050565b6000610853610a9b565b146108705760405162461bcd60e51b815260040161022190611670565b6000876040516020016108839190611287565b604051602081830303815290604052805190602001209050807fa7b53796fd2d99cb1f5ae019b54f9e024446c3d12b483f733ccc62ed04eb126a5560008411156109aa5760006060876001600160a01b03168588886040516024016108e9929190611415565b60408051601f198184030181529181526020820180516001600160e01b031663a9059cbb60e01b1790525161091e9190611375565b60006040518083038160008787f1925050503d806000811461095c576040519150601f19603f3d011682016040523d82523d6000602084013e610961565b606091505b509150915081801561098b57508051158061098b57508080602001905181019061098b919061110e565b6109a75760405162461bcd60e51b815260040161022190611757565b50505b6001600160a01b03871615610a91576000876001600160a01b0316836040516024016109d69190611508565b60408051601f198184030181529181526020820180516001600160e01b031663439fab9160e01b17905251610a0b9190611375565b600060405180830381855af49150503d8060008114610a46576040519150601f19603f3d011682016040523d82523d6000602084013e610a4b565b606091505b5050905080610a6c5760405162461bcd60e51b8152600401610221906116a7565b877f360894a13ba1a3210667c828492db98dca3e2076cc3735a920a3ca505d382bbc55505b5050505050505050565b7fa7b53796fd2d99cb1f5ae019b54f9e024446c3d12b483f733ccc62ed04eb126a5490565b602080830151604051610ad39201611287565b60405160208183030381529060405280519060200120610af1610a9b565b14610b0e5760405162461bcd60e51b8152600401610221906117fc565b8160c0015160005414610b335760405162461bcd60e51b8152600401610221906115c0565b837f8b73c3c69bb8fe3d512ecc4cf759cc79239f7b179b0ffacaa9a75d522b39400f7fd41b7f69f4d7734774d21b5548d74704ad02f9f1545db63927a1d58479c576c87fad7c5bef027816a800da1736444fb58a807ef4c9603b7848673f7e3a68eb14a5610b9f610c5f565b30604051602001610bb49594939291906114be565b6040516020818303038152906040528051906020012014610be75760405162461bcd60e51b8152600401610221906117c5565b610c3d610c338286610bf98787610c63565b8051602091820120604051610c0f9392016113fa565b60405160208183030381529060405280519060200120610d0a90919063ffffffff16565b8360200151610d55565b610c595760405162461bcd60e51b815260040161022190611831565b50505050565b4690565b8051602080830151604080850151606086810151608088015160a089015160c08a015160e08b01516101008c01516101208d01518051908c01209851969b7f6486b11d9eff72be816affda6d7d3d5576509f5db7da10e75dd77b76104f1b1d9b610cd29b919a9199980161142e565b60408051601f1981840301815290829052610cf292918690602001611338565b60405160208183030381529060405290505b92915050565b60008151604114610d2d5760405162461bcd60e51b815260040161022190611589565b60208201516040830151606084015160001a610d4b86828585610db0565b9695505050505050565b6000816001600160a01b0316836001600160a01b0316148015610d95575073dcc703c0e500b653ca82273b7bfad8045d85a4706001600160a01b03841614155b8015610da957506001600160a01b03831615155b9392505050565b60007f7fffffffffffffffffffffffffffffff5d576e7357a4501ddfe92f46681b20a0821115610df25760405162461bcd60e51b81526004016102219061162e565b8360ff16601b1480610e0757508360ff16601c145b610e235760405162461bcd60e51b8152600401610221906116de565b600060018686868660405160008152602001604052604051610e4894939291906114ea565b6020604051602081039080840390855afa158015610e6a573d6000803e3d6000fd5b5050604051601f1901519150506001600160a01b038116610e9d5760405162461bcd60e51b81526004016102219061151b565b95945050505050565b80356001600160a01b0381168114610d0457600080fd5b60008083601f840112610ece578182fd5b50813567ffffffffffffffff811115610ee5578182fd5b602083019150836020828501011115610efd57600080fd5b9250929050565b600082601f830112610f14578081fd5b813567ffffffffffffffff811115610f2a578182fd5b610f3d601f8201601f1916602001611868565b9150808252836020828501011115610f5457600080fd5b8060208401602084013760009082016020015292915050565b60008060008060008060008060006101008a8c031215610f8b578485fd5b8935610f96816118bb565b985060208a0135610fa6816118bb565b975060408a0135610fb6816118bb565b965060608a0135610fc6816118bb565b955060808a0135610fd6816118bb565b945060a08a0135935060c08a0135925060e08a013567ffffffffffffffff811115610fff578283fd5b61100b8c828d01610ebd565b915080935050809150509295985092959850929598565b600080600080600080600060e0888a03121561103c578283fd5b8735611047816118bb565b96506020880135611057816118bb565b95506040880135611067816118bb565b94506060880135611077816118bb565b93506080880135925060a0880135915060c088013567ffffffffffffffff8111156110a0578182fd5b6110ac8a828b01610f04565b91505092959891949750929550565b6000806000604084860312156110cf578283fd5b83356110da816118bb565b9250602084013567ffffffffffffffff8111156110f5578283fd5b61110186828701610ebd565b9497909650939450505050565b60006020828403121561111f578081fd5b81518015158114610da9578182fd5b600080600080600060808688031215611145578081fd5b8535945060208601359350604086013567ffffffffffffffff8082111561116a578283fd5b818801915061014080838b031215611180578384fd5b61118981611868565b90506111958a84610ea6565b81526111a48a60208501610ea6565b60208201526111b68a60408501610ea6565b60408201526111c88a60608501610ea6565b60608201526080830135608082015260a083013560a082015260c083013560c082015260e083013560e08201526101008084013581830152506101208084013583811115611214578586fd5b6112208c828701610f04565b82840152505080955050606088013591508082111561123d578283fd5b5061124a88828901610ebd565b969995985093965092949392505050565b6000815180845261127381602086016020860161188f565b601f01601f19169290920160200192915050565b60609190911b6bffffffffffffffffffffffff1916815260140190565b6bffffffffffffffffffffffff19606096871b8116825294861b851660148201529290941b9092166028820152603c810191909152605c810191909152607c0190565b7fff0000000000000000000000000000000000000000000000000000000000000094909416845260609290921b6bffffffffffffffffffffffff191660018401526015830152603582015260550190565b6000848252835161135081602085016020880161188f565b60209201918201929092526040019392505050565b6000828483379101908152919050565b6000825161138781846020870161188f565b9190910192915050565b7f602d3d8160093d39f3363d3d373d3d3d3d363d73000000000000000000000000815260609190911b6bffffffffffffffffffffffff191660148201527f5af43d923d90803e602b57fd5bf3000000000000000000000000000000000000602882015260360190565b61190160f01b81526002810192909252602282015260420190565b6001600160a01b03929092168252602082015260400190565b6001600160a01b039a8b168152988a1660208a01529689166040890152949097166060870152608086019290925260a085015260c084015260e08301939093526101008201929092526101208101919091526101400190565b901515815260200190565b60008315158252604060208301526114ad604083018461125b565b949350505050565b90815260200190565b9485526020850193909352604084019190915260608301526001600160a01b0316608082015260a00190565b93845260ff9290921660208401526040830152606082015260800190565b600060208252610da9602083018461125b565b60208082526018908201527f45434453413a20696e76616c6964207369676e61747572650000000000000000604082015260600190565b60208082526011908201527f496e76616c6964207265636f7665726572000000000000000000000000000000604082015260600190565b6020808252601f908201527f45434453413a20696e76616c6964207369676e6174757265206c656e67746800604082015260600190565b6020808252600e908201527f6e6f6e6365206d69736d61746368000000000000000000000000000000000000604082015260600190565b6020808252600e908201527f496e76616c69642063616c6c6572000000000000000000000000000000000000604082015260600190565b60208082526022908201527f45434453413a20696e76616c6964207369676e6174757265202773272076616c604082015261756560f01b606082015260800190565b60208082526013908201527f616c726561647920696e697469616c697a656400000000000000000000000000604082015260600190565b6020808252601f908201527f696e697469616c697a652063616c6c20696e206c6f676963206661696c656400604082015260600190565b60208082526022908201527f45434453413a20696e76616c6964207369676e6174757265202776272076616c604082015261756560f01b606082015260800190565b60208082526017908201527f556e61626c6520746f2070617920666f722072656c6179000000000000000000604082015260600190565b6020808252601c908201527f556e61626c6520746f2070617920666f72206465706c6f796d656e7400000000604082015260600190565b60208082526013908201527f4e6f7420656e6f75676820676173206c65667400000000000000000000000000604082015260600190565b60208082526018908201527f496e76616c696420646f6d61696e20736570617261746f720000000000000000604082015260600190565b6020808252818101527f4e6f7420746865206f776e6572206f662074686520536d61727457616c6c6574604082015260600190565b60208082526012908201527f7369676e6174757265206d69736d617463680000000000000000000000000000604082015260600190565b60405181810167ffffffffffffffff8111828210171561188757600080fd5b604052919050565b60005b838110156118aa578181015183820152602001611892565b83811115610c595750506000910152565b6001600160a01b03811681146101ce57600080fdfea26469706673582212204838fd98d849a0a1a4c5215e9e136b868b190c6166da810ca6174dfd9fe01d2d64736f6c634300060c0033",
  "immutableReferences": {},
  "source": "// SPDX-License-Identifier:MIT\npragma solidity ^0.6.12;\npragma experimental ABIEncoderV2;\n\nimport \"@openzeppelin/contracts/cryptography/ECDSA.sol\";\nimport \"../interfaces/IForwarder.sol\";\nimport \"../utils/RSKAddrValidator.sol\";\n\n/* solhint-disable no-inline-assembly */\n/* solhint-disable avoid-low-level-calls */\n\ncontract CustomSmartWallet is IForwarder {\n    using ECDSA for bytes32;\n\n    uint256 public override nonce;\n    bytes32 public constant DATA_VERSION_HASH = keccak256(\"2\");\n\n    function verify(\n        bytes32 domainSeparator,\n        bytes32 suffixData,\n        ForwardRequest memory req,\n        bytes calldata sig\n    ) external override view {\n\n        _verifySig(domainSeparator, suffixData, req, sig);\n    }\n\n    function getOwner() private view returns (bytes32 owner){\n        assembly {\n            owner := sload(\n                0xa7b53796fd2d99cb1f5ae019b54f9e024446c3d12b483f733ccc62ed04eb126a\n            )\n        }\n    }\n    \n    function recover(address owner, address factory, address swTemplate, address destinationContract,address logic, uint256 index, bytes32 initParamsHash, bytes calldata data) external payable returns (bool success, bytes memory ret){\n\n        address wallet = \n            address(\n                uint160(\n                    uint256(\n                        keccak256(\n                            abi.encodePacked(\n                                bytes1(0xff),\n                                factory,\n                                keccak256(abi.encodePacked(owner, msg.sender, logic, initParamsHash, index)), //salt\n                                keccak256(abi.encodePacked(hex\"602D3D8160093D39F3363D3D373D3D3D3D363D73\", swTemplate, hex\"5AF43D923D90803E602B57FD5BF3\"))\n                            )\n                        )\n                    )\n                )\n            );\n\n\n        require(wallet == address(this), \"Invalid recoverer\");\n\n        if(destinationContract != address(0)){\n            (success, ret) = destinationContract.call{value: msg.value}(data);\n        }\n\n        //If any balance has been added then trasfer it to the owner EOA\n        if (address(this).balance > 0) {\n            //sent any value left to the recoverer account\n            payable(msg.sender).transfer(address(this).balance);\n        }\n        \n    }\n\n    function directExecute(address to, bytes calldata data) external override payable returns (\n            bool success,\n            bytes memory ret  \n        )\n    {\n\n        //Verify Owner\n        require(\n            getOwner() == keccak256(abi.encodePacked(msg.sender)),\n            \"Not the owner of the SmartWallet\"\n        );\n\n       bytes32 logicStrg;\n        assembly {\n            // The logic contract address\n            // IMPLEMENTATION_SLOT = bytes32(uint256(keccak256('eip1967.proxy.implementation')) - 1)\n            logicStrg := sload(\n                0x360894a13ba1a3210667c828492db98dca3e2076cc3735a920a3ca505d382bbc\n            )\n        }\n\n        // If there's no extra logic, then call the destination contract\n        if (logicStrg == bytes32(0)) {\n            (success, ret) = to.call{value: msg.value}(data);\n        } else {\n            //If there's extra logic, delegate the execution\n            (success, ret) = (address(uint160(uint256(logicStrg)))).delegatecall(msg.data);\n        }\n\n        //If any balance has been added then trasfer it to the owner EOA\n        if (address(this).balance > 0) {\n            //can't fail: req.from signed (off-chain) the request, so it must be an EOA...\n            payable(msg.sender).transfer(address(this).balance);\n        }\n    }\n    \n    function execute(\n        bytes32 domainSeparator,\n        bytes32 suffixData,\n        ForwardRequest memory req,\n        bytes calldata sig\n    )\n        external\n        override\n        payable\n        returns (\n            bool success,\n            bytes memory ret  \n        )\n    {\n\n        (sig);\n        require(msg.sender == req.relayHub, \"Invalid caller\");\n\n        _verifySig(domainSeparator, suffixData, req, sig);\n        nonce++;\n\n        if(req.tokenAmount > 0){\n            /* solhint-disable avoid-tx-origin */\n            (success, ret) = req.tokenContract.call{gas: req.tokenGas}(\n                abi.encodeWithSelector(\n                    hex\"a9059cbb\", \n                    tx.origin,\n                    req.tokenAmount\n                )\n            );\n\n            require(\n                success && (ret.length == 0 || abi.decode(ret, (bool))),\n                \"Unable to pay for relay\"\n            );\n        }\n\n        bytes32 logicStrg;\n        assembly {\n            logicStrg := sload(\n                0x360894a13ba1a3210667c828492db98dca3e2076cc3735a920a3ca505d382bbc\n            )\n        }\n\n            //Why this require is not needed: in the case that the EVM implementation \n            //sends gasleft() as req.gas  if gasleft() < req.gas (see EIP-1930),  which would end in the call reverting\n            //If the relayer made this on purpose in order to collect the payment, since all gasLeft()\n            //was sent to this call, then the next line would give an out of gas, and, as a consequence, will\n            //revert the whole transaction, and the payment will not happen\n            //But it could happen that the destination call makes a gasleft() check and decides to revert if it is\n            //not enough, in that case there might be enough gas to complete the relay and the token payment would be collected\n            //For that reason, the next require line must be left uncommented, to avoid malicious relayer attacks to destination contract\n            //methods that revert if the gasleft() is not enough to execute whatever logic they have.\n\n            require(gasleft() > req.gas,\"Not enough gas left\");\n            \n        // If there's no extra logic, then call the destination contract\n        if (logicStrg == bytes32(0)) {\n            (success, ret) = req.to.call{gas: req.gas, value: req.value}(req.data);\n        } else {\n            //If there's extra logic, delegate the execution\n            (success, ret) = (address(uint160(uint256(logicStrg)))).delegatecall(msg.data);\n        }\n    \n        //If any balance has been added then trasfer it to the owner EOA\n        uint256 balanceToTransfer = address(this).balance;\n        if ( balanceToTransfer > 0) {\n            //can't fail: req.from signed (off-chain) the request, so it must be an EOA...\n            payable(req.from).transfer(balanceToTransfer);\n        }\n    }\n\n    function getChainID() private pure returns (uint256 id) {\n        assembly {\n            id := chainid()\n        }\n    }\n\n    function _verifySig(\n        bytes32 domainSeparator,\n        bytes32 suffixData,\n        ForwardRequest memory req,\n        bytes memory sig\n    ) private view {\n\n        //Verify Owner\n        require(\n            getOwner() == keccak256(abi.encodePacked(req.from)),\n            \"Not the owner of the SmartWallet\"\n        );\n\n        //Verify nonce\n        require(nonce == req.nonce, \"nonce mismatch\");\n\n        require(\n            keccak256(abi.encode(\n                keccak256(\"EIP712Domain(string name,string version,uint256 chainId,address verifyingContract)\"),\n                keccak256(\"RSK Enveloping Transaction\"), //DOMAIN_NAME\n                DATA_VERSION_HASH,\n                getChainID(),\n                address(this))) == domainSeparator,\n            \"Invalid domain separator\"\n        );\n        \n        require(\n            RSKAddrValidator.safeEquals(\n                keccak256(abi.encodePacked(\n                    \"\\x19\\x01\",\n                    domainSeparator,\n                    keccak256(_getEncoded(suffixData, req)))\n                ).recover(sig), req.from), \"signature mismatch\"\n        );\n    }\n\n    function _getEncoded(\n        bytes32 suffixData,\n        ForwardRequest memory req\n    ) private pure returns (bytes memory) {\n        return\n            abi.encodePacked(\n                keccak256(\"RelayRequest(address relayHub,address from,address to,address tokenContract,uint256 value,uint256 gas,uint256 nonce,uint256 tokenAmount,uint256 tokenGas,bytes data,RelayData relayData)RelayData(uint256 gasPrice,bytes32 domainSeparator,address relayWorker,address callForwarder,address callVerifier)\"), //requestTypeHash,\n                abi.encode(\n                    req.relayHub,\n                    req.from,\n                    req.to,\n                    req.tokenContract,\n                    req.value,\n                    req.gas,\n                    req.nonce,\n                    req.tokenAmount,\n                    req.tokenGas,\n                    keccak256(req.data)\n                ),\n                suffixData\n            );\n    }\n\n    function isInitialized() external view returns (bool) {\n        \n        if (getOwner() == bytes32(0)) {\n            return false;\n        } else {\n            return true;\n        }\n    }\n\n    /**\n     * This Proxy will first charge for the deployment and then it will pass the\n     * initialization scope to the wallet logic.\n     * This function can only be called once, and it is called by the Factory during deployment\n     * @param owner - The EOA that will own the smart wallet\n     * @param logic - The address containing the custom logic where to delegate everything that is not payment-related\n     * @param tokenAddr - The Token used for payment of the deploy\n     * @param tokenRecipient - The recipient of the payment\n     * @param tokenAmount - The amount to pay\n     * @param initParams - Initialization data to pass to the custom logic's initialize(bytes) function\n     */\n\n    function initialize(\n        address owner,\n        address logic,\n        address tokenAddr,\n        address tokenRecipient,\n        uint256 tokenAmount,\n        uint256 tokenGas,\n        bytes memory initParams\n    ) external {\n\n        require(getOwner() == bytes32(0), \"already initialized\");\n\n        //To avoid re-entrancy attacks by external contracts, the first thing we do is set\n        //the variable that controls \"is initialized\"\n        //We set this instance as initialized, by\n        //storing the logic address\n        //Set the owner of this Smart Wallet\n        //slot for owner = bytes32(uint256(keccak256('eip1967.proxy.owner')) - 1) = a7b53796fd2d99cb1f5ae019b54f9e024446c3d12b483f733ccc62ed04eb126a\n        bytes32 ownerCell = keccak256(abi.encodePacked(owner));\n\n        assembly {\n            sstore(\n                0xa7b53796fd2d99cb1f5ae019b54f9e024446c3d12b483f733ccc62ed04eb126a,\n                ownerCell\n            )\n        }\n\n        //we need to initialize the contract\n        if (tokenAmount > 0) {\n\n            (bool success, bytes memory ret ) = tokenAddr.call{gas:tokenGas}(abi.encodeWithSelector(\n                hex\"a9059cbb\",\n                tokenRecipient,\n                tokenAmount));\n\n            require(\n            success && (ret.length == 0 || abi.decode(ret, (bool))),\n            \"Unable to pay for deployment\");\n        }\n\n        //If no logic is injected at this point, then the Forwarder will never accept a custom logic (since\n        //the initialize function can only be called once)\n        if (logic != address(0) ) {\n\n            //Initialize function of custom wallet logic must be initialize(bytes) = 439fab91\n            (bool success, ) = logic.delegatecall(abi.encodeWithSelector(\n                hex\"439fab91\",\n                initParams\n            ));\n\n            require(\n                success,\n                \"initialize call in logic failed\"\n            );\n\n            assembly {\n                //The slot used complies with EIP-1967, obtained as:\n                //bytes32(uint256(keccak256('eip1967.proxy.implementation')) - 1)\n                sstore(\n                    0x360894a13ba1a3210667c828492db98dca3e2076cc3735a920a3ca505d382bbc,\n                    logic\n                )\n            }\n        }\n    }\n\n    function _fallback() private {\n        //Proxy code to the logic (if any)\n\n        bytes32 logicStrg;\n        assembly {\n            logicStrg := sload(\n                0x360894a13ba1a3210667c828492db98dca3e2076cc3735a920a3ca505d382bbc\n            )\n        }\n\n        if (bytes32(0) != logicStrg) {\n            //If the storage cell is not empty\n            \n            address logic = address(uint160(uint256(logicStrg)));\n\n            assembly {\n                let ptr := mload(0x40)\n\n                // (1) copy incoming call data\n                calldatacopy(ptr, 0, calldatasize())\n\n                // (2) forward call to logic contract\n                let result := delegatecall(\n                    gas(),\n                    logic,\n                    ptr,\n                    calldatasize(),\n                    0,\n                    0\n                )\n                let size := returndatasize()\n\n                // (3) retrieve return data\n                returndatacopy(ptr, 0, size)\n\n                // (4) forward return data back to caller\n                switch result\n                    case 0 {\n                        revert(ptr, size)\n                    }\n                    default {\n                        return(ptr, size)\n                    }\n            }\n        }\n    }\n\n    /**\n     * @dev Fallback function that delegates calls to the address returned by `_implementation()`. Will run if call data\n     * is empty.\n     */\n    receive() payable external {\n        _fallback();\n    }\n\n    /**\n     * @dev Fallback function that delegates calls to the address returned by `_implementation()`. Will run if no other\n     * function in the contract matches the call data.\n     */\n    fallback() payable external  {\n        _fallback();\n    }\n}\n",
  "sourcePath": "/Users/patricio/workspace/research/privacy/aztec/smart-wallet-react/contracts/smart-wallet/contracts/smartwallet/CustomSmartWallet.sol",
  "compiler": {
    "name": "solc",
    "version": "0.6.12+commit.27d51765.Emscripten.clang"
  },
  "schemaVersion": "3.4.3",
  "updatedAt": "2022-01-28T15:51:22.014Z",
  "networkType": "ethereum",
  "devdoc": {
    "kind": "dev",
    "methods": {
      "initialize(address,address,address,address,uint256,uint256,bytes)": {
        "params": {
          "initParams": "- Initialization data to pass to the custom logic's initialize(bytes) function",
          "logic": "- The address containing the custom logic where to delegate everything that is not payment-related",
          "owner": "- The EOA that will own the smart wallet",
          "tokenAddr": "- The Token used for payment of the deploy",
          "tokenAmount": "- The amount to pay",
          "tokenRecipient": "- The recipient of the payment"
        }
      }
    },
    "version": 1
  },
  "userdoc": {
    "kind": "user",
    "methods": {
      "initialize(address,address,address,address,uint256,uint256,bytes)": {
        "notice": "This Proxy will first charge for the deployment and then it will pass the initialization scope to the wallet logic. This function can only be called once, and it is called by the Factory during deployment"
      }
    },
    "version": 1
  }
}