{
  "contractName": "CustomSmartWalletFactory",
  "abi": [
    {
      "inputs": [
        {
          "internalType": "address",
          "name": "forwarderTemplate",
          "type": "address"
        }
      ],
      "stateMutability": "nonpayable",
      "type": "constructor"
    },
    {
      "anonymous": false,
      "inputs": [
        {
          "indexed": true,
          "internalType": "address",
          "name": "addr",
          "type": "address"
        },
        {
          "indexed": false,
          "internalType": "uint256",
          "name": "salt",
          "type": "uint256"
        }
      ],
      "name": "AboutToDeploy",
      "type": "event"
    },
    {
      "anonymous": false,
      "inputs": [
        {
          "indexed": true,
          "internalType": "address",
          "name": "addr",
          "type": "address"
        },
        {
          "indexed": false,
          "internalType": "uint256",
          "name": "salt",
          "type": "uint256"
        }
      ],
      "name": "Deployed",
      "type": "event"
    },
    {
      "inputs": [],
      "name": "DATA_VERSION_HASH",
      "outputs": [
        {
          "internalType": "bytes32",
          "name": "",
          "type": "bytes32"
        }
      ],
      "stateMutability": "view",
      "type": "function",
      "constant": true
    },
    {
      "inputs": [],
      "name": "masterCopy",
      "outputs": [
        {
          "internalType": "address",
          "name": "",
          "type": "address"
        }
      ],
      "stateMutability": "view",
      "type": "function",
      "constant": true
    },
    {
      "inputs": [],
      "name": "runtimeCodeHash",
      "outputs": [
        {
          "internalType": "bytes32",
          "name": "",
          "type": "bytes32"
        }
      ],
      "stateMutability": "view",
      "type": "function",
      "constant": true
    },
    {
      "inputs": [
        {
          "internalType": "address",
          "name": "from",
          "type": "address"
        }
      ],
      "name": "nonce",
      "outputs": [
        {
          "internalType": "uint256",
          "name": "",
          "type": "uint256"
        }
      ],
      "stateMutability": "view",
      "type": "function",
      "constant": true
    },
    {
      "inputs": [
        {
          "internalType": "address",
          "name": "owner",
          "type": "address"
        },
        {
          "internalType": "address",
          "name": "recoverer",
          "type": "address"
        },
        {
          "internalType": "address",
          "name": "logic",
          "type": "address"
        },
        {
          "internalType": "uint256",
          "name": "index",
          "type": "uint256"
        },
        {
          "internalType": "bytes",
          "name": "initParams",
          "type": "bytes"
        },
        {
          "internalType": "bytes",
          "name": "sig",
          "type": "bytes"
        }
      ],
      "name": "createUserSmartWallet",
      "outputs": [],
      "stateMutability": "nonpayable",
      "type": "function"
    },
    {
      "inputs": [
        {
          "components": [
            {
              "internalType": "address",
              "name": "relayHub",
              "type": "address"
            },
            {
              "internalType": "address",
              "name": "from",
              "type": "address"
            },
            {
              "internalType": "address",
              "name": "to",
              "type": "address"
            },
            {
              "internalType": "address",
              "name": "tokenContract",
              "type": "address"
            },
            {
              "internalType": "address",
              "name": "recoverer",
              "type": "address"
            },
            {
              "internalType": "uint256",
              "name": "value",
              "type": "uint256"
            },
            {
              "internalType": "uint256",
              "name": "nonce",
              "type": "uint256"
            },
            {
              "internalType": "uint256",
              "name": "tokenAmount",
              "type": "uint256"
            },
            {
              "internalType": "uint256",
              "name": "tokenGas",
              "type": "uint256"
            },
            {
              "internalType": "uint256",
              "name": "index",
              "type": "uint256"
            },
            {
              "internalType": "bytes",
              "name": "data",
              "type": "bytes"
            }
          ],
          "internalType": "struct IForwarder.DeployRequest",
          "name": "req",
          "type": "tuple"
        },
        {
          "internalType": "bytes32",
          "name": "domainSeparator",
          "type": "bytes32"
        },
        {
          "internalType": "bytes32",
          "name": "suffixData",
          "type": "bytes32"
        },
        {
          "internalType": "bytes",
          "name": "sig",
          "type": "bytes"
        }
      ],
      "name": "relayedUserSmartWalletCreation",
      "outputs": [],
      "stateMutability": "nonpayable",
      "type": "function"
    },
    {
      "inputs": [
        {
          "internalType": "address",
          "name": "owner",
          "type": "address"
        },
        {
          "internalType": "address",
          "name": "recoverer",
          "type": "address"
        },
        {
          "internalType": "address",
          "name": "logic",
          "type": "address"
        },
        {
          "internalType": "bytes32",
          "name": "initParamsHash",
          "type": "bytes32"
        },
        {
          "internalType": "uint256",
          "name": "index",
          "type": "uint256"
        }
      ],
      "name": "getSmartWalletAddress",
      "outputs": [
        {
          "internalType": "address",
          "name": "",
          "type": "address"
        }
      ],
      "stateMutability": "view",
      "type": "function",
      "constant": true
    },
    {
      "inputs": [],
      "name": "getCreationBytecode",
      "outputs": [
        {
          "internalType": "bytes",
          "name": "",
          "type": "bytes"
        }
      ],
      "stateMutability": "view",
      "type": "function",
      "constant": true
    },
    {
      "inputs": [
        {
          "components": [
            {
              "internalType": "address",
              "name": "relayHub",
              "type": "address"
            },
            {
              "internalType": "address",
              "name": "from",
              "type": "address"
            },
            {
              "internalType": "address",
              "name": "to",
              "type": "address"
            },
            {
              "internalType": "address",
              "name": "tokenContract",
              "type": "address"
            },
            {
              "internalType": "address",
              "name": "recoverer",
              "type": "address"
            },
            {
              "internalType": "uint256",
              "name": "value",
              "type": "uint256"
            },
            {
              "internalType": "uint256",
              "name": "nonce",
              "type": "uint256"
            },
            {
              "internalType": "uint256",
              "name": "tokenAmount",
              "type": "uint256"
            },
            {
              "internalType": "uint256",
              "name": "tokenGas",
              "type": "uint256"
            },
            {
              "internalType": "uint256",
              "name": "index",
              "type": "uint256"
            },
            {
              "internalType": "bytes",
              "name": "data",
              "type": "bytes"
            }
          ],
          "internalType": "struct IForwarder.DeployRequest",
          "name": "req",
          "type": "tuple"
        },
        {
          "internalType": "bytes32",
          "name": "suffixData",
          "type": "bytes32"
        }
      ],
      "name": "_getEncoded",
      "outputs": [
        {
          "internalType": "bytes",
          "name": "",
          "type": "bytes"
        }
      ],
      "stateMutability": "pure",
      "type": "function",
      "constant": true
    }
  ],
  "bytecode": "0x608060405234801561001057600080fd5b5060405161151a38038061151a83398101604081905261002f91610054565b600080546001600160a01b0319166001600160a01b0392909216919091179055610082565b600060208284031215610065578081fd5b81516001600160a01b038116811461007b578182fd5b9392505050565b611489806100916000396000f3fe608060405234801561001057600080fd5b50600436106100935760003560e01c8063b3104ef611610066578063b3104ef6146100f3578063c63ae75b146100fb578063d500b74f1461010e578063de841a5714610121578063f5e87b391461014157610093565b80632046776e1461009857806370ae92d2146100b657806375caeafa146100c9578063a619486e146100de575b600080fd5b6100a0610149565b6040516100ad919061115e565b60405180910390f35b6100a06100c4366004610bd4565b6101a6565b6100dc6100d7366004610c46565b6101c1565b005b6100e6610342565b6040516100ad9190611021565b6100a0610351565b6100e6610109366004610bef565b610375565b6100dc61011c366004610d34565b6103ee565b61013461012f366004610cf1565b61053f565b6040516100ad91906111b1565b6101346105ec565b6000805460405161018b916a363d3d373d3d3d3d363d7360a81b916001600160a01b03909116906d5af43d923d90803e602b57fd5bf360901b90602001610e6b565b60405160208183030381529060405280519060200120905090565b6001600160a01b031660009081526001602052604090205490565b60008888888888886040516020016101de96959493929190610e1e565b6040516020818303038152906040528051906020012090506000816040516020016102099190610f6c565b60405160208183030381529060405280519060200120905061026c61026685858080601f01602080910402602001604051908101604052809392919081815260200183838082843760009201919091525086939250506106429050565b8b61068d565b6102915760405162461bcd60e51b8152600401610288906112a0565b60405180910390fd5b60608a896000806000808c8c6040516024016102b4989796959493929190611035565b60408051601f198184030181529190526020810180516001600160e01b031663736ee38d60e11b17905290506103346102eb6105ec565b8c8c8c8b8b6040516102fe929190610f40565b604051908190038120610318949392918f90602001610ddb565b60405160208183030381529060405280519060200120836106e8565b505050505050505050505050565b6000546001600160a01b031681565b7fad7c5bef027816a800da1736444fb58a807ef4c9603b7848673f7e3a68eb14a581565b600060ff60f81b308787878787604051602001610396959493929190610ddb565b604051602081830303815290604052805190602001206103b46105ec565b80516020918201206040516103cc9594939201610ec2565b60408051601f1981840301815291905280516020909101209695505050505050565b84516001600160a01b031633146104175760405162461bcd60e51b815260040161028890611269565b61045985858585858080601f0160208091040260200160405190810160405280939291908181526020018383808284376000920191909152506107ca92505050565b6020808601516001600160a01b0316600090815260019182905260409020805490910190556105376104896105ec565b866020015187608001518860400151896101400151805190602001208a61012001516040516020016104bf959493929190610ddb565b60408051601f198184030181528282528051602091820120908a0151918a015160608b015160e08c01516101008d01516101408e015194966105089695329392916024016110a4565b60408051601f198184030181529190526020810180516001600160e01b031663736ee38d60e11b1790526106e8565b505050505050565b8151602080840151604080860151606087810151608089015160a08a015160c08b015160e08c01516101008d01516101208e01516101408f01518051908d01209951979c7f200a8451c34a8ddf49e79cd1ffbeee051150f19ccd8d791a2a9440ec4a5c39689c6105b49c919b919a99016110f9565b60408051601f19818403018152908290526105d492918590602001610f13565b60405160208183030381529060405290505b92915050565b60005460405160609161062e916a363d3d373d3d3d3d363d7360a81b916001600160a01b0316906d5af43d923d90803e602b57fd5bf360901b90602001610fb8565b604051602081830303815290604052905090565b600081516041146106655760405162461bcd60e51b8152600401610288906111fb565b60208201516040830151606084015160001a61068386828585610936565b9695505050505050565b6000816001600160a01b0316836001600160a01b03161480156106cd575073dcc703c0e500b653ca82273b7bfad8045d85a4706001600160a01b03841614155b80156106e157506001600160a01b03831615155b9392505050565b6000828451602086016000f59050803b61070157600080fd5b6000816001600160a01b03168360405161071b9190610f50565b6000604051808303816000865af19150503d8060008114610758576040519150601f19603f3d011682016040523d82523d6000602084013e61075d565b606091505b505090508061077e5760405162461bcd60e51b815260040161028890611392565b816001600160a01b03167fb03c53b28e78a88e31607a27e1fa48234dce28d5d9d9ec7b295aeb02e674a1e18560001c6040516107ba919061115e565b60405180910390a2509392505050565b60c08401516020808601516001600160a01b03166000908152600190915260409020541461080a5760405162461bcd60e51b815260040161028890611232565b827f8b73c3c69bb8fe3d512ecc4cf759cc79239f7b179b0ffacaa9a75d522b39400f7fd41b7f69f4d7734774d21b5548d74704ad02f9f1545db63927a1d58479c576c87fad7c5bef027816a800da1736444fb58a807ef4c9603b7848673f7e3a68eb14a5610876610a2c565b3060405160200161088b959493929190611167565b60405160208183030381529060405280519060200120146108be5760405162461bcd60e51b81526004016102889061135b565b61091461090a82856108d0888761053f565b80516020918201206040516108e6939201610f9d565b6040516020818303038152906040528051906020012061064290919063ffffffff16565b856020015161068d565b6109305760405162461bcd60e51b8152600401610288906113c9565b50505050565b60007f7fffffffffffffffffffffffffffffff5d576e7357a4501ddfe92f46681b20a08211156109785760405162461bcd60e51b8152600401610288906112d7565b8360ff16601b148061098d57508360ff16601c145b6109a95760405162461bcd60e51b815260040161028890611319565b6000600186868686604051600081526020016040526040516109ce9493929190611193565b6020604051602081039080840390855afa1580156109f0573d6000803e3d6000fd5b5050604051601f1901519150506001600160a01b038116610a235760405162461bcd60e51b8152600401610288906111c4565b95945050505050565b4690565b80356001600160a01b03811681146105e657600080fd5b60008083601f840112610a58578182fd5b50813567ffffffffffffffff811115610a6f578182fd5b602083019150836020828501011115610a8757600080fd5b9250929050565b600082601f830112610a9e578081fd5b813567ffffffffffffffff811115610ab4578182fd5b610ac7601f8201601f1916602001611400565b9150808252836020828501011115610ade57600080fd5b8060208401602084013760009082016020015292915050565b6000610160808385031215610b0a578182fd5b610b1381611400565b915050610b208383610a30565b8152610b2f8360208401610a30565b6020820152610b418360408401610a30565b6040820152610b538360608401610a30565b6060820152610b658360808401610a30565b608082015260a082013560a082015260c082013560c082015260e082013560e08201526101008083013581830152506101208083013581830152506101408083013567ffffffffffffffff811115610bbc57600080fd5b610bc885828601610a8e565b82840152505092915050565b600060208284031215610be5578081fd5b6106e18383610a30565b600080600080600060a08688031215610c06578081fd5b610c108787610a30565b9450610c1f8760208801610a30565b9350610c2e8760408801610a30565b94979396509394606081013594506080013592915050565b60008060008060008060008060c0898b031215610c61578283fd5b610c6b8a8a610a30565b9750610c7a8a60208b01610a30565b9650610c898a60408b01610a30565b955060608901359450608089013567ffffffffffffffff80821115610cac578485fd5b610cb88c838d01610a47565b909650945060a08b0135915080821115610cd0578384fd5b50610cdd8b828c01610a47565b999c989b5096995094979396929594505050565b60008060408385031215610d03578182fd5b823567ffffffffffffffff811115610d19578283fd5b610d2585828601610af7565b95602094909401359450505050565b600080600080600060808688031215610d4b578081fd5b853567ffffffffffffffff80821115610d62578283fd5b610d6e89838a01610af7565b965060208801359550604088013594506060880135915080821115610d91578283fd5b50610d9e88828901610a47565b969995985093965092949392505050565b60008151808452610dc7816020860160208601611427565b601f01601f19169290920160200192915050565b6bffffffffffffffffffffffff19606096871b8116825294861b851660148201529290941b9092166028820152603c810191909152605c810191909152607c0190565b60006bffffffffffffffffffffffff19808960601b168352808860601b166014840152808760601b1660288401525084603c8301528284605c8401379101605c0190815295945050505050565b74ffffffffffffffffffffffffffffffffffffffffff1993909316835260609190911b6bffffffffffffffffffffffff1916600b83015271ffffffffffffffffffffffffffffffffffff1916601f820152602d0190565b7fff0000000000000000000000000000000000000000000000000000000000000094909416845260609290921b6bffffffffffffffffffffffff191660018401526015830152603582015260550190565b60008482528351610f2b816020850160208801611427565b60209201918201929092526040019392505050565b6000828483379101908152919050565b60008251610f62818460208701611427565b9190910192915050565b7f19457468657265756d205369676e6564204d6573736167653a0a3332000000008152601c810191909152603c0190565b61190160f01b81526002810192909252602282015260420190565b68602d3d8160093d39f360b81b815274ffffffffffffffffffffffffffffffffffffffffff1993909316600984015260609190911b6bffffffffffffffffffffffff1916601483015271ffffffffffffffffffffffffffffffffffff1916602882015260360190565b6001600160a01b0391909116815260200190565b60006001600160a01b03808b168352808a166020840152808916604084015280881660608401525060ff8616608083015260ff851660a083015260e060c08301528260e0830152610100838582850137828401810191909152601f909201601f19160101979650505050505050565b60006001600160a01b03808a168352808916602084015280881660408401528087166060840152508460808301528360a083015260e060c08301526110ec60e0830184610daf565b9998505050505050505050565b6001600160a01b039b8c168152998b1660208b0152978a1660408a0152958916606089015293909716608087015260a086019190915260c085015260e08401949094526101008301939093526101208201929092526101408101919091526101600190565b90815260200190565b9485526020850193909352604084019190915260608301526001600160a01b0316608082015260a00190565b93845260ff9290921660208401526040830152606082015260800190565b6000602082526106e16020830184610daf565b60208082526018908201527f45434453413a20696e76616c6964207369676e61747572650000000000000000604082015260600190565b6020808252601f908201527f45434453413a20696e76616c6964207369676e6174757265206c656e67746800604082015260600190565b6020808252600e908201527f6e6f6e6365206d69736d61746368000000000000000000000000000000000000604082015260600190565b6020808252600e908201527f496e76616c69642063616c6c6572000000000000000000000000000000000000604082015260600190565b60208082526011908201527f496e76616c6964207369676e6174757265000000000000000000000000000000604082015260600190565b60208082526022908201527f45434453413a20696e76616c6964207369676e6174757265202773272076616c604082015261756560f01b606082015260800190565b60208082526022908201527f45434453413a20696e76616c6964207369676e6174757265202776272076616c604082015261756560f01b606082015260800190565b60208082526018908201527f496e76616c696420646f6d61696e20736570617261746f720000000000000000604082015260600190565b60208082526017908201527f556e61626c6520746f20696e697469616c697a65205357000000000000000000604082015260600190565b60208082526012908201527f7369676e6174757265206d69736d617463680000000000000000000000000000604082015260600190565b60405181810167ffffffffffffffff8111828210171561141f57600080fd5b604052919050565b60005b8381101561144257818101518382015260200161142a565b83811115610930575050600091015256fea26469706673582212204c32315379085cbc6f1e0a2f4e156302c6de6fa991a93294b59a672bc05b08fb64736f6c634300060c0033",
  "immutableReferences": {},
  "source": "// SPDX-License-Identifier:MIT\npragma solidity ^0.6.12;\npragma experimental ABIEncoderV2;\n\nimport \"@openzeppelin/contracts/cryptography/ECDSA.sol\";\nimport \"../interfaces/ICustomSmartWalletFactory.sol\";\nimport \"../utils/RSKAddrValidator.sol\";\n\n/* solhint-disable no-inline-assembly */\n/* solhint-disable avoid-low-level-calls */\n\n/**\n====================================================================================================================================================\n                                           Documentation of the Proxy Code being deployed \n====================================================================================================================================================\nA simple proxy that delegates every call to an address.\nThis ProxyA is the one instantiated per smart wallet, and it will receive the Forwarder as MC. So every call\nmade to this proxy will end up in MC.\nMC is controlled by the same developer who created the factory, and .\nFor the transaction execution (execute() call), MC will do the signature verification and payment. Then it will \nexecute the request, and, if a logic was defined, it will forward the flow to it before returning.\n\n\n\n\n====================================================================================================================================================\n                                                            PROXY A\n====================================================================================================================================================\n                                                    Constructor\n====================================================================================================================================================\nPC | OPCODE|   Mnemonic     |   Stack [top, bottom]                      | Comments\n----------------------------------------------------------------------------------------------------------------------------------------------------\n0  | 60 2D | PUSH1 2D       | [45]                                       | Size of runtime code\n2  | 3D    | RETURNDATASIZE | [0, 45]                                    | Before any external call, returdatasize = 0 (cheaper than PUSH1 00)\n3  | 81    | DUP2           | [45, 0, 45]                                |\n4  | 60 09 | PUSH1 09       | [9, 45, 0, 45]                             | Size of constructor code\n6  | 3D    | RETURNDATASIZE | [0, 9, 45, 0, 45]                          | \n7  | 39    | CODECOPY       | [0, 45]                                    | Mem[0:44] = address(this).code[9:53]\n8  | F3    | RETURN         | []                                         | return Mem[0:44]                   \n\n====================================================================================================================================================\n                                                    Runtime Code\n====================================================================================================================================================\nPC | OPCODE|   Mnemonic     |   Stack [top, bottom]                       | Comments\n----------------------------------------------------------------------------------------------------------------------------------\n0  | 36    | CALLDATASIZE   | [msg.data.size]                             |\n1  | 3D    | RETURNDATASIZE | [0, msg.data.size]                          |\n2  | 3D    | RETURNDATASIZE | [0, 0, msg.data.size]                       |\n3  | 37    | CALLDATACOPY   | []                                          | Mem[0:msg.data.size-1] = msg.data[0:msg.data.size-1]\n4  | 3D    | RETURNDATASIZE | [0]                                         |\n5  | 3D    | RETURNDATASIZE | [0, 0]                                      |\n6  | 3D    | RETURNDATASIZE | [0, 0, 0]                                   |\n7  | 3D    | RETURNDATASIZE | [0, 0, 0, 0]                                |\n8  | 36    | CALLDATASIZE   | [msg.data.size, 0, 0, 0, 0]                 |\n9  | 3D    | RETURNDATASIZE | [0, msg.data.size, 0, 0, 0, 0]              |\n10 | 73 MC | PUSH20 MC      | [mcAddr,0, msg.data.size, 0, 0, 0, 0]       | mcAddr = address of master Copy, injected by factory\n31 | 5A    | GAS            | [rGas, mcAddr,0, msg.data.size, 0, 0, 0, 0] | rGas = remaining gas\n32 | F4    | DELEGATECALL   | [isSuccess, 0, 0]                           | isSuccess, Mem[0:0] = address(mcAddr).delegateCall.gas(rGas)(Mem[0:msg.data.size-1])\n33 | 3D    | RETURNDATASIZE | [rds, isSuccess, 0, 0]                      | rds = size of what the logic called returned\n34 | 92    | SWAP3          | [0, isSuccess, 0, rds]                      |\n35 | 3D    | RETURNDATASIZE | [rds, 0, isSuccess, 0, rds]                 |\n36 | 90    | SWAP1          | [0, rds, isSuccess, 0, rds]                 |\n37 | 80    | DUP1           | [0, 0, rds, isSuccess, 0, rds]              |\n38 | 3E    | RETURNDATACOPY | [isSuccess, 0, rds]                         | Mem[0:rds-1] = RETURNDATA[0:rds-1]\n39 | 60 2B | PUSH1 2B       | [43, isSuccess, 0, rds]                     |\n41 | 57    | JUMPI          | [0, rds]                                    | if(isSuccess) then jump to PC=43\n42 | FD    | REVERT         | []                                          | revert(Mem[0, rds-1])\n43 | 5B    | JUMPDEST       | [0, rds]                                    |\n44 | F3    | RETURN         | []                                          | return(Mem[0, rds-1])\n */\n\n/** Factory of Proxies to the CustomSmartWallet (Forwarder)\nThe Forwarder itself is a Template with portions delegated to a custom logic (it is also a proxy) */\ncontract CustomSmartWalletFactory is ICustomSmartWalletFactory {\n    using ECDSA for bytes32;\n \n    bytes11 private constant RUNTIME_START = hex\"363D3D373D3D3D3D363D73\";\n    bytes14 private constant RUNTIME_END = hex\"5AF43D923D90803E602B57FD5BF3\";\n    address public masterCopy; // this is the ForwarderProxy contract that will be proxied\n    bytes32 public constant DATA_VERSION_HASH = keccak256(\"2\");\n\n    // Nonces of senders, used to prevent replay attacks\n    mapping(address => uint256) private nonces;\n\n    /**\n     * @param forwarderTemplate It implements all the payment and execution needs,\n     * it pays for the deployment during initialization, and it pays for the transaction\n     * execution on each execute() call.\n     * It also acts a a proxy to a logic contract. Any unrecognized function will be forwarded to this custom logic (if it exists)\n     */\n    constructor(address forwarderTemplate) public {\n        masterCopy = forwarderTemplate;\n    }\n\n\n    function runtimeCodeHash() external override view returns (bytes32){\n        return keccak256(\n            abi.encodePacked(RUNTIME_START, masterCopy, RUNTIME_END)\n        );\n    }\n\n    function nonce(address from) public view override returns (uint256) {\n        return nonces[from];\n    }\n\n    function createUserSmartWallet(\n        address owner,\n        address recoverer,\n        address logic,\n        uint256 index,\n        bytes calldata initParams,\n        bytes calldata sig\n    ) external override {\n        bytes32 _hash = keccak256(abi.encodePacked(\n            owner,\n            recoverer,\n            logic,\n            index,\n            initParams\n        ));\n        bytes32 message = keccak256(abi.encodePacked(\"\\x19Ethereum Signed Message:\\n32\", _hash));\n        require(RSKAddrValidator.safeEquals(message.recover(sig),owner), \"Invalid signature\");\n        \n        //e6ddc71a  =>  initialize(address owner,address logic,address tokenAddr,address tokenRecipient,uint256 tokenAmount,uint256 tokenGas,bytes initParams)\n        bytes memory initData =\n            abi.encodeWithSelector(\n                hex\"e6ddc71a\",\n                owner,\n                logic,\n                address(0), // This \"gas-funded\" call does not pay with tokens\n                address(0),\n                0,\n                0, //No token transfer\n                initParams\n            );\n\n        deploy(\n            getCreationBytecode(),\n            keccak256(\n                abi.encodePacked(\n                    owner,\n                    recoverer,\n                    logic,\n                    keccak256(initParams),\n                    index\n                )\n            ),\n            initData\n        );\n    }\n\n    function relayedUserSmartWalletCreation(\n        IForwarder.DeployRequest memory req,\n        bytes32 domainSeparator,\n        bytes32 suffixData,\n        bytes calldata sig\n    ) external override {\n        (sig);\n        require(msg.sender == req.relayHub, \"Invalid caller\");\n        _verifySig(req, domainSeparator, suffixData, sig);\n        nonces[req.from]++;\n\n        //e6ddc71a  =>  initialize(address owner,address logic,address tokenAddr,address tokenRecipient,uint256 tokenAmount,uint256 tokenGas,bytes initParams)\n        //a9059cbb = transfer(address _to, uint256 _value) public returns (bool success)\n        //initParams (req.data) must not contain the function selector for the logic initialization function\n        /* solhint-disable avoid-tx-origin */\n        deploy(\n            getCreationBytecode(),\n            keccak256(\n                abi.encodePacked(\n                    req.from,\n                    req.recoverer,\n                    req.to,\n                    keccak256(req.data),\n                    req.index\n                )\n            ),\n            abi.encodeWithSelector(\n                hex\"e6ddc71a\",\n                req.from,\n                req.to,\n                req.tokenContract,\n                tx.origin,\n                req.tokenAmount,\n                req.tokenGas,\n                req.data\n            )\n        );\n    }\n\n    /**\n     * Calculates the Smart Wallet address for an owner EOA, wallet logic, and specific initialization params\n     * @param owner - EOA of the owner of the smart wallet\n     * @param recoverer - Address of that can be used by some contracts to give specific roles to the caller (e.g, a recoverer)\n     * @param logic - Custom logic to use in the smart wallet (address(0) if no extra logic needed)\n     * @param initParamsHash - If there's a custom logic, these are the params to call initialize(bytes) (function sig must not be included). Only the hash value is passed\n     * @param index - Allows to create many addresses for the same owner|recoverer|logic|initParams\n     */\n    function getSmartWalletAddress(\n        address owner,\n        address recoverer,\n        address logic,\n        bytes32 initParamsHash,\n        uint256 index\n    ) external view override returns (address) {\n        return\n            address(\n                uint160(\n                    uint256(\n                        keccak256(\n                            abi.encodePacked(\n                                bytes1(0xff),\n                                address(this),\n                                keccak256(\n                                    abi.encodePacked(\n                                        owner,\n                                        recoverer,\n                                        logic,\n                                        initParamsHash,\n                                        index\n                                    )\n                                ),\n                                keccak256(getCreationBytecode())\n                            )\n                        )\n                    )\n                )\n            );\n    }\n\n    function deploy(\n        bytes memory code,\n        bytes32 salt,\n        bytes memory initdata\n    ) internal returns (address addr) {\n        //Deployment of the Smart Wallet\n        /* solhint-disable-next-line no-inline-assembly */\n        assembly {\n            addr := create2(0, add(code, 0x20), mload(code), salt)\n            if iszero(extcodesize(addr)) {\n                revert(0, 0)\n            }\n        }\n\n        //Since the init code determines the address of the smart wallet, any initialization\n        //required is done via the runtime code, to avoid the parameters impacting on the resulting address\n\n        /* solhint-disable-next-line avoid-low-level-calls */\n        (bool success, ) = addr.call(initdata);\n\n        require(success, \"Unable to initialize SW\");\n\n        //No info is returned, an event is emitted to inform the new deployment\n        emit Deployed(addr, uint256(salt));\n    }\n\n    // Returns the proxy code to that is deployed on every Smart Wallet creation\n    function getCreationBytecode() public view override returns (bytes memory) {\n        //The code to install:  constructor, runtime start, master copy, runtime end\n        return\n            abi.encodePacked(\n                hex\"602D3D8160093D39F3\",\n                RUNTIME_START,\n                masterCopy,\n                RUNTIME_END\n            );\n    }\n\n    function _getEncoded(\n        IForwarder.DeployRequest memory req,\n        bytes32 suffixData\n    ) public pure returns (bytes memory) {\n        return\n            abi.encodePacked(\n                keccak256(\n                    \"RelayRequest(address relayHub,address from,address to,address tokenContract,address recoverer,uint256 value,uint256 nonce,uint256 tokenAmount,uint256 tokenGas,uint256 index,bytes data,RelayData relayData)RelayData(uint256 gasPrice,bytes32 domainSeparator,address relayWorker,address callForwarder,address callVerifier)\"\n                ),\n                abi.encode(\n                    req.relayHub,\n                    req.from,\n                    req.to,\n                    req.tokenContract,\n                    req.recoverer,\n                    req.value,\n                    req.nonce,\n                    req.tokenAmount,\n                    req.tokenGas,\n                    req.index,\n                    keccak256(req.data)\n                ),\n                suffixData\n            );\n    }\n\n    function getChainID() internal pure returns (uint256 id) {\n        /* solhint-disable no-inline-assembly */\n        assembly {\n            id := chainid()\n        }\n    }\n\n    function _verifySig(\n        IForwarder.DeployRequest memory req,\n        bytes32 domainSeparator,\n        bytes32 suffixData,\n        bytes memory sig\n    ) internal view {\n        //Verify nonce\n        require(nonces[req.from] == req.nonce, \"nonce mismatch\");\n\n        //Verify Domain separator\n        require(\n            keccak256(\n                abi.encode(\n                    keccak256(\n                        \"EIP712Domain(string name,string version,uint256 chainId,address verifyingContract)\"\n                    ), //EIP712DOMAIN_TYPEHASH\n                    keccak256(\"RSK Enveloping Transaction\"), // DOMAIN_NAME\n                    DATA_VERSION_HASH,\n                    getChainID(),\n                    address(this)\n                )\n            ) == domainSeparator,\n            \"Invalid domain separator\"\n        );\n\n        require(\n            RSKAddrValidator.safeEquals(\n                keccak256(\n                    abi.encodePacked(\n                        \"\\x19\\x01\",\n                        domainSeparator,\n                        keccak256(_getEncoded(req, suffixData))\n                    )\n                )\n                    .recover(sig),\n                req.from\n            ),\n            \"signature mismatch\"\n        );\n    }\n}\n",
  "sourcePath": "/Users/patricio/workspace/research/privacy/aztec/smart-wallet-react/contracts/smart-wallet/contracts/factory/CustomSmartWalletFactory.sol",
  "compiler": {
    "name": "solc",
    "version": "0.6.12+commit.27d51765.Emscripten.clang"
  },
  "schemaVersion": "3.4.3",
  "updatedAt": "2022-01-17T14:17:26.012Z",
  "networkType": "ethereum",
  "devdoc": {
    "kind": "dev",
    "methods": {
      "constructor": {
        "params": {
          "forwarderTemplate": "It implements all the payment and execution needs, it pays for the deployment during initialization, and it pays for the transaction execution on each execute() call. It also acts a a proxy to a logic contract. Any unrecognized function will be forwarded to this custom logic (if it exists)"
        }
      },
      "getSmartWalletAddress(address,address,address,bytes32,uint256)": {
        "params": {
          "index": "- Allows to create many addresses for the same owner|recoverer|logic|initParams",
          "initParamsHash": "- If there's a custom logic, these are the params to call initialize(bytes) (function sig must not be included). Only the hash value is passed",
          "logic": "- Custom logic to use in the smart wallet (address(0) if no extra logic needed)",
          "owner": "- EOA of the owner of the smart wallet",
          "recoverer": "- Address of that can be used by some contracts to give specific roles to the caller (e.g, a recoverer)"
        }
      }
    },
    "version": 1
  },
  "userdoc": {
    "kind": "user",
    "methods": {
      "getSmartWalletAddress(address,address,address,bytes32,uint256)": {
        "notice": "Calculates the Smart Wallet address for an owner EOA, wallet logic, and specific initialization params"
      }
    },
    "notice": "Factory of Proxies to the CustomSmartWallet (Forwarder) The Forwarder itself is a Template with portions delegated to a custom logic (it is also a proxy) ",
    "version": 1
  }
}