{
  "contractName": "SmartWallet",
  "abi": [
    {
      "inputs": [],
      "name": "DATA_VERSION_HASH",
      "outputs": [
        {
          "internalType": "bytes32",
          "name": "",
          "type": "bytes32"
        }
      ],
      "stateMutability": "view",
      "type": "function",
      "constant": true
    },
    {
      "inputs": [],
      "name": "nonce",
      "outputs": [
        {
          "internalType": "uint256",
          "name": "",
          "type": "uint256"
        }
      ],
      "stateMutability": "view",
      "type": "function",
      "constant": true
    },
    {
      "stateMutability": "payable",
      "type": "receive",
      "payable": true
    },
    {
      "inputs": [
        {
          "internalType": "bytes32",
          "name": "domainSeparator",
          "type": "bytes32"
        },
        {
          "internalType": "bytes32",
          "name": "suffixData",
          "type": "bytes32"
        },
        {
          "components": [
            {
              "internalType": "address",
              "name": "relayHub",
              "type": "address"
            },
            {
              "internalType": "address",
              "name": "from",
              "type": "address"
            },
            {
              "internalType": "address",
              "name": "to",
              "type": "address"
            },
            {
              "internalType": "address",
              "name": "tokenContract",
              "type": "address"
            },
            {
              "internalType": "uint256",
              "name": "value",
              "type": "uint256"
            },
            {
              "internalType": "uint256",
              "name": "gas",
              "type": "uint256"
            },
            {
              "internalType": "uint256",
              "name": "nonce",
              "type": "uint256"
            },
            {
              "internalType": "uint256",
              "name": "tokenAmount",
              "type": "uint256"
            },
            {
              "internalType": "uint256",
              "name": "tokenGas",
              "type": "uint256"
            },
            {
              "internalType": "bytes",
              "name": "data",
              "type": "bytes"
            }
          ],
          "internalType": "struct IForwarder.ForwardRequest",
          "name": "req",
          "type": "tuple"
        },
        {
          "internalType": "bytes",
          "name": "sig",
          "type": "bytes"
        }
      ],
      "name": "verify",
      "outputs": [],
      "stateMutability": "view",
      "type": "function",
      "constant": true
    },
    {
      "inputs": [
        {
          "internalType": "address",
          "name": "owner",
          "type": "address"
        },
        {
          "internalType": "address",
          "name": "factory",
          "type": "address"
        },
        {
          "internalType": "address",
          "name": "swTemplate",
          "type": "address"
        },
        {
          "internalType": "address",
          "name": "destinationContract",
          "type": "address"
        },
        {
          "internalType": "uint256",
          "name": "index",
          "type": "uint256"
        },
        {
          "internalType": "bytes",
          "name": "data",
          "type": "bytes"
        }
      ],
      "name": "recover",
      "outputs": [
        {
          "internalType": "bool",
          "name": "success",
          "type": "bool"
        },
        {
          "internalType": "bytes",
          "name": "ret",
          "type": "bytes"
        }
      ],
      "stateMutability": "payable",
      "type": "function",
      "payable": true
    },
    {
      "inputs": [
        {
          "internalType": "address",
          "name": "to",
          "type": "address"
        },
        {
          "internalType": "bytes",
          "name": "data",
          "type": "bytes"
        }
      ],
      "name": "directExecute",
      "outputs": [
        {
          "internalType": "bool",
          "name": "success",
          "type": "bool"
        },
        {
          "internalType": "bytes",
          "name": "ret",
          "type": "bytes"
        }
      ],
      "stateMutability": "payable",
      "type": "function",
      "payable": true
    },
    {
      "inputs": [
        {
          "internalType": "bytes32",
          "name": "domainSeparator",
          "type": "bytes32"
        },
        {
          "internalType": "bytes32",
          "name": "suffixData",
          "type": "bytes32"
        },
        {
          "components": [
            {
              "internalType": "address",
              "name": "relayHub",
              "type": "address"
            },
            {
              "internalType": "address",
              "name": "from",
              "type": "address"
            },
            {
              "internalType": "address",
              "name": "to",
              "type": "address"
            },
            {
              "internalType": "address",
              "name": "tokenContract",
              "type": "address"
            },
            {
              "internalType": "uint256",
              "name": "value",
              "type": "uint256"
            },
            {
              "internalType": "uint256",
              "name": "gas",
              "type": "uint256"
            },
            {
              "internalType": "uint256",
              "name": "nonce",
              "type": "uint256"
            },
            {
              "internalType": "uint256",
              "name": "tokenAmount",
              "type": "uint256"
            },
            {
              "internalType": "uint256",
              "name": "tokenGas",
              "type": "uint256"
            },
            {
              "internalType": "bytes",
              "name": "data",
              "type": "bytes"
            }
          ],
          "internalType": "struct IForwarder.ForwardRequest",
          "name": "req",
          "type": "tuple"
        },
        {
          "internalType": "bytes",
          "name": "sig",
          "type": "bytes"
        }
      ],
      "name": "execute",
      "outputs": [
        {
          "internalType": "bool",
          "name": "success",
          "type": "bool"
        },
        {
          "internalType": "bytes",
          "name": "ret",
          "type": "bytes"
        }
      ],
      "stateMutability": "payable",
      "type": "function",
      "payable": true
    },
    {
      "inputs": [],
      "name": "isInitialized",
      "outputs": [
        {
          "internalType": "bool",
          "name": "",
          "type": "bool"
        }
      ],
      "stateMutability": "view",
      "type": "function",
      "constant": true
    },
    {
      "inputs": [
        {
          "internalType": "address",
          "name": "owner",
          "type": "address"
        },
        {
          "internalType": "address",
          "name": "tokenAddr",
          "type": "address"
        },
        {
          "internalType": "address",
          "name": "tokenRecipient",
          "type": "address"
        },
        {
          "internalType": "uint256",
          "name": "tokenAmount",
          "type": "uint256"
        },
        {
          "internalType": "uint256",
          "name": "tokenGas",
          "type": "uint256"
        }
      ],
      "name": "initialize",
      "outputs": [],
      "stateMutability": "nonpayable",
      "type": "function"
    }
  ],
  "bytecode": "0x608060405234801561001057600080fd5b506115cb806100206000396000f3fe60806040526004361061007f5760003560e01c8063a6b63eb81161004e578063a6b63eb8146100fd578063affed0e01461011f578063b3104ef614610141578063bb219fee1461015657610086565b8063244f53b51461008b578063392e53cd146100b55780633b54ccc3146100d757806368f4153b146100ea57610086565b3661008657005b600080fd5b61009e610099366004610def565b610176565b6040516100ac929190611185565b60405180910390f35b3480156100c157600080fd5b506100ca61026e565b6040516100ac919061117a565b61009e6100e5366004610d03565b61028e565b61009e6100f8366004610e62565b6103f5565b34801561010957600080fd5b5061011d610118366004610d95565b610655565b005b34801561012b57600080fd5b506101346107be565b6040516100ac91906111c1565b34801561014d57600080fd5b506101346107c4565b34801561016257600080fd5b5061011d610171366004610e62565b6107e8565b600060603360405160200161018b9190610f8f565b604051602081830303815290604052805190602001206101a9610831565b146101cf5760405162461bcd60e51b81526004016101c6906114be565b60405180910390fd5b846001600160a01b03163485856040516101ea929190611058565b60006040518083038185875af1925050503d8060008114610227576040519150601f19603f3d011682016040523d82523d6000602084013e61022c565b606091505b50909250905047156102665760405133904780156108fc02916000818181858888f19350505050158015610264573d6000803e3d6000fd5b505b935093915050565b600080610279610831565b14156102875750600061028b565b5060015b90565b60006060600060ff60f81b898b33896040516020016102af93929190610fac565b604051602081830303815290604052805190602001208a6040516020016102d69190611084565b604051602081830303815290604052805190602001206040516020016102ff9493929190610fda565b60408051601f19818403018152919052805160209091012090506001600160a01b03811630146103415760405162461bcd60e51b81526004016101c69061124b565b6001600160a01b038716156103b457866001600160a01b031634868660405161036b929190611058565b60006040518083038185875af1925050503d80600081146103a8576040519150601f19603f3d011682016040523d82523d6000602084013e6103ad565b606091505b5090935091505b47156103e85760405133904780156108fc02916000818181858888f193505050501580156103e6573d6000803e3d6000fd5b505b5097509795505050505050565b6000606084600001516001600160a01b0316336001600160a01b03161461042e5760405162461bcd60e51b81526004016101c6906112f0565b61047087878787878080601f01602080910402602001604051908101604052809392919081815260200183838082843760009201919091525061085692505050565b60008054600101905560e08501511561056d5784606001516001600160a01b0316856101000151328760e001516040516024016104ae929190611108565b60408051601f198184030181529181526020820180516001600160e01b031663a9059cbb60e01b179052516104e39190611068565b60006040518083038160008787f1925050503d8060008114610521576040519150601f19603f3d011682016040523d82523d6000602084013e610526565b606091505b5090925090508180156105515750805115806105515750808060200190518101906105519190610e42565b61056d5760405162461bcd60e51b81526004016101c6906113e2565b8460a001515a116105905760405162461bcd60e51b81526004016101c690611450565b84604001516001600160a01b03168560a0015186608001518761012001516040516105bb9190611068565b600060405180830381858888f193505050503d80600081146105f9576040519150601f19603f3d011682016040523d82523d6000602084013e6105fe565b606091505b50909250905047801561064a5785602001516001600160a01b03166108fc829081150290604051600060405180830381858888f19350505050158015610648573d6000803e3d6000fd5b505b509550959350505050565b600061065f610831565b1461067c5760405162461bcd60e51b81526004016101c690611369565b60008560405160200161068f9190610f8f565b604051602081830303815290604052805190602001209050807fa7b53796fd2d99cb1f5ae019b54f9e024446c3d12b483f733ccc62ed04eb126a5560008311156107b65760006060866001600160a01b03168487876040516024016106f5929190611108565b60408051601f198184030181529181526020820180516001600160e01b031663a9059cbb60e01b1790525161072a9190611068565b60006040518083038160008787f1925050503d8060008114610768576040519150601f19603f3d011682016040523d82523d6000602084013e61076d565b606091505b50915091508180156107975750805115806107975750808060200190518101906107979190610e42565b6107b35760405162461bcd60e51b81526004016101c690611419565b50505b505050505050565b60005481565b7fad7c5bef027816a800da1736444fb58a807ef4c9603b7848673f7e3a68eb14a581565b61082a85858585858080601f01602080910402602001604051908101604052809392919081815260200183838082843760009201919091525061085692505050565b5050505050565b7fa7b53796fd2d99cb1f5ae019b54f9e024446c3d12b483f733ccc62ed04eb126a5490565b6020808301516040516108699201610f8f565b60405160208183030381529060405280519060200120610887610831565b146108a45760405162461bcd60e51b81526004016101c6906114be565b8160c00151600054146108c95760405162461bcd60e51b81526004016101c6906112b9565b837f8b73c3c69bb8fe3d512ecc4cf759cc79239f7b179b0ffacaa9a75d522b39400f7fd41b7f69f4d7734774d21b5548d74704ad02f9f1545db63927a1d58479c576c87fad7c5bef027816a800da1736444fb58a807ef4c9603b7848673f7e3a68eb14a56109356109f5565b3060405160200161094a9594939291906111ca565b604051602081830303815290604052805190602001201461097d5760405162461bcd60e51b81526004016101c690611487565b6109d36109c9828661098f87876109f9565b80516020918201206040516109a59392016110ed565b60405160208183030381529060405280519060200120610aa090919063ffffffff16565b8360200151610aeb565b6109ef5760405162461bcd60e51b81526004016101c6906114f3565b50505050565b4690565b8051602080830151604080850151606086810151608088015160a089015160c08a015160e08b01516101008c01516101208d01518051908c01209851969b7f6486b11d9eff72be816affda6d7d3d5576509f5db7da10e75dd77b76104f1b1d9b610a689b919a91999801611121565b60408051601f1981840301815290829052610a889291869060200161102b565b60405160208183030381529060405290505b92915050565b60008151604114610ac35760405162461bcd60e51b81526004016101c690611282565b60208201516040830151606084015160001a610ae186828585610b46565b9695505050505050565b6000816001600160a01b0316836001600160a01b0316148015610b2b575073dcc703c0e500b653ca82273b7bfad8045d85a4706001600160a01b03841614155b8015610b3f57506001600160a01b03831615155b9392505050565b60007f7fffffffffffffffffffffffffffffff5d576e7357a4501ddfe92f46681b20a0821115610b885760405162461bcd60e51b81526004016101c690611327565b8360ff16601b1480610b9d57508360ff16601c145b610bb95760405162461bcd60e51b81526004016101c6906113a0565b600060018686868660405160008152602001604052604051610bde94939291906111f6565b6020604051602081039080840390855afa158015610c00573d6000803e3d6000fd5b5050604051601f1901519150506001600160a01b038116610c335760405162461bcd60e51b81526004016101c690611214565b95945050505050565b80356001600160a01b0381168114610a9a57600080fd5b60008083601f840112610c64578182fd5b50813567ffffffffffffffff811115610c7b578182fd5b602083019150836020828501011115610c9357600080fd5b9250929050565b600082601f830112610caa578081fd5b813567ffffffffffffffff811115610cc0578182fd5b610cd3601f8201601f191660200161152a565b9150808252836020828501011115610cea57600080fd5b8060208401602084013760009082016020015292915050565b600080600080600080600060c0888a031215610d1d578283fd5b610d278989610c3c565b9650610d368960208a01610c3c565b9550610d458960408a01610c3c565b9450610d548960608a01610c3c565b93506080880135925060a088013567ffffffffffffffff811115610d76578283fd5b610d828a828b01610c53565b989b979a50959850939692959293505050565b600080600080600060a08688031215610dac578081fd5b8535610db78161157d565b94506020860135610dc78161157d565b93506040860135610dd78161157d565b94979396509394606081013594506080013592915050565b600080600060408486031215610e03578283fd5b8335610e0e8161157d565b9250602084013567ffffffffffffffff811115610e29578283fd5b610e3586828701610c53565b9497909650939450505050565b600060208284031215610e53578081fd5b81518015158114610b3f578182fd5b600080600080600060808688031215610e79578081fd5b8535945060208601359350604086013567ffffffffffffffff80821115610e9e578283fd5b818801915061014080838b031215610eb4578384fd5b610ebd8161152a565b9050610ec98a84610c3c565b8152610ed88a60208501610c3c565b6020820152610eea8a60408501610c3c565b6040820152610efc8a60608501610c3c565b60608201526080830135608082015260a083013560a082015260c083013560c082015260e083013560e08201526101008084013581830152506101208084013583811115610f48578586fd5b610f548c828701610c9a565b828401525050809550506060880135915080821115610f71578283fd5b50610f7e88828901610c53565b969995985093965092949392505050565b60609190911b6bffffffffffffffffffffffff1916815260140190565b6bffffffffffffffffffffffff19606094851b811682529290931b9091166014830152602882015260480190565b7fff0000000000000000000000000000000000000000000000000000000000000094909416845260609290921b6bffffffffffffffffffffffff191660018401526015830152603582015260550190565b60008482528351611043816020850160208801611551565b60209201918201929092526040019392505050565b6000828483379101908152919050565b6000825161107a818460208701611551565b9190910192915050565b7f602d3d8160093d39f3363d3d373d3d3d3d363d73000000000000000000000000815260609190911b6bffffffffffffffffffffffff191660148201527f5af43d923d90803e602b57fd5bf3000000000000000000000000000000000000602882015260360190565b61190160f01b81526002810192909252602282015260420190565b6001600160a01b03929092168252602082015260400190565b6001600160a01b039a8b168152988a1660208a01529689166040890152949097166060870152608086019290925260a085015260c084015260e08301939093526101008201929092526101208101919091526101400190565b901515815260200190565b600083151582526040602083015282518060408401526111ac816060850160208701611551565b601f01601f1916919091016060019392505050565b90815260200190565b9485526020850193909352604084019190915260608301526001600160a01b0316608082015260a00190565b93845260ff9290921660208401526040830152606082015260800190565b60208082526018908201527f45434453413a20696e76616c6964207369676e61747572650000000000000000604082015260600190565b60208082526011908201527f496e76616c6964207265636f7665726572000000000000000000000000000000604082015260600190565b6020808252601f908201527f45434453413a20696e76616c6964207369676e6174757265206c656e67746800604082015260600190565b6020808252600e908201527f6e6f6e6365206d69736d61746368000000000000000000000000000000000000604082015260600190565b6020808252600e908201527f496e76616c69642063616c6c6572000000000000000000000000000000000000604082015260600190565b60208082526022908201527f45434453413a20696e76616c6964207369676e6174757265202773272076616c604082015261756560f01b606082015260800190565b60208082526013908201527f616c726561647920696e697469616c697a656400000000000000000000000000604082015260600190565b60208082526022908201527f45434453413a20696e76616c6964207369676e6174757265202776272076616c604082015261756560f01b606082015260800190565b60208082526017908201527f556e61626c6520746f2070617920666f722072656c6179000000000000000000604082015260600190565b6020808252601c908201527f556e61626c6520746f2070617920666f72206465706c6f796d656e7400000000604082015260600190565b60208082526013908201527f4e6f7420656e6f75676820676173206c65667400000000000000000000000000604082015260600190565b60208082526018908201527f496e76616c696420646f6d61696e20736570617261746f720000000000000000604082015260600190565b6020808252818101527f4e6f7420746865206f776e6572206f662074686520536d61727457616c6c6574604082015260600190565b60208082526012908201527f7369676e6174757265206d69736d617463680000000000000000000000000000604082015260600190565b60405181810167ffffffffffffffff8111828210171561154957600080fd5b604052919050565b60005b8381101561156c578181015183820152602001611554565b838111156109ef5750506000910152565b6001600160a01b038116811461159257600080fd5b5056fea2646970667358221220707e34554cfb446090e412e23734ce594eff3f721387827745e2dd12771f8ae364736f6c634300060c0033",
  "immutableReferences": {},
  "source": "// SPDX-License-Identifier:MIT\npragma solidity ^0.6.12;\npragma experimental ABIEncoderV2;\n\nimport \"@openzeppelin/contracts/cryptography/ECDSA.sol\";\nimport \"../interfaces/IForwarder.sol\";\nimport \"../utils/RSKAddrValidator.sol\";\n\n/* solhint-disable no-inline-assembly */\n/* solhint-disable avoid-low-level-calls */\n\ncontract SmartWallet is IForwarder {\n    \n     //slot for owner = bytes32(uint256(keccak256('eip1967.proxy.owner')) - 1) = a7b53796fd2d99cb1f5ae019b54f9e024446c3d12b483f733ccc62ed04eb126a\n    bytes32 private constant _OWNER_SLOT = 0xa7b53796fd2d99cb1f5ae019b54f9e024446c3d12b483f733ccc62ed04eb126a;\n    using ECDSA for bytes32;\n\n    uint256 public override nonce;\n    bytes32 public constant DATA_VERSION_HASH = keccak256(\"2\");    \n\n    function verify(\n        bytes32 domainSeparator,\n        bytes32 suffixData,\n        ForwardRequest memory req,\n        bytes calldata sig\n    ) external override view {\n\n        _verifySig(domainSeparator, suffixData, req, sig);\n    }\n\n    function getOwner() private view returns (bytes32 owner){\n        assembly {\n            owner := sload(\n                _OWNER_SLOT\n            )\n        }\n    }\n    \n\n       function recover(address owner, address factory, address swTemplate, address destinationContract, uint256 index, bytes calldata data) external payable returns (bool success, bytes memory ret){\n\n        address wallet = \n            address(\n                uint160(\n                    uint256(\n                        keccak256(\n                            abi.encodePacked(\n                                bytes1(0xff),\n                                factory,\n                                keccak256(abi.encodePacked(owner, msg.sender, index)), //salt\n                                keccak256(abi.encodePacked(hex\"602D3D8160093D39F3363D3D373D3D3D3D363D73\", swTemplate, hex\"5AF43D923D90803E602B57FD5BF3\"))\n                            )\n                        )\n                    )\n                )\n            );\n\n        require(wallet == address(this), \"Invalid recoverer\");\n\n        if(destinationContract != address(0)){\n            (success, ret) = destinationContract.call{value: msg.value}(data);\n        }\n        \n        //If any balance has been added then trasfer it to the owner EOA\n        if (address(this).balance > 0) {\n            //sent any value left to the recoverer account\n            payable(msg.sender).transfer(address(this).balance);\n        }\n        \n    }\n\n\n    function directExecute(address to, bytes calldata data) external override payable returns (\n            bool success,\n            bytes memory ret  \n        )\n    {\n\n        //Verify Owner\n        require(\n            getOwner() == keccak256(abi.encodePacked(msg.sender)),\n            \"Not the owner of the SmartWallet\"\n        );\n\n        (success, ret) = to.call{value: msg.value}(data);\n\n        //If any balance has been added then trasfer it to the owner EOA\n        if (address(this).balance > 0) {\n            //can't fail: req.from signed (off-chain) the request, so it must be an EOA...\n            payable(msg.sender).transfer(address(this).balance);\n        }\n   \n    }\n    \n    function execute(\n        bytes32 domainSeparator,\n        bytes32 suffixData,\n        ForwardRequest memory req,\n        bytes calldata sig\n    )\n        external\n        override\n        payable\n        returns (\n            bool success,\n            bytes memory ret  \n        )\n    {\n\n        (sig);\n        require(msg.sender == req.relayHub, \"Invalid caller\");\n\n        _verifySig(domainSeparator, suffixData, req, sig);\n        nonce++;\n\n        if(req.tokenAmount > 0){\n            /* solhint-disable avoid-tx-origin */\n            (success, ret) = req.tokenContract.call{gas: req.tokenGas}(\n                abi.encodeWithSelector(\n                    hex\"a9059cbb\", //transfer(address,uint256)\n                    tx.origin,\n                    req.tokenAmount\n                )\n            );\n\n            require(\n                success && (ret.length == 0 || abi.decode(ret, (bool))),\n                \"Unable to pay for relay\"\n            );\n        }\n\n            \n            //Why this require is not needed: in the case that the EVM implementation \n            //sends gasleft() as req.gas  if gasleft() < req.gas (see EIP-1930),  which would end in the call reverting\n            //If the relayer made this on purpose in order to collect the payment, since all gasLeft()\n            //was sent to this call, then the next line would give an out of gas, and, as a consequence, will\n            //revert the whole transaction, and the payment will not happen\n            //But it could happen that the destination call makes a gasleft() check and decides to revert if it is\n            //not enough, in that case there might be enough gas to complete the relay and the token payment would be collected\n            //For that reason, the next require line must be left uncommented, to avoid malicious relayer attacks to destination contract\n            //methods that revert if the gasleft() is not enough to execute whatever logic they have.\n\n            require(gasleft() > req.gas,\"Not enough gas left\");\n            (success, ret) = req.to.call{gas: req.gas, value: req.value}(req.data);\n     \n            //If any balance has been added then trasfer it to the owner EOA\n            uint256 balanceToTransfer = address(this).balance;\n            if ( balanceToTransfer > 0) {\n                //can't fail: req.from signed (off-chain) the request, so it must be an EOA...\n                payable(req.from).transfer(balanceToTransfer);\n            }\n  \n    }\n\n   \n\n    function getChainID() private pure returns (uint256 id) {\n        assembly {\n            id := chainid()\n        }\n    }\n\n    function _verifySig(\n        bytes32 domainSeparator,\n        bytes32 suffixData,\n        ForwardRequest memory req,\n        bytes memory sig\n    ) private view {\n\n        //Verify Owner\n        require(\n            getOwner() == keccak256(abi.encodePacked(req.from)),\n            \"Not the owner of the SmartWallet\"\n        );\n\n        //Verify nonce\n        require(nonce == req.nonce, \"nonce mismatch\");\n\n        require(\n            keccak256(abi.encode(\n                keccak256(\"EIP712Domain(string name,string version,uint256 chainId,address verifyingContract)\"), //hex\"8b73c3c69bb8fe3d512ecc4cf759cc79239f7b179b0ffacaa9a75d522b39400f\",\n                keccak256(\"RSK Enveloping Transaction\"), //DOMAIN_NAME hex\"d41b7f69f4d7734774d21b5548d74704ad02f9f1545db63927a1d58479c576c8\"\n                DATA_VERSION_HASH,\n                getChainID(),\n                address(this))) == domainSeparator,\n            \"Invalid domain separator\"\n        );\n        \n        require(\n            RSKAddrValidator.safeEquals(\n                keccak256(abi.encodePacked(\n                    \"\\x19\\x01\",\n                    domainSeparator,\n                    keccak256(_getEncoded(suffixData, req)))\n                ).recover(sig), req.from), \"signature mismatch\"\n        );\n    }\n\n    function _getEncoded(\n        bytes32 suffixData,\n        ForwardRequest memory req\n    ) private pure returns (bytes memory) {\n        return\n            abi.encodePacked(\n                keccak256(\"RelayRequest(address relayHub,address from,address to,address tokenContract,uint256 value,uint256 gas,uint256 nonce,uint256 tokenAmount,uint256 tokenGas,bytes data,RelayData relayData)RelayData(uint256 gasPrice,bytes32 domainSeparator,address relayWorker,address callForwarder,address callVerifier)\"), //requestTypeHash,\n                abi.encode(\n                    req.relayHub,\n                    req.from,\n                    req.to,\n                    req.tokenContract,\n                    req.value,\n                    req.gas,\n                    req.nonce,\n                    req.tokenAmount,\n                    req.tokenGas,              \n                    keccak256(req.data)\n                ),\n                suffixData\n            );\n    }\n\n    function isInitialized() external view returns (bool) {\n        \n        if (getOwner() == bytes32(0)) {\n            return false;\n        } else {\n            return true;\n        }\n    }\n\n    /**\n     * This Proxy will first charge for the deployment and then it will pass the\n     * initialization scope to the wallet logic.\n     * This function can only be called once, and it is called by the Factory during deployment\n     * @param owner - The EOA that will own the smart wallet\n     * @param tokenAddr - The Token used for payment of the deploy\n     * @param tokenRecipient - Recipient of payment\n     * @param tokenAmount - Amount to pay\n     */\n\n    function initialize(\n        address owner,\n        address tokenAddr,\n        address tokenRecipient,\n        uint256 tokenAmount,\n        uint256 tokenGas\n    ) external  {\n\n        require(getOwner() == bytes32(0), \"already initialized\");\n\n        //Set the owner of this Smart Wallet\n        //slot for owner = bytes32(uint256(keccak256('eip1967.proxy.owner')) - 1) = a7b53796fd2d99cb1f5ae019b54f9e024446c3d12b483f733ccc62ed04eb126a\n        bytes32 ownerCell = keccak256(abi.encodePacked(owner));\n\n        assembly {\n            sstore(\n                _OWNER_SLOT,\n                ownerCell\n            )\n        }\n\n        //we need to initialize the contract\n        if (tokenAmount > 0) {\n            (bool success, bytes memory ret ) = tokenAddr.call{gas: tokenGas}(abi.encodeWithSelector(\n                hex\"a9059cbb\", //transfer(address,uint256)\n                tokenRecipient,\n                tokenAmount));\n\n            require(\n            success && (ret.length == 0 || abi.decode(ret, (bool))),\n            \"Unable to pay for deployment\");\n        }\n\n    }\n\n    /* solhint-disable no-empty-blocks */\n    receive() payable external  {\n        \n    }\n}\n",
  "sourcePath": "/Users/patricio/workspace/research/privacy/aztec/smart-wallet-react/contracts/smart-wallet/contracts/smartwallet/SmartWallet.sol",
  "compiler": {
    "name": "solc",
    "version": "0.6.12+commit.27d51765.Emscripten.clang"
  },
  "schemaVersion": "3.4.3",
  "updatedAt": "2022-01-11T21:28:12.833Z",
  "networkType": "ethereum",
  "devdoc": {
    "kind": "dev",
    "methods": {
      "initialize(address,address,address,uint256,uint256)": {
        "params": {
          "owner": "- The EOA that will own the smart wallet",
          "tokenAddr": "- The Token used for payment of the deploy",
          "tokenAmount": "- Amount to pay",
          "tokenRecipient": "- Recipient of payment"
        }
      }
    },
    "version": 1
  },
  "userdoc": {
    "kind": "user",
    "methods": {
      "initialize(address,address,address,uint256,uint256)": {
        "notice": "This Proxy will first charge for the deployment and then it will pass the initialization scope to the wallet logic. This function can only be called once, and it is called by the Factory during deployment"
      }
    },
    "version": 1
  }
}