{
  "contractName": "SmartWalletFactory",
  "abi": [
    {
      "inputs": [
        {
          "internalType": "address",
          "name": "forwarderTemplate",
          "type": "address"
        }
      ],
      "stateMutability": "nonpayable",
      "type": "constructor"
    },
    {
      "anonymous": false,
      "inputs": [
        {
          "indexed": true,
          "internalType": "address",
          "name": "addr",
          "type": "address"
        },
        {
          "indexed": false,
          "internalType": "uint256",
          "name": "salt",
          "type": "uint256"
        }
      ],
      "name": "AboutToDeploy",
      "type": "event"
    },
    {
      "anonymous": false,
      "inputs": [
        {
          "indexed": true,
          "internalType": "address",
          "name": "addr",
          "type": "address"
        },
        {
          "indexed": false,
          "internalType": "uint256",
          "name": "salt",
          "type": "uint256"
        }
      ],
      "name": "Deployed",
      "type": "event"
    },
    {
      "inputs": [],
      "name": "DATA_VERSION_HASH",
      "outputs": [
        {
          "internalType": "bytes32",
          "name": "",
          "type": "bytes32"
        }
      ],
      "stateMutability": "view",
      "type": "function",
      "constant": true
    },
    {
      "inputs": [],
      "name": "masterCopy",
      "outputs": [
        {
          "internalType": "address",
          "name": "",
          "type": "address"
        }
      ],
      "stateMutability": "view",
      "type": "function",
      "constant": true
    },
    {
      "inputs": [],
      "name": "runtimeCodeHash",
      "outputs": [
        {
          "internalType": "bytes32",
          "name": "",
          "type": "bytes32"
        }
      ],
      "stateMutability": "view",
      "type": "function",
      "constant": true
    },
    {
      "inputs": [
        {
          "internalType": "address",
          "name": "from",
          "type": "address"
        }
      ],
      "name": "nonce",
      "outputs": [
        {
          "internalType": "uint256",
          "name": "",
          "type": "uint256"
        }
      ],
      "stateMutability": "view",
      "type": "function",
      "constant": true
    },
    {
      "inputs": [
        {
          "internalType": "address",
          "name": "owner",
          "type": "address"
        },
        {
          "internalType": "address",
          "name": "recoverer",
          "type": "address"
        },
        {
          "internalType": "uint256",
          "name": "index",
          "type": "uint256"
        },
        {
          "internalType": "bytes",
          "name": "sig",
          "type": "bytes"
        }
      ],
      "name": "createUserSmartWallet",
      "outputs": [],
      "stateMutability": "nonpayable",
      "type": "function"
    },
    {
      "inputs": [
        {
          "components": [
            {
              "internalType": "address",
              "name": "relayHub",
              "type": "address"
            },
            {
              "internalType": "address",
              "name": "from",
              "type": "address"
            },
            {
              "internalType": "address",
              "name": "to",
              "type": "address"
            },
            {
              "internalType": "address",
              "name": "tokenContract",
              "type": "address"
            },
            {
              "internalType": "address",
              "name": "recoverer",
              "type": "address"
            },
            {
              "internalType": "uint256",
              "name": "value",
              "type": "uint256"
            },
            {
              "internalType": "uint256",
              "name": "nonce",
              "type": "uint256"
            },
            {
              "internalType": "uint256",
              "name": "tokenAmount",
              "type": "uint256"
            },
            {
              "internalType": "uint256",
              "name": "tokenGas",
              "type": "uint256"
            },
            {
              "internalType": "uint256",
              "name": "index",
              "type": "uint256"
            },
            {
              "internalType": "bytes",
              "name": "data",
              "type": "bytes"
            }
          ],
          "internalType": "struct IForwarder.DeployRequest",
          "name": "req",
          "type": "tuple"
        },
        {
          "internalType": "bytes32",
          "name": "domainSeparator",
          "type": "bytes32"
        },
        {
          "internalType": "bytes32",
          "name": "suffixData",
          "type": "bytes32"
        },
        {
          "internalType": "bytes",
          "name": "sig",
          "type": "bytes"
        }
      ],
      "name": "relayedUserSmartWalletCreation",
      "outputs": [],
      "stateMutability": "nonpayable",
      "type": "function"
    },
    {
      "inputs": [
        {
          "internalType": "address",
          "name": "owner",
          "type": "address"
        },
        {
          "internalType": "address",
          "name": "recoverer",
          "type": "address"
        },
        {
          "internalType": "uint256",
          "name": "index",
          "type": "uint256"
        }
      ],
      "name": "getSmartWalletAddress",
      "outputs": [
        {
          "internalType": "address",
          "name": "",
          "type": "address"
        }
      ],
      "stateMutability": "view",
      "type": "function",
      "constant": true
    },
    {
      "inputs": [],
      "name": "getCreationBytecode",
      "outputs": [
        {
          "internalType": "bytes",
          "name": "",
          "type": "bytes"
        }
      ],
      "stateMutability": "view",
      "type": "function",
      "constant": true
    },
    {
      "inputs": [
        {
          "components": [
            {
              "internalType": "address",
              "name": "relayHub",
              "type": "address"
            },
            {
              "internalType": "address",
              "name": "from",
              "type": "address"
            },
            {
              "internalType": "address",
              "name": "to",
              "type": "address"
            },
            {
              "internalType": "address",
              "name": "tokenContract",
              "type": "address"
            },
            {
              "internalType": "address",
              "name": "recoverer",
              "type": "address"
            },
            {
              "internalType": "uint256",
              "name": "value",
              "type": "uint256"
            },
            {
              "internalType": "uint256",
              "name": "nonce",
              "type": "uint256"
            },
            {
              "internalType": "uint256",
              "name": "tokenAmount",
              "type": "uint256"
            },
            {
              "internalType": "uint256",
              "name": "tokenGas",
              "type": "uint256"
            },
            {
              "internalType": "uint256",
              "name": "index",
              "type": "uint256"
            },
            {
              "internalType": "bytes",
              "name": "data",
              "type": "bytes"
            }
          ],
          "internalType": "struct IForwarder.DeployRequest",
          "name": "req",
          "type": "tuple"
        },
        {
          "internalType": "bytes32",
          "name": "suffixData",
          "type": "bytes32"
        }
      ],
      "name": "_getEncoded",
      "outputs": [
        {
          "internalType": "bytes",
          "name": "",
          "type": "bytes"
        }
      ],
      "stateMutability": "pure",
      "type": "function",
      "constant": true
    }
  ],
  "bytecode": "0x608060405234801561001057600080fd5b506040516113e53803806113e583398101604081905261002f91610054565b600080546001600160a01b0319166001600160a01b0392909216919091179055610082565b600060208284031215610065578081fd5b81516001600160a01b038116811461007b578182fd5b9392505050565b611354806100916000396000f3fe608060405234801561001057600080fd5b50600436106100935760003560e01c8063b3104ef611610066578063b3104ef6146100f1578063d500b74f146100f9578063dc89745f1461010e578063de841a5714610121578063f5e87b391461014157610093565b80632046776e146100985780636088665e146100b657806370ae92d2146100d6578063a619486e146100e9575b600080fd5b6100a0610149565b6040516100ad9190610ff1565b60405180910390f35b6100c96100c4366004610ba3565b6101a6565b6040516100ad9190610f0e565b6100a06100e4366004610b88565b610219565b6100c9610234565b6100a0610243565b61010c610107366004610c95565b610267565b005b61010c61011c366004610be3565b6103a0565b61013461012f366004610c52565b6104f3565b6040516100ad9190611044565b6101346105a0565b6000805460405161018b916a363d3d373d3d3d3d363d7360a81b916001600160a01b03909116906d5af43d923d90803e602b57fd5bf360901b90602001610d68565b60405160208183030381529060405280519060200120905090565b600060ff60f81b308585856040516020016101c393929190610d3a565b604051602081830303815290604052805190602001206101e16105a0565b80516020918201206040516101f99594939201610dbf565b60408051601f198184030181529190528051602090910120949350505050565b6001600160a01b031660009081526001602052604090205490565b6000546001600160a01b031681565b7fad7c5bef027816a800da1736444fb58a807ef4c9603b7848673f7e3a68eb14a581565b84516001600160a01b031633146102995760405162461bcd60e51b81526004016102909061111c565b60405180910390fd5b6102db85858585858080601f0160208091040260200160405190810160405280939291908181526020018383808284376000920191909152506105f692505050565b6020808601516001600160a01b03166000908152600191829052604090208054909101905561039861030b6105a0565b60208088015160808901516101208a01516040516103299401610d3a565b6040516020818303038152906040528051906020012087602001518860600151328a60e001518b6101000151604051602401610369959493929190610f58565b60408051601f198184030181529190526020810180516001600160e01b03166314d6c7d760e31b179052610762565b505050505050565b6000308686866040516020016103b99493929190610cff565b6040516020818303038152906040528051906020012090506000816040516020016103e49190610e59565b60405160208183030381529060405280519060200120905061044761044185858080601f01602080910402602001604051908101604052809392919081815260200183838082843760009201919091525086939250506108449050565b8861088f565b6104635760405162461bcd60e51b815260040161029090611153565b606087600080600080604051602401610480959493929190610f22565b60408051601f198184030181529190526020810180516001600160e01b03166314d6c7d760e31b17905290506104e86104b76105a0565b8989896040516020016104cc93929190610d3a565b6040516020818303038152906040528051906020012083610762565b505050505050505050565b8151602080840151604080860151606087810151608089015160a08a015160c08b015160e08c01516101008d01516101208e01516101408f01518051908d01209951979c7f200a8451c34a8ddf49e79cd1ffbeee051150f19ccd8d791a2a9440ec4a5c39689c6105689c919b919a9901610f8c565b60408051601f198184030181529082905261058892918590602001610e10565b60405160208183030381529060405290505b92915050565b6000546040516060916105e2916a363d3d373d3d3d3d363d7360a81b916001600160a01b0316906d5af43d923d90803e602b57fd5bf360901b90602001610ea5565b604051602081830303815290604052905090565b60c08401516020808601516001600160a01b0316600090815260019091526040902054146106365760405162461bcd60e51b8152600401610290906110e5565b827f8b73c3c69bb8fe3d512ecc4cf759cc79239f7b179b0ffacaa9a75d522b39400f7fd41b7f69f4d7734774d21b5548d74704ad02f9f1545db63927a1d58479c576c87fad7c5bef027816a800da1736444fb58a807ef4c9603b7848673f7e3a68eb14a56106a26108ea565b306040516020016106b7959493929190610ffa565b60405160208183030381529060405280519060200120146106ea5760405162461bcd60e51b81526004016102909061120e565b61074061073682856106fc88876104f3565b8051602091820120604051610712939201610e8a565b6040516020818303038152906040528051906020012061084490919063ffffffff16565b856020015161088f565b61075c5760405162461bcd60e51b81526004016102909061127c565b50505050565b6000828451602086016000f59050803b61077b57600080fd5b6000816001600160a01b0316836040516107959190610e3d565b6000604051808303816000865af19150503d80600081146107d2576040519150601f19603f3d011682016040523d82523d6000602084013e6107d7565b606091505b50509050806107f85760405162461bcd60e51b815260040161029090611245565b816001600160a01b03167fb03c53b28e78a88e31607a27e1fa48234dce28d5d9d9ec7b295aeb02e674a1e18560001c6040516108349190610ff1565b60405180910390a2509392505050565b600081516041146108675760405162461bcd60e51b8152600401610290906110ae565b60208201516040830151606084015160001a610885868285856108ee565b9695505050505050565b6000816001600160a01b0316836001600160a01b03161480156108cf575073dcc703c0e500b653ca82273b7bfad8045d85a4706001600160a01b03841614155b80156108e357506001600160a01b03831615155b9392505050565b4690565b60007f7fffffffffffffffffffffffffffffff5d576e7357a4501ddfe92f46681b20a08211156109305760405162461bcd60e51b81526004016102909061118a565b8360ff16601b148061094557508360ff16601c145b6109615760405162461bcd60e51b8152600401610290906111cc565b6000600186868686604051600081526020016040526040516109869493929190611026565b6020604051602081039080840390855afa1580156109a8573d6000803e3d6000fd5b5050604051601f1901519150506001600160a01b0381166109db5760405162461bcd60e51b815260040161029090611077565b95945050505050565b80356001600160a01b038116811461059a57600080fd5b60008083601f840112610a0c578182fd5b50813567ffffffffffffffff811115610a23578182fd5b602083019150836020828501011115610a3b57600080fd5b9250929050565b600082601f830112610a52578081fd5b813567ffffffffffffffff811115610a68578182fd5b610a7b601f8201601f19166020016112b3565b9150808252836020828501011115610a9257600080fd5b8060208401602084013760009082016020015292915050565b6000610160808385031215610abe578182fd5b610ac7816112b3565b915050610ad483836109e4565b8152610ae383602084016109e4565b6020820152610af583604084016109e4565b6040820152610b0783606084016109e4565b6060820152610b1983608084016109e4565b608082015260a082013560a082015260c082013560c082015260e082013560e08201526101008083013581830152506101208083013581830152506101408083013567ffffffffffffffff811115610b7057600080fd5b610b7c85828601610a42565b82840152505092915050565b600060208284031215610b99578081fd5b6108e383836109e4565b600080600060608486031215610bb7578182fd5b8335610bc281611306565b92506020840135610bd281611306565b929592945050506040919091013590565b600080600080600060808688031215610bfa578081fd5b610c0487876109e4565b9450610c1387602088016109e4565b935060408601359250606086013567ffffffffffffffff811115610c35578182fd5b610c41888289016109fb565b969995985093965092949392505050565b60008060408385031215610c64578182fd5b823567ffffffffffffffff811115610c7a578283fd5b610c8685828601610aab565b95602094909401359450505050565b600080600080600060808688031215610cac578081fd5b853567ffffffffffffffff80821115610cc3578283fd5b610ccf89838a01610aab565b965060208801359550604088013594506060880135915080821115610cf2578283fd5b50610c41888289016109fb565b6bffffffffffffffffffffffff19606095861b8116825293851b841660148201529190931b9091166028820152603c810191909152605c0190565b6bffffffffffffffffffffffff19606094851b811682529290931b9091166014830152602882015260480190565b74ffffffffffffffffffffffffffffffffffffffffff1993909316835260609190911b6bffffffffffffffffffffffff1916600b83015271ffffffffffffffffffffffffffffffffffff1916601f820152602d0190565b7fff0000000000000000000000000000000000000000000000000000000000000094909416845260609290921b6bffffffffffffffffffffffff191660018401526015830152603582015260550190565b60008482528351610e288160208501602088016112da565b60209201918201929092526040019392505050565b60008251610e4f8184602087016112da565b9190910192915050565b7f19457468657265756d205369676e6564204d6573736167653a0a3332000000008152601c810191909152603c0190565b61190160f01b81526002810192909252602282015260420190565b68602d3d8160093d39f360b81b815274ffffffffffffffffffffffffffffffffffffffffff1993909316600984015260609190911b6bffffffffffffffffffffffff1916601483015271ffffffffffffffffffffffffffffffffffff1916602882015260360190565b6001600160a01b0391909116815260200190565b6001600160a01b039586168152938516602085015291909316604083015260ff9283166060830152909116608082015260a00190565b6001600160a01b03958616815293851660208501529190931660408301526060820192909252608081019190915260a00190565b6001600160a01b039b8c168152998b1660208b0152978a1660408a0152958916606089015293909716608087015260a086019190915260c085015260e08401949094526101008301939093526101208201929092526101408101919091526101600190565b90815260200190565b9485526020850193909352604084019190915260608301526001600160a01b0316608082015260a00190565b93845260ff9290921660208401526040830152606082015260800190565b60006020825282518060208401526110638160408501602087016112da565b601f01601f19169190910160400192915050565b60208082526018908201527f45434453413a20696e76616c6964207369676e61747572650000000000000000604082015260600190565b6020808252601f908201527f45434453413a20696e76616c6964207369676e6174757265206c656e67746800604082015260600190565b6020808252600e908201527f6e6f6e6365206d69736d61746368000000000000000000000000000000000000604082015260600190565b6020808252600e908201527f496e76616c69642063616c6c6572000000000000000000000000000000000000604082015260600190565b60208082526011908201527f496e76616c6964207369676e6174757265000000000000000000000000000000604082015260600190565b60208082526022908201527f45434453413a20696e76616c6964207369676e6174757265202773272076616c604082015261756560f01b606082015260800190565b60208082526022908201527f45434453413a20696e76616c6964207369676e6174757265202776272076616c604082015261756560f01b606082015260800190565b60208082526018908201527f496e76616c696420646f6d61696e20736570617261746f720000000000000000604082015260600190565b60208082526017908201527f556e61626c6520746f20696e697469616c697a65205357000000000000000000604082015260600190565b60208082526012908201527f7369676e6174757265206d69736d617463680000000000000000000000000000604082015260600190565b60405181810167ffffffffffffffff811182821017156112d257600080fd5b604052919050565b60005b838110156112f55781810151838201526020016112dd565b8381111561075c5750506000910152565b6001600160a01b038116811461131b57600080fd5b5056fea264697066735822122013484aa4c1b4e9bce09e33eef97616996b6511cebb21b6d1391b792ee82c091964736f6c634300060c0033",
  "immutableReferences": {},
  "source": "// SPDX-License-Identifier:MIT\npragma solidity ^0.6.12;\npragma experimental ABIEncoderV2;\n\nimport \"@openzeppelin/contracts/cryptography/ECDSA.sol\";\nimport \"../interfaces/ISmartWalletFactory.sol\";\nimport \"../utils/RSKAddrValidator.sol\";\n\n/* solhint-disable no-inline-assembly */\n/* solhint-disable avoid-low-level-calls */\n\n/**\n====================================================================================================================================================\n                                           Documentation of the Proxy Code being deployed \n====================================================================================================================================================\nA simple proxy that delegates every call to an address.\nThis ProxyA is the one instantiated per smart wallet, and it will receive the Forwarder as MC. So every call\nmade to this proxy will end up in MC.\nMC is controlled by the same developer who created the factory, and .\nFor the transaction execution (execute() call), MC will do the signature verification and payment. Then it will \nexecute the request\n\n\n\n\n====================================================================================================================================================\n                                                            PROXY A\n====================================================================================================================================================\n                                                    Constructor\n====================================================================================================================================================\nPC | OPCODE|   Mnemonic     |   Stack [top, bottom]                      | Comments\n----------------------------------------------------------------------------------------------------------------------------------------------------\n0  | 60 2D | PUSH1 2D       | [45]                                       | Size of runtime code\n2  | 3D    | RETURNDATASIZE | [0, 45]                                    | Before any external call, returdatasize = 0 (cheaper than PUSH1 00)\n3  | 81    | DUP2           | [45, 0, 45]                                |\n4  | 60 09 | PUSH1 09       | [9, 45, 0, 45]                             | Size of constructor code\n6  | 3D    | RETURNDATASIZE | [0, 9, 45, 0, 45]                          | \n7  | 39    | CODECOPY       | [0, 45]                                    | Mem[0:44] = address(this).code[9:53]\n8  | F3    | RETURN         | []                                         | return Mem[0:44]                   \n\n====================================================================================================================================================\n                                                    Runtime Code\n====================================================================================================================================================\nPC | OPCODE|   Mnemonic     |   Stack [top, bottom]                       | Comments\n----------------------------------------------------------------------------------------------------------------------------------\n0  | 36    | CALLDATASIZE   | [msg.data.size]                             |\n1  | 3D    | RETURNDATASIZE | [0, msg.data.size]                          |\n2  | 3D    | RETURNDATASIZE | [0, 0, msg.data.size]                       |\n3  | 37    | CALLDATACOPY   | []                                          | Mem[0:msg.data.size-1] = msg.data[0:msg.data.size-1]\n4  | 3D    | RETURNDATASIZE | [0]                                         |\n5  | 3D    | RETURNDATASIZE | [0, 0]                                      |\n6  | 3D    | RETURNDATASIZE | [0, 0, 0]                                   |\n7  | 3D    | RETURNDATASIZE | [0, 0, 0, 0]                                |\n8  | 36    | CALLDATASIZE   | [msg.data.size, 0, 0, 0, 0]                 |\n9  | 3D    | RETURNDATASIZE | [0, msg.data.size, 0, 0, 0, 0]              |\n10 | 73 MC | PUSH20 MC      | [mcAddr,0, msg.data.size, 0, 0, 0, 0]       | mcAddr = address of master Copy, injected by factory\n31 | 5A    | GAS            | [rGas, mcAddr,0, msg.data.size, 0, 0, 0, 0] | rGas = remaining gas\n32 | F4    | DELEGATECALL   | [isSuccess, 0, 0]                           | isSuccess, Mem[0:0] = address(mcAddr).delegateCall.gas(rGas)(Mem[0:msg.data.size-1])\n33 | 3D    | RETURNDATASIZE | [rds, isSuccess, 0, 0]                      | rds = size of what the logic called returned\n34 | 92    | SWAP3          | [0, isSuccess, 0, rds]                      |\n35 | 3D    | RETURNDATASIZE | [rds, 0, isSuccess, 0, rds]                 |\n36 | 90    | SWAP1          | [0, rds, isSuccess, 0, rds]                 |\n37 | 80    | DUP1           | [0, 0, rds, isSuccess, 0, rds]              |\n38 | 3E    | RETURNDATACOPY | [isSuccess, 0, rds]                         | Mem[0:rds-1] = RETURNDATA[0:rds-1]\n39 | 60 2B | PUSH1 2B       | [43, isSuccess, 0, rds]                     |\n41 | 57    | JUMPI          | [0, rds]                                    | if(isSuccess) then jump to PC=43\n42 | FD    | REVERT         | []                                          | revert(Mem[0, rds-1])\n43 | 5B    | JUMPDEST       | [0, rds]                                    |\n44 | F3    | RETURN         | []                                          | return(Mem[0, rds-1])\n */\n\n/** Factory of Proxies to the SmartWallet (Forwarder)\n */\ncontract SmartWalletFactory is ISmartWalletFactory {\n    using ECDSA for bytes32;\n \n    bytes11 private constant RUNTIME_START = hex\"363D3D373D3D3D3D363D73\";\n    bytes14 private constant RUNTIME_END = hex\"5AF43D923D90803E602B57FD5BF3\";\n    address public masterCopy; // this is the ForwarderProxy contract that will be proxied\n    bytes32 public constant DATA_VERSION_HASH = keccak256(\"2\");\n\n    // Nonces of senders, used to prevent replay attacks\n    mapping(address => uint256) private nonces;\n\n    /**\n     * @param forwarderTemplate It implements all the payment and execution needs,\n     * it pays for the deployment during initialization, and it pays for the transaction\n     * execution on each execute() call.\n     */\n    constructor(address forwarderTemplate) public {\n        masterCopy = forwarderTemplate;\n    }\n\n    function runtimeCodeHash() external override view returns (bytes32){\n        return keccak256(\n            abi.encodePacked(RUNTIME_START, masterCopy, RUNTIME_END)\n        );\n    }\n\n    function nonce(address from) public override view returns (uint256) {\n        return nonces[from];\n    }\n\n    function createUserSmartWallet(\n        address owner,\n        address recoverer,\n        uint256 index,\n        bytes calldata sig\n    ) external override {\n        bytes32 _hash = keccak256(abi.encodePacked(\n            address(this),\n            owner,\n            recoverer,\n            index\n        ));\n        bytes32 message = keccak256(abi.encodePacked(\"\\x19Ethereum Signed Message:\\n32\", _hash));\n        require(RSKAddrValidator.safeEquals(message.recover(sig),owner), \"Invalid signature\");\n        \n        //a6b63eb8  =>  initialize(address owner,address tokenAddr,address tokenRecipient,uint256 tokenAmount,uint256 tokenGas)  \n        bytes memory initData = abi.encodeWithSelector(\n            hex\"a6b63eb8\",\n            owner,\n            address(0), // This \"gas-funded\" call does not pay with tokens\n            address(0),\n            0,\n            0 //No token transfer\n        );\n\n        deploy(getCreationBytecode(), keccak256(\n            abi.encodePacked(\n                owner,\n                recoverer,\n                index\n            ) // salt\n        ), initData);\n    }\n\n    function relayedUserSmartWalletCreation(\n        IForwarder.DeployRequest memory req,\n        bytes32 domainSeparator,\n        bytes32 suffixData,\n        bytes calldata sig\n    ) external override {\n\n        require(msg.sender == req.relayHub, \"Invalid caller\");\n        _verifySig(req, domainSeparator, suffixData, sig);\n        nonces[req.from]++;\n\n        //a6b63eb8  =>  initialize(address owner,address tokenAddr,address tokenRecipient,uint256 tokenAmount,uint256 tokenGas)  \n        //a9059cbb = transfer(address _to, uint256 _value) public returns (bool success)\n        /* solhint-disable avoid-tx-origin */\n        deploy(getCreationBytecode(), keccak256(\n            abi.encodePacked(\n                req.from,\n                req.recoverer,\n                req.index\n            ) // salt\n        ), abi.encodeWithSelector(\n            hex\"a6b63eb8\",\n            req.from,\n            req.tokenContract,\n            tx.origin,\n            req.tokenAmount,\n            req.tokenGas\n        ));\n    }\n\n    /**\n     * Calculates the Smart Wallet address for an owner EOA\n     * @param owner - EOA of the owner of the smart wallet\n     * @param recoverer - Address of that can be used by some contracts to give specific roles to the caller (e.g, a recoverer)\n     * @param index - Allows to create many addresses for the same owner|recoverer\n     */\n    function getSmartWalletAddress(\n        address owner,\n        address recoverer,\n        uint256 index\n    ) external override view returns (address) {\n        return\n            address(\n                uint160(\n                    uint256(\n                        keccak256(\n                            abi.encodePacked(\n                                bytes1(0xff),\n                                address(this),\n                                keccak256(\n                                    abi.encodePacked(\n                                        owner,\n                                        recoverer,\n                                        index\n                                    )\n                                ), // salt\n                                keccak256(getCreationBytecode())\n                            )\n                        )\n                    )\n                )\n            );\n    }\n\n    function deploy(\n        bytes memory code,\n        bytes32 salt,\n        bytes memory initdata\n    ) internal returns (address addr) {\n\n        //Deployment of the Smart Wallet\n        /* solhint-disable-next-line no-inline-assembly */\n        assembly {\n            addr := create2(0, add(code, 0x20), mload(code), salt)\n            if iszero(extcodesize(addr)) {\n                revert(0, 0)\n            }\n        }\n\n        //Since the init code determines the address of the smart wallet, any initialization\n        //required is done via the runtime code, to avoid the parameters impacting on the resulting address\n\n        /* solhint-disable-next-line avoid-low-level-calls */\n        (bool success, ) = addr.call(initdata);\n\n        /* solhint-disable-next-line reason-string */\n        require(success, \"Unable to initialize SW\");\n\n        //No info is returned, an event is emitted to inform the new deployment\n        emit Deployed(addr, uint256(salt));\n    }\n\n    // Returns the proxy code to that is deployed on every Smart Wallet creation\n    function getCreationBytecode() public override view returns (bytes memory) {\n        //The code to install:  constructor, runtime start, master copy, runtime end\n        return abi.encodePacked(hex\"602D3D8160093D39F3\", RUNTIME_START, masterCopy, RUNTIME_END);\n    }\n\n    function _getEncoded(\n        IForwarder.DeployRequest memory req,\n        bytes32 suffixData\n    ) public pure returns (bytes memory) {\n        return\n            abi.encodePacked(\n                keccak256(\"RelayRequest(address relayHub,address from,address to,address tokenContract,address recoverer,uint256 value,uint256 nonce,uint256 tokenAmount,uint256 tokenGas,uint256 index,bytes data,RelayData relayData)RelayData(uint256 gasPrice,bytes32 domainSeparator,address relayWorker,address callForwarder,address callVerifier)\"),\n                abi.encode(\n                    req.relayHub,\n                    req.from,\n                    req.to,\n                    req.tokenContract,\n                    req.recoverer,\n                    req.value,\n                    req.nonce,\n                    req.tokenAmount,\n                    req.tokenGas,\n                    req.index,\n                    keccak256(req.data)    \n                ),\n                suffixData\n            );\n    }\n\n    function getChainID() internal pure returns (uint256 id) {\n        /* solhint-disable no-inline-assembly */\n        assembly {\n            id := chainid()\n        }\n    }\n\n    function _verifySig(\n        IForwarder.DeployRequest memory req,\n        bytes32 domainSeparator,\n        bytes32 suffixData,\n        bytes memory sig\n    ) internal view {\n\n        //Verify nonce\n        require(nonces[req.from] == req.nonce, \"nonce mismatch\");\n\n        //Verify Domain separator\n        require(\n            keccak256(\n                abi.encode(\n                    keccak256(\"EIP712Domain(string name,string version,uint256 chainId,address verifyingContract)\"),//EIP712DOMAIN_TYPEHASH\n                    keccak256(\"RSK Enveloping Transaction\"),// DOMAIN_NAME\n                    DATA_VERSION_HASH,\n                    getChainID(),\n                    address(this)\n                )\n            ) == domainSeparator,\n            \"Invalid domain separator\"\n        );\n\n        require(\n            RSKAddrValidator.safeEquals(\n                keccak256(abi.encodePacked(\n                    \"\\x19\\x01\",\n                    domainSeparator,\n                    keccak256(_getEncoded(req, suffixData)))\n                ).recover(sig), req.from),\"signature mismatch\"\n        );\n    }\n\n}\n",
  "sourcePath": "/Users/patricio/workspace/research/privacy/aztec/smart-wallet-react/contracts/smart-wallet/contracts/factory/SmartWalletFactory.sol",
  "compiler": {
    "name": "solc",
    "version": "0.6.12+commit.27d51765.Emscripten.clang"
  },
  "schemaVersion": "3.4.3",
  "updatedAt": "2022-01-28T15:51:22.002Z",
  "networkType": "ethereum",
  "devdoc": {
    "kind": "dev",
    "methods": {
      "constructor": {
        "params": {
          "forwarderTemplate": "It implements all the payment and execution needs, it pays for the deployment during initialization, and it pays for the transaction execution on each execute() call."
        }
      },
      "getSmartWalletAddress(address,address,uint256)": {
        "params": {
          "index": "- Allows to create many addresses for the same owner|recoverer",
          "owner": "- EOA of the owner of the smart wallet",
          "recoverer": "- Address of that can be used by some contracts to give specific roles to the caller (e.g, a recoverer)"
        }
      }
    },
    "version": 1
  },
  "userdoc": {
    "kind": "user",
    "methods": {
      "getSmartWalletAddress(address,address,uint256)": {
        "notice": "Calculates the Smart Wallet address for an owner EOA"
      }
    },
    "notice": "Factory of Proxies to the SmartWallet (Forwarder)",
    "version": 1
  }
}